:100000000C945D000C9485000C9485000C94850084
:100010000C9485000C9485000C9485000C9485004C
:100020000C9485000C9485000C9485000C9485003C
:100030000C9485000C9485000C9485000C9485002C
:100040000C94BF020C9485000C9485000C948500E0
:100050000C9485000C9485000C9485000C9485000C
:100060000C9485000C9485000000000024002700FB
:100070002A0000000000250028002B0004040404CE
:100080000404040402020202020203030303030342
:10009000010204081020408001020408102001021F
:1000A00004081020000000080002010000030407FB
:1000B0000000000000000000280511241FBECFEF43
:1000C000D8E0DEBFCDBF11E0A0E0B1E0ECECFFE096
:1000D00002C005900D92A632B107D9F721E0A6E241
:1000E000B1E001C01D92AD34B207E1F710E0CDE5FB
:1000F000D0E004C02197FE010E94D907CC35D1077A
:10010000C9F70E9409030C94E4070C94000090E0E6
:10011000FC01EC55FF4F2491FC01E057FF4F349157
:10012000FC01E458FF4FE491EE2309F43CC0222384
:1001300039F1233091F038F42130A9F0223001F563
:1001400084B58F7D12C0273091F02830A1F0243083
:10015000B9F4809180008F7D03C0809180008F77FB
:10016000809380000DC084B58F7784BD09C08091D5
:10017000B0008F7703C08091B0008F7D8093B00076
:10018000F0E0EE0FFF1FEE58FF4FA591B4919FB71F
:10019000F894611104C08C913095382302C0EC9121
:1001A0003E2B3C939FBF0895CF93DF9390E0FC01DB
:1001B000E057FF4F2491FC01E458FF4F84918823BE
:1001C00061F190E0880F991FFC01E859FF4FC5913C
:1001D000D491FC01EE58FF4FA591B491611109C073
:1001E0009FB7F8948881209582238883EC912E23F1
:1001F0000BC0623061F49FB7F8948881322F30953C
:1002000083238883EC912E2B2C939FBF06C08FB73E
:10021000F894E8812E2B28838FBFDF91CF9108952A
:100220003FB7F8948091310190913201A091330150
:10023000B091340126B5A89B05C02F3F19F0019657
:10024000A11DB11D3FBFBA2FA92F982F8827820F5C
:10025000911DA11DB11DBC01CD0142E0660F771FAC
:10026000881F991F4A95D1F70895CF92DF92EF9298
:10027000FF920F931F93CF93DF936C017A018B0151
:10028000C0E0D0E0CE15DF0581F0D8016D918D0181
:10029000D601ED91FC910190F081E02DC601099508
:1002A000892B11F02196EECF7E01C701DF91CF910E
:1002B0001F910F91FF90EF90DF90CF900895CF9313
:1002C000DF93EC0160E08E810E94870061E08E8107
:1002D0000E94870060E08E810E9487008BE891E099
:1002E0000197F1F7DF91CF910895CF92DF92EF92CE
:1002F000FF920F931F93CF93DF936C017C0187E0F4
:10030000E80EF11CC0E0D0E0062F10E0B8010C2E82
:1003100002C0759567950A94E2F76170F7018191C3
:100320007F010E9487002196C430D10579F7C6016C
:10033000DF91CF911F910F91FF90EF90DF90CF90C1
:100340000C945F01CF92DF92EF92FF920F931F9375
:10035000CF93DF93EC01F62E642F8C810E948700EF
:100360008D818F3F19F060E00E9487008F850F2DEF
:1003700010E084FF25C06E0187E0C80ED11CE12C7F
:10038000F12CB8010E2C02C0759567950A94E2F71E
:100390006170F60181916F010E948700FFEFEF1AF3
:1003A000FF0A88E0E816F10461F7CE01DF91CF91F2
:1003B0001F910F91FF90EF90DF90CF900C945F0111
:1003C000B80184E0759567958A95E1F7CE010E94A2
:1003D00075016F2DCE01DF91CF911F910F91FF908D
:1003E000EF90DF90CF900C94750140E0682F85E38B
:1003F00091E00C94A201CF93DF93823028F090918A
:1004000044019860909344018093480110924901FF
:1004100080E480934A0180E180934B0180E58093E2
:100420004C0161E0809139010E94D40080913A0131
:100430008F3F19F061E00E94D40061E080913B01A0
:100440000E94D400C5E3D1E09E0125533140809144
:10045000440184FD03C084E090E002C088E090E0A5
:100460002196281739072CF461E08E810E94D40070
:10047000EBCF8BE39DE00197F1F760E080913901CC
:100480000E94870060E080913B010E94870080917C
:100490003A018F3F19F060E00E948700809144018B
:1004A00084FD20C063E085E391E00E947501CBE408
:1004B000D6E4CE010197F1F763E085E391E00E9475
:1004C00075012197F1F763E085E391E00E947501E2
:1004D00083E592E00197F1F762E085E391E00E9405
:1004E000750115C080620E94F5018BE496E40197C6
:1004F000F1F78091440180620E94F50183E592E06A
:100500000197F1F78091440180620E94F50180918A
:10051000440180620E94F50184E0809345018CE0F3
:100520000E94F50181E00E94F5018BE39FE10197B4
:10053000F1F782E08093460186E0DF91CF910C9441
:10054000F50141E00E94A20181E090E00895089544
:1005500080E090E00895009769F0FC010190002090
:10056000E9F73197AF01481B590BBC0185E391E0D6
:100570000C94350180E090E008950E94DF071F92FF
:100580000F920FB60F9211242F933F938F939F9347
:10059000AF93BF9380912D0190912E01A0912F01D7
:1005A000B091300130912C0123E0230F2D3720F43E
:1005B0000196A11DB11D05C026E8230F0296A11DBD
:1005C000B11D20932C0180932D0190932E01A093B7
:1005D0002F01B09330018091310190913201A091AF
:1005E0003301B09134010196A11DB11D80933101F9
:1005F00090933201A0933301B0933401BF91AF9136
:100600009F918F913F912F910F900FBE0F901F9050
:100610001895CF93DF93CDB7DEB7A2970FB6F894B6
:10062000DEBF0FBECDBF789484B5826084BD84B533
:10063000816084BD85B5826085BD85B5816085BDDD
:1006400080916E00816080936E0010928100809195
:10065000810082608093810080918100816080931D
:100660008100809180008160809380008091B10042
:1006700084608093B1008091B00081608093B0006D
:1006800080917A00846080937A0080917A00826001
:1006900080937A0080917A00816080937A008091C3
:1006A0007A00806880937A001092C10082E00E94F4
:1006B000FB0160E08EE00E94D40061E08BE00E94CC
:1006C000D4009AE0892E912CA12CB12C20E4209307
:1006D0007C0080917A00806480937A0080917A0017
:1006E00086FDFCCFE090780080917900F12CF82A0B
:1006F000F0922B01E0922A012EEF30E0D7010E9408
:10070000D2072FEF33E040E050E00E944605122F61
:10071000032FC22ED32EB701FF0C880B990B0E941A
:10072000AB0620E030E040EC50E40E94600720E09F
:1007300030EC4FE754E40E94080660932601709362
:100740002701809328019093290161E08BE00E94AA
:10075000D400C114D10411F460E005C08FEFC816B5
:10076000D10429F461E08BE00E94870048C0EFEAE1
:10077000F0E08491833009F148F48130C9F082308F
:10078000C1F584B5806284BD18BD39C0873009F1D8
:10079000883039F1843069F58091800080628093DF
:1007A0008000812F902F90938B0080938A0027C028
:1007B00084B5806884BD17BD22C0809180008068A8
:1007C00080938000812F902F9093890080938800E0
:1007D00016C08091B00080688093B0001093B30081
:1007E0000EC08091B00080628093B0001093B4007E
:1007F00006C0F0E8CF16D1040CF0B4CFADCFE1E0E5
:10080000809148018111E0E0E195F0E0EB5CFE4F62
:10081000848980680E94F5018CE091E00E94AB021F
:10082000E0914801E23010F4E15001C0E1E0F0E075
:10083000EB5CFE4F848980680E94F501C090260120
:10084000D0902701E0902801F0902901A70196019E
:10085000C701B6010E94CD07882319F087E191E016
:100860001AC026013701E89477F82FEF3FEF4FE7E2
:100870005FE7C301B2010E94CD0781110FC02FEFC6
:100880003FEF4FE75FE7C301B2010E94030618166E
:100890002CF48BE191E00E94AB0299C02FEF3FEF67
:1008A0004FE75FE4C701B6010E945B0718161CF40E
:1008B0008FE191E0F0CF2FEF3FEF4FE75FECC70103
:1008C000B6010E94030687FDF3CF20E030E0A901C6
:1008D000C701B6010E94030687FF0AC041E06DE22E
:1008E00085E391E00E94A201F7FAF094F7F8F09402
:1008F0002AE037ED43EA5BE3C701B6010E949705A2
:100900006B017C010E947A062B013C010E94A90622
:100910009B01AC01C701B6010E9496056B017C01E9
:1009200019A28E010F5D1F4F0AA3212EC301B20130
:10093000A50194010E94650529013A01605DF80155
:1009400062938F01232B242B252B81F7CF010E944B
:10095000AB0241E06EE285E391E00E94A20113E068
:100960001150A9F120E030E040E251E4C701B601A6
:100970000E9460072B013C010E947A069B0140E027
:1009800050E019A2EAA0F22C362E032F6A01CA0108
:10099000B901A50194010E946505605DF7016293AC
:1009A0007F01211531054105510589F7CF010E94CD
:1009B000AB02632D702FC6010E94A9069B01AC01FA
:1009C000C301B2010E9496056B017C01C9CFE09181
:1009D0004801E23010F4E15001C0E1E0F0E0EB5CEE
:1009E000FE4F84898B5F80680E94F50183E291E06D
:1009F0000E94AB020E9410012B013C0182E3C82E31
:100A0000D12CE12CF12C0E941001DC01CB018419C6
:100A10009509A609B709883E9340A105B10598F349
:100A2000F1E0CF1AD108E108F10828EE420E23E0E8
:100A3000521E611C711CC114D104E104F10419F7A8
:100A400080E090E0892B09F441CE0E9400003ECE68
:100A5000E5E3F1E01382128284E091E091838083E8
:100A600087E084838FEF858386E0868385E08783B4
:100A700084E0808783E0818782E082871386148602
:100A800015861686178681E00C94FB01052E97FBD0
:100A90001EF400940E945D0557FD07D00E94650575
:100AA00007FC03D04EF40C945D05509540953095AD
:100AB00021953F4F4F4F5F4F0895909580957095CA
:100AC00061957F4F8F4F9F4F0895A1E21A2EAA1B69
:100AD000BB1BFD010DC0AA1FBB1FEE1FFF1FA217EE
:100AE000B307E407F50720F0A21BB30BE40BF50BEB
:100AF000661F771F881F991F1A9469F76095709574
:100B0000809590959B01AC01BD01CF010895A29FF6
:100B1000B001B39FC001A39F700D811D1124911DD1
:100B2000B29F700D811D1124911D08955058BB274F
:100B3000AA270E94AE050C9421070E94130738F0E3
:100B40000E941A0720F039F49F3F19F426F40C9400
:100B500010070EF4E095E7FB0C940A07E92F0E94BA
:100B6000320758F3BA17620773078407950720F016
:100B700079F4A6F50C9454070EF4E0950B2EBA2FD9
:100B8000A02D0B01B90190010C01CA01A001112493
:100B9000FF27591B99F0593F50F4503E68F11A163F
:100BA000F040A22F232F342F4427585FF3CF4695D0
:100BB00037952795A795F0405395C9F77EF41F16F2
:100BC000BA0B620B730B840BBAF09150A1F0FF0FBC
:100BD000BB1F661F771F881FC2F70EC0BA0F621FA8
:100BE000731F841F48F4879577956795B795F79598
:100BF0009E3F08F0B0CF9395880F08F09927EE0F2D
:100C00009795879508950E94E60608F481E0089577
:100C10000E941C060C9421070E941A0758F00E949B
:100C2000130740F029F45F3F29F00C940A07511193
:100C30000C9455070C9410070E94320768F399230F
:100C4000B1F3552391F3951B550BBB27AA276217C8
:100C50007307840738F09F5F5F4F220F331F441FD5
:100C6000AA1FA9F335D00E2E3AF0E0E832D0915009
:100C70005040E695001CCAF72BD0FE2F29D0660FF6
:100C8000771F881FBB1F261737074807AB07B0E839
:100C900009F0BB0B802DBF01FF2793585F4F3AF03F
:100CA0009E3F510578F00C940A070C9455075F3F5E
:100CB000E4F3983ED4F3869577956795B795F795C5
:100CC0009F5FC9F7880F911D9695879597F90895AD
:100CD000E1E0660F771F881FBB1F62177307840749
:100CE000BA0720F0621B730B840BBA0BEE1F88F758
:100CF000E09508950E943A0788F09F5798F0B92F21
:100D00009927B751B0F0E1F0660F771F881F991F40
:100D10001AF0BA95C9F714C0B13091F00E94540787
:100D2000B1E008950C945407672F782F8827B85F97
:100D300039F0B93FCCF3869577956795B395D9F798
:100D40003EF490958095709561957F4F8F4F9F4FA2
:100D50000895E89409C097FB3EF4909580957095AE
:100D600061957F4F8F4F9F4F9923A9F0F92F96E9F7
:100D7000BB279395F695879577956795B795F1116C
:100D8000F8CFFAF4BB0F11F460FF1BC06F5F7F4F09
:100D90008F4F9F4F16C0882311F096E911C077231B
:100DA00021F09EE8872F762F05C0662371F096E824
:100DB000862F70E060E02AF09A95660F771F881FF3
:100DC000DAF7880F9695879597F90895990F000897
:100DD000550FAA0BE0E8FEEF16161706E807F9070D
:100DE000C0F012161306E407F50798F0621B730BA8
:100DF000840B950B39F40A2661F0232B242B252B29
:100E000021F408950A2609F4A140A6958FEF811DCB
:100E1000811D089597F99F6780E870E060E008956C
:100E20009FEF80EC089500240A9416161706180602
:100E30000906089500240A941216130614060506DE
:100E40000895092E0394000C11F4882352F0BB0F6F
:100E500040F4BF2B11F460FF04C06F5F7F4F8F4FD2
:100E60009F4F089557FD9058440F551F59F05F3F0D
:100E700071F04795880F97FB991F61F09F3F79F0BC
:100E800087950895121613061406551FF2CF46953E
:100E9000F1DF08C0161617061806991FF1CF8695C0
:100EA0007105610508940895E894BB2766277727A4
:100EB000CB0197F908950E94E60608F48FEF089594
:100EC0000E9473070C9421070E94130738F00E94B8
:100ED0001A0720F0952311F00C940A070C941007C0
:100EE00011240C9455070E94320770F3959FC1F3AB
:100EF000950F50E0551F629FF001729FBB27F00DC8
:100F0000B11D639FAA27F00DB11DAA1F649F66271C
:100F1000B00DA11D661F829F2227B00DA11D621F6B
:100F2000739FB00DA11D621F839FA00D611D221F25
:100F3000749F3327A00D611D231F849F600D211D09
:100F4000822F762F6A2F11249F5750409AF0F1F08C
:100F500088234AF0EE0FFF1FBB1F661F771F881FF5
:100F600091505040A9F79E3F510580F00C940A071C
:100F70000C9455075F3FE4F3983ED4F3869577953C
:100F80006795B795F795E7959F5FC1F7FE2B880F9B
:100F9000911D9695879597F908950E94E606880B0E
:100FA000990B08950E948705B7FF0895821B930B44
:100FB0000895EE0FFF1F0590F491E02D099481E054
:0C0FC00090E0F8940C94E407F894FFCF44
:100FCC0000000000A1023501A802A7024E61706961
:100FDC0065636965203A006E616E00696E66006F2C
:060FEC00766600560000CD
:00000001FF
