:100000000C9461000C9473000C9473000C947300B6
:100010000C9473000C9473000C9473000C94730094
:100020000C9473000C9473000C9473000C94730084
:100030000C9473000C9473000C9473000C94730074
:100040000C948E010C9473000C9473000C94730048
:100050000C9473000C9473000C9473000C94730054
:100060000C9473000C94730000000000240027001F
:100070002A0000000000250028002B0000000000DE
:1000800023002600290004040404040404040202DA
:100090000202020203030303030301020408102007
:1000A0004080010204081020010204081020000012
:1000B0000008000201000003040700000000000027
:1000C000000011241FBECFEFD8E0DEBFCDBF21E07E
:1000D000A0E0B1E001C01D92AB30B207E1F70E9491
:1000E000D8010C9483020C940000833081F028F432
:1000F000813099F08230A1F008958730A9F08830DE
:10010000B9F08430D1F4809180008F7D03C080915C
:1001100080008F7780938000089584B58F7702C028
:1001200084B58F7D84BD08958091B0008F7703C022
:100130008091B0008F7D8093B0000895CF93DF93BE
:10014000282F30E0F901E255FF4F8491F901E6567E
:10015000FF4FD491F901EA57FF4FC491CC2391F09E
:1001600081110E947500EC2FF0E0EE0FFF1FE458A4
:10017000FF4FA591B491EC91ED2381E090E021F443
:1001800080E002C080E090E0DF91CF9108951F935E
:10019000CF93DF93282F30E0F901E255FF4F849190
:1001A000F901E656FF4FD491F901EA57FF4FC49188
:1001B000CC23C1F0162F81110E947500EC2FF0E0C6
:1001C000EE0FFF1FEE58FF4FA591B4919FB7F89423
:1001D000111104C08C91D095D82302C0EC91DE2B74
:1001E000DC939FBFDF91CF911F910895CF93DF9351
:1001F00090E0FC01E656FF4F2491FC01EA57FF4FC7
:100200008491882361F190E0880F991FFC01E859DF
:10021000FF4FC591D491FC01EE58FF4FA591B491C9
:10022000611109C09FB7F894888120958223888343
:10023000EC912E230BC0623061F49FB7F894888153
:10024000322F309583238883EC912E2B2C939FBFE4
:1002500006C08FB7F894E8812E2B28838FBFDF91DB
:10026000CF9108953FB7F8948091070190910801CC
:10027000A0910901B0910A0126B5A89B05C02F3FA6
:1002800019F00196A11DB11D3FBFBA2FA92F982FBC
:100290008827820F911DA11DB11DBC01CD0142E037
:1002A000660F771F881F991F4A95D1F708958F927F
:1002B0009F92AF92BF92CF92DF92EF92FF920E94F5
:1002C00032014B015C0184E1C82ED12CE12CF12CD0
:1002D0000E943201DC01CB0188199909AA09BB09E6
:1002E000883E9340A105B10598F321E0C21AD108D8
:1002F000E108F10888EE880E83E0981EA11CB11C6D
:10030000C114D104E104F10419F7FF90EF90DF90DC
:10031000CF90BF90AF909F908F9008951F920F92B3
:100320000FB60F9211242F933F938F939F93AF9308
:10033000BF938091030190910401A0910501B091B8
:1003400006013091020123E0230F2D3720F401969E
:10035000A11DB11D05C026E8230F0296A11DB11DE8
:10036000209302018093030190930401A09305015F
:10037000B09306018091070190910801A0910901B5
:10038000B0910A010196A11DB11D809307019093C0
:100390000801A0930901B0930A01BF91AF919F9109
:1003A0008F913F912F910F900FBE0F901F90189536
:1003B000789484B5826084BD84B5816084BD85B540
:1003C000826085BD85B5816085BD80916E0081604C
:1003D00080936E00109281008091810082608093F2
:1003E00081008091810081608093810080918000F4
:1003F0008160809380008091B10084608093B1001F
:100400008091B00081608093B00080917A00846018
:1004100080937A0080917A00826080937A00809144
:100420007A00816080937A0080917A00806880935E
:100430007A001092C10061E08AE00E94F60061E05B
:1004400089E00E94F60061E088E00E94F60060E02A
:100450008BE00E94F600C0E0D0E08BE00E949E009E
:10046000892B09F44AC00E945701809100019091A4
:100470000101019690930101809300018230910562
:10048000F9F044F4019791F561E08AE00E94C70019
:1004900060E01BC083309105E9F0049739F560E016
:1004A0008AE00E94C70061E089E00E94C70060E026
:1004B00088E00E94C700109201011092000116C04E
:1004C00061E08AE00E94C70061E089E00E94C70005
:1004D00060E009C060E08AE00E94C70060E089E057
:1004E0000E94C70061E088E00E94C7008BE00E9484
:1004F0009E00892BD9F70E945701209709F4ADCFB0
:0A0500000E940000AACFF894FFCF7C
:00000001FF
