:100000000C9462000C948A000C948A000C948A0070
:100010000C948A000C948A000C948A000C948A0038
:100020000C948A000C948A000C948A000C948A0028
:100030000C948A000C948A000C948A000C948A0018
:100040000C9418030C948A000C948A000C948A0077
:100050000C948A000C948A000C948A000C948A00F8
:100060000C948A000C948A000000000024002700F1
:100070002A0000000000250028002B0000000000DE
:1000800023002600290004040404040404040202DA
:100090000202020203030303030301020408102007
:1000A0004080010204081020010204081020000012
:1000B0000008000201000003040700000000000027
:1000C0000000080511241FBECFEFD8E0DEBFCDBF72
:1000D00011E0A0E0B1E0E4E1FBE002C005900D9288
:1000E000A232B107D9F721E0A2E2B1E001C01D922E
:1000F000AD34B207E1F710E0C2E6D0E004C02197CA
:10010000FE010E947D05C136D107C9F70E94620336
:100110000C9488050C940000833081F028F4813021
:1001200099F08230A1F008958730A9F08830B9F0B5
:100130008430D1F4809180008F7D03C08091800055
:100140008F7780938000089584B58F7702C084B53F
:100150008F7D84BD08958091B0008F7703C080911A
:10016000B0008F7D8093B0000895CF93DF93E9EBCB
:10017000F0E08491E5EAF0E0D491E1E9F0E0C491A7
:10018000CC2391F081110E948C00EC2FF0E0EE0F57
:10019000FF1FE458FF4FA591B491EC91ED2381E04E
:1001A00090E021F480E002C080E090E0DF91CF9108
:1001B00008951F93CF93DF93282F30E0F901E25584
:1001C000FF4F8491F901E656FF4FD491F901EA57A8
:1001D000FF4FC491CC23C1F0162F81110E948C00D7
:1001E000EC2FF0E0EE0FFF1FEE58FF4FA591B491FA
:1001F0009FB7F894111104C08C91D095D82302C0F8
:10020000EC91DE2BDC939FBFDF91CF911F9108957E
:10021000CF93DF9390E0FC01E656FF4F2491FC0161
:10022000EA57FF4F8491882361F190E0880F991F6E
:10023000FC01E859FF4FC591D491FC01EE58FF4FE6
:10024000A591B491611109C09FB7F8948881209558
:1002500082238883EC912E230BC0623061F49FB718
:10026000F8948881322F309583238883EC912E2B4C
:100270002C939FBF06C08FB7F894E8812E2B28835C
:100280008FBFDF91CF9108953FB7F89480913101EE
:1002900090913201A0913301B091340126B5A89B11
:1002A00005C02F3F19F00196A11DB11D3FBFBA2F08
:1002B000A92F982F8827820F911DA11DB11DBC0168
:1002C000CD0142E0660F771F881F991F4A95D1F72D
:1002D00008958F929F92AF92BF92CF92DF92EF924A
:1002E000FF920E9444014B015C0184E1C82ED12C95
:1002F000E12CF12C0E944401DC01CB018819990901
:10030000AA09BB09883E9340A105B10598F321E0F5
:10031000C21AD108E108F10888EE880E83E0981E21
:10032000A11CB11CC114D104E104F10419F7FF9020
:10033000EF90DF90CF90BF90AF909F908F900895F7
:10034000CF92DF92EF92FF920F931F93CF93DF93A1
:100350006C017A018B01C0E0D0E0CE15DF0581F0A1
:10036000D8016D918D01D601ED91FC910190F08144
:10037000E02DC6010995892B11F02196EECF7E0163
:10038000C701DF91CF911F910F91FF90EF90DF9008
:10039000CF900895CF93DF93EC0160E08E810E94AF
:1003A000D90061E08E810E94D90060E08E810E94B8
:1003B000D9008BE891E00197F1F7DF91CF91089593
:1003C000CF92DF92EF92FF920F931F93CF93DF9321
:1003D0006C017C0187E0E80EF11CC0E0D0E0062F44
:1003E00010E0B8010C2E02C0759567950A94E2F7EB
:1003F0006170F70181917F010E94D9002196C4307C
:10040000D10579F7C601DF91CF911F910F91FF9030
:10041000EF90DF90CF900C94CA01CF92DF92EF92D1
:10042000FF920F931F93CF93DF93EC01F62E642F6F
:100430008C810E94D9008D818F3F19F060E00E946D
:10044000D9008F850F2D10E084FF25C06E0187E055
:10045000C80ED11CE12CF12CB8010E2C02C07595F0
:1004600067950A94E2F76170F60181916F010E942D
:10047000D900FFEFEF1AFF0A88E0E816F10461F7F0
:10048000CE01DF91CF911F910F91FF90EF90DF9000
:10049000CF900C94CA01B80184E0759567958A9550
:1004A000E1F7CE010E94E0016F2DCE01DF91CF91E7
:1004B0001F910F91FF90EF90DF90CF900C94E0018F
:1004C00040E0682F85E391E00C940D02CF93DF9319
:1004D000823028F090914401986090934401809379
:1004E00048011092490180E480934A0180E18093A1
:1004F0004B0180E580934C0161E0809139010E94BD
:10050000080180913A018F3F19F061E00E940801D3
:1005100061E080913B010E940801C5E3D1E09E01AA
:10052000255331408091440184FD03C084E090E074
:1005300002C088E090E02196281739072CF461E08A
:100540008E810E940801EBCF8BE39DE00197F1F7CC
:1005500060E0809139010E94D90060E080913B0108
:100560000E94D90080913A018F3F19F060E00E940B
:10057000D9008091440184FD20C063E085E391E0CF
:100580000E94E001CBE4D6E4CE010197F1F763E0ED
:1005900085E391E00E94E0012197F1F763E085E3B4
:1005A00091E00E94E00183E592E00197F1F762E0BB
:1005B00085E391E00E94E00115C080620E94600224
:1005C0008BE496E40197F1F78091440180620E94E8
:1005D000600283E592E00197F1F780914401806227
:1005E0000E9460028091440180620E94600284E067
:1005F000809345018CE00E94600281E00E946002CD
:100600008BE39FE10197F1F782E08093460186E05A
:10061000DF91CF910C94600241E00E940D0281E0D5
:1006200090E00895089580E090E008950E94830589
:100630001F920F920FB60F9211242F933F938F9317
:100640009F93AF93BF9380912D0190912E01A09124
:100650002F01B091300130912C0123E0230F2D3771
:1006600020F40196A11DB11D05C026E8230F0296B6
:10067000A11DB11D20932C0180932D0190932E017B
:10068000A0932F01B09330018091310190913201FC
:10069000A0913301B09134010196A11DB11D809349
:1006A000310190933201A0933301B0933401BF9193
:1006B000AF919F918F913F912F910F900FBE0F900F
:1006C0001F901895789484B5826084BD84B581604C
:1006D00084BD85B5826085BD85B5816085BD80910D
:1006E0006E00816080936E00109281008091810085
:1006F000826080938100809181008160809381007D
:10070000809180008160809380008091B10084603E
:100710008093B1008091B00081608093B00080919F
:100720007A00846080937A0080917A00826080935E
:100730007A0080917A00816080937A0080917A00BB
:10074000806880937A001092C10082E00E94660265
:1007500061E089E00E94080161E088E00E940801F0
:1007600061E08AE00E94080160E08EE00E940801DA
:1007700060E08BE00E9408014BE3E42E4FE1F42E91
:1007800088248A9453E0952EA12CB12C68EB662E18
:1007900060E0762E70E0C72E70E0D72E30E4532E46
:1007A000E1E0809148018111E0E0E195F0E0EB5C4F
:1007B000FE4F848980680E94600248E050E06CE04F
:1007C00071E085E391E00E94A001E1E080914801A1
:1007D0008111E0E0E195F0E0EB5CFE4F8489875FFA
:1007E00080680E946002809124019091250144E07C
:1007F00050E0892B19F465E171E002C06AE171E013
:1008000085E391E00E94A001C0912601D0912701CB
:100810008091220190912301C817D90734F1E0910A
:100820004801E23010F4E15001C0E1E0F0E0EB5C9F
:10083000FE4F848980680E946002C0E0D0E0809111
:100840002601909127018C179D0754F041E050E05C
:100850006FE171E085E391E00E94A0012196EFCF66
:1008600090932301809322010AC081E00E946002DC
:10087000C7010197F1F7D0932301C09322010E9491
:10088000B500892BB1F00E94690181E090E02091D0
:10089000240130912501232B11F080E090E090930A
:1008A0002501809324010E94B500892BE1F70E9465
:1008B00069018091240190912501009741F00197F1
:1008C00071F460E089E00E94D90061E005C061E058
:1008D00089E00E94D90060E088E00E94D90050922F
:1008E0007C0080917A00806480937A0080917A0005
:1008F00086FDFCCFC091780080917900D0E0D82BA4
:10090000D0932B01C0932A012EEF30E0DE010E942C
:100910007605A50194010E942605422E332E022F52
:10092000132F1093290100932801CE01DD0FAA0B8C
:10093000BB0BBC01CD0124E0660F771F881F991FF8
:100940002A95D1F7A50194010E942605309327012D
:100950002093260161E08AE00E940801011511053B
:1009600011F460E004C00F3F110529F461E08AE052
:100970000E94D90046C0F3018491833009F148F404
:100980008130C9F08230C1F584B5806284BD48BC35
:1009900038C0873009F1883039F1843069F58091A9
:1009A0008000806280938000842D932D90938B0033
:1009B00080938A0026C084B5806884BD47BC21C06E
:1009C00080918000806880938000842D932D909387
:1009D00089008093880015C08091B0008068809362
:1009E000B0004092B3000DC08091B000806280934F
:1009F000B0004092B40005C0003811050CF0B6CF2D
:100A0000B0CFC114D10409F4CBCE0E940000C6CEF1
:100A1000E5E3F1E01382128284E091E09183808328
:100A200087E084838FEF858386E0868385E08783F4
:100A300084E0808783E0818782E082871386148642
:100A400015861686178681E00C946602052E97FBA4
:100A50001EF400940E943D0557FD07D00E944505F5
:100A600007FC03D04EF40C943D055095409530950D
:100A700021953F4F4F4F5F4F08959095809570950A
:100A800061957F4F8F4F9F4F0895A1E21A2EAA1BA9
:100A9000BB1BFD010DC0AA1FBB1FEE1FFF1FA2172E
:100AA000B307E407F50720F0A21BB30BE40BF50B2B
:100AB000661F771F881F991F1A9469F760957095B4
:100AC000809590959B01AC01BD01CF010895A29F37
:100AD000B001B39FC001A39F700D811D1124911D12
:100AE000B29F700D811D1124911D08950E9467050C
:100AF000B7FF0895821B930B0895EE0FFF1F05901B
:100B0000F491E02D099481E090E0F8940C9488052C
:040B1000F894FFCF87
:100B1400000000000C03A001130312036B6965724B
:100B2400756E656B002D2D2D3E003C2D2D2D002A5C
:020B34000000BF
:00000001FF
