:100000000C945D000C9485000C9485000C94850084
:100010000C9485000C9485000C9485000C9485004C
:100020000C9485000C9485000C9485000C9485003C
:100030000C9485000C9485000C9485000C9485002C
:100040000C9475020C9485000C94E5020C94BF028C
:100050000C9485000C9485000C9485000C9485000C
:100060000C9485000C9485000000000024002700FB
:100070002A0000000000250028002B0004040404CE
:100080000404040402020202020203030303030342
:10009000010204081020408001020408102001021F
:1000A00004081020000000080002010000030407FB
:1000B0000000000000000000670411241FBECFEF05
:1000C000D8E0DEBFCDBF11E0A0E0B1E0E0EFF9E0A5
:1000D00002C005900D92AC33B107D9F721E0ACE333
:1000E000B1E001C01D92A63EB207E1F710E0CDE5F8
:1000F000D0E004C02197FE010E94EB04CC35D1076B
:10010000C9F70E9417030C94F6040C94000090E0C9
:10011000FC01EC55FF4F2491FC01E057FF4F349157
:10012000FC01E458FF4FE491EE2309F43CC0222384
:1001300039F1233091F038F42130A9F0223001F563
:1001400084B58F7D12C0273091F02830A1F0243083
:10015000B9F4809180008F7D03C0809180008F77FB
:10016000809380000DC084B58F7784BD09C08091D5
:10017000B0008F7703C08091B0008F7D8093B00076
:10018000F0E0EE0FFF1FEE58FF4FA591B4919FB71F
:10019000F894611104C08C913095382302C0EC9121
:1001A0003E2B3C939FBF0895CF93DF9390E0FC01DB
:1001B000E057FF4F2491FC01E458FF4F84918823BE
:1001C00061F190E0880F991FFC01E859FF4FC5913C
:1001D000D491FC01EE58FF4FA591B491611109C073
:1001E0009FB7F8948881209582238883EC912E23F1
:1001F0000BC0623061F49FB7F8948881322F30953C
:1002000083238883EC912E2B2C939FBF06C08FB73E
:10021000F894E8812E2B28838FBFDF91CF9108952A
:10022000CF92DF92EF92FF920F931F93CF93DF93C2
:100230006C017A018B01C0E0D0E0CE15DF0581F0C2
:10024000D8016D918D01D601ED91FC910190F08165
:10025000E02DC6010995892B11F02196EECF7E0184
:10026000C701DF91CF911F910F91FF90EF90DF9029
:10027000CF900895089580E090E00895FC01538D9B
:10028000448D252F30E0842F90E0821B930B541770
:1002900010F0CF96089501970895FC01918D828DFD
:1002A000981761F0828DDF01A80FB11D5D968C91CA
:1002B000928D9F5F9F73928F90E008958FEF9FEFD5
:1002C0000895FC01918D828D981731F0828DE80F91
:1002D000F11D858D90E008958FEF9FEF0895FC014B
:1002E000918D228D892F90E0805C9F4F821B910918
:1002F0008F739927089589E491E00E946F0121E0AE
:10030000892B09F420E0822F0895FC01848DDF0100
:10031000A80FB11DA35ABF4F2C91848D90E0019678
:100320008F739927848FA689B7892C93A089B18967
:100330008C91837080648C93938D848D981306C008
:100340000288F389E02D80818F7D80830895EF926C
:10035000FF920F931F93CF93DF93EC0181E0888F7F
:100360009B8D8C8D981305C0E889F989808185FD66
:1003700026C0F62E0B8D10E00F5F1F4F0F73112755
:10038000E02E8C8DE8120CC00FB607FCFACFE8897E
:10039000F989808185FFF5CFCE010E948501F1CFDB
:1003A0008B8DFE01E80FF11DE35AFF4FF0829FB7DE
:1003B000F8940B8FEA89FB89808180620AC09FB71D
:1003C000F894EE89FF896083E889F98980818370D8
:1003D000806480839FBF81E090E0DF91CF911F9187
:1003E0000F91FF90EF900895CF93DF93EC01888DEC
:1003F0008823C9F0EA89FB89808185FD05C0A88929
:10040000B9898C9186FD0FC00FB607FCF5CF8081AE
:1004100085FFF2CFA889B9898C9185FFEDCFCE01F8
:100420000E948501E7CFDF91CF91089580E090E0B1
:10043000892B29F00E947B0181110C940000089502
:10044000009769F0FC0101900020E9F73197AF01B6
:10045000481B590BBC0189E491E00C94100180E029
:1004600090E008958F929F92AF92BF920F931F9347
:10047000CF93DF93CDB7DEB7A1970FB6F894DEBF69
:100480000FBECDBF19A2423008F44AE08E010F5DC5
:100490001F4F842E912CA12CB12CA50194010E94F8
:1004A000B304E62FB901CA0101501109EA3014F46E
:1004B000E05D01C0E95CD801EC93232B242B252BB4
:1004C00061F7C8010E942002A1960FB6F894DEBF22
:1004D0000FBECDBFDF91CF911F910F91BF90AF9015
:1004E0009F908F9008950E94F1041F920F920FB673
:1004F0000F9211242F933F938F939F93AF93BF93AA
:100500008091450190914601A0914701B091480129
:100510003091440123E0230F2D3720F40196A11DD3
:10052000B11D05C026E8230F0296A11DB11D209321
:1005300044018093450190934601A0934701B093F5
:1005400048018091400190914101A0914201B091F8
:1005500043010196A11DB11D80934001909341017B
:10056000A0934201B0934301BF91AF919F918F91AE
:100570003F912F910F900FBE0F901F9018951F92D3
:100580000F920FB60F9211242F933F934F935F93C7
:100590006F937F938F939F93AF93BF93EF93FF934B
:1005A00089E491E00E948501FF91EF91BF91AF91A5
:1005B0009F918F917F916F915F914F913F912F917B
:1005C0000F900FBE0F901F9018951F920F920FB6AD
:1005D0000F9211242F938F939F93EF93FF93E091AA
:1005E0005901F0915A018081E0915F01F091600121
:1005F00082FD12C09081809162018F5F8F73209184
:100600006301821751F0E0916201F0E0E75BFE4F79
:10061000958F8093620101C08081FF91EF919F913E
:100620008F912F910F900FBE0F901F901895789477
:1006300084B5826084BD84B5816084BD85B58260E7
:1006400085BD85B5816085BD80916E008160809398
:100650006E00109281008091810082608093810001
:100660008091810081608093810080918000816011
:10067000809380008091B10084608093B10080916C
:10068000B00081608093B00080917A008460809394
:100690007A0080917A00826080937A0080917A005B
:1006A000816080937A0080917A00806880937A00DC
:1006B0001092C100E0915901F0915A0182E08083CB
:1006C000E0915501F09156011082E0915701F091AF
:1006D00058018FEC808310926101E0915D01F091EF
:1006E0005E0186E08083E0915B01F0915C01808196
:1006F00080618083E0915B01F0915C018081886082
:100700008083E0915B01F0915C018081806880834F
:10071000E0915B01F0915C0180818F7D808360E0DE
:100720008EE00E94D40061E089E00E94D40010E4D1
:1007300088248A9483E0982EA12CB12CCDEAD0E0B5
:1007400010937C0080917A00806480937A0080917D
:100750007A0086FDFCCFA091780080917900B0E00E
:10076000B82BB0933F01A0933E012EEF30E00E94E2
:10077000E404A50194010E949404F22EE32EC22EFB
:10078000D32ED0923D01C0923C0161E089E00E94ED
:10079000D400C114D10411F460E005C08FEFC81675
:1007A000D10429F461E089E00E94870047C0FE017E
:1007B0008491833009F148F48130C9F08230C1F569
:1007C00084B5806284BDF8BC39C0873009F18830B7
:1007D00039F1843069F580918000806280938000D7
:1007E0008F2D9E2D90938B0080938A0027C084B517
:1007F000806884BDF7BC22C08091800080688093AF
:1008000080008F2D9E2D909389008093880016C0C4
:100810008091B00080688093B000F092B3000EC069
:100820008091B00080628093B000F092B40006C066
:10083000F0E8CF16D1040CF0B5CFAECF82E191E055
:100840000E942002C0903E01D0903F010D2C000C70
:10085000EE08FF08F7FE0EC06DE289E491E00E9409
:10086000A70166277727CB016C197D098E099F099F
:100870004AE003C04AE0C701B6010E94320281E2A9
:1008800091E00E942002C0903C01D0903D010D2CCF
:10089000000CEE08FF08F7FE0EC06DE289E491E05F
:1008A0000E94A70166277727CB016C197D098E0965
:1008B0009F094AE003C04AE0C701B6010E94320224
:1008C00088E391E00E9420020E94160239CFE9E4F9
:1008D000F1E01382128288EE93E0A0E0B0E084831E
:1008E0009583A683B78384E091E09183808385EC30
:1008F00090E09587848784EC90E09787868780ECEA
:1009000090E0918B808B81EC90E0938B828B82ECDA
:1009100090E0958B848B86EC90E0978B868B118E84
:10092000128E138E148E0895052E97FB1EF40094DC
:100930000E94AB0457FD07D00E94B30407FC03D00C
:100940004EF40C94AB0450954095309521953F4F53
:100950004F4F5F4F089590958095709561957F4FAB
:100960008F4F9F4F0895A1E21A2EAA1BBB1BFD01BA
:100970000DC0AA1FBB1FEE1FFF1FA217B307E4077E
:10098000F50720F0A21BB30BE40BF50B661F771FD6
:10099000881F991F1A9469F76095709580959095B6
:1009A0009B01AC01BD01CF010895A29FB001B39F8F
:1009B000C001A39F700D811D1124911DB29F700D68
:1009C000811D1124911D08950E94D504B7FF08953B
:1009D000821B930B0895EE0FFF1F0590F491E02DFD
:1009E000099481E090E0F8940C94F604F894FFCF19
:1009F00000000000A70110013E01F4016F014D014C
:100A00006101506F74656E636A6F6D6574723A2030
:100A100000202D2D2D2D2D2D2D2D2D204D61706F74
:0C0A200077616E69653A20000D0A000045
:107E0000112484B714BE81FFF0D085E080938100F7
:107E100082E08093C00088E18093C10086E0809377
:107E2000C20080E18093C4008EE0C9D0259A86E02C
:107E300020E33CEF91E0309385002093840096BBD3
:107E4000B09BFECF1D9AA8958150A9F7CC24DD24C4
:107E500088248394B5E0AB2EA1E19A2EF3E0BF2EE7
:107E6000A2D0813461F49FD0082FAFD0023811F036
:107E7000013811F484E001C083E08DD089C08234E0
:107E800011F484E103C0853419F485E0A6D080C0E4
:107E9000853579F488D0E82EFF2485D0082F10E0AE
:107EA000102F00270E291F29000F111F8ED06801E7
:107EB0006FC0863521F484E090D080E0DECF843638
:107EC00009F040C070D06FD0082F6DD080E0C81688
:107ED00080E7D80618F4F601B7BEE895C0E0D1E017
:107EE00062D089930C17E1F7F0E0CF16F0E7DF06D8
:107EF00018F0F601B7BEE89568D007B600FCFDCFD4
:107F0000A601A0E0B1E02C9130E011968C91119780
:107F100090E0982F8827822B932B1296FA010C0160
:107F200087BEE89511244E5F5F4FF1E0A038BF0790
:107F300051F7F601A7BEE89507B600FCFDCF97BE46
:107F4000E89526C08437B1F42ED02DD0F82E2BD052
:107F50003CD0F601EF2C8F010F5F1F4F84911BD097
:107F6000EA94F801C1F70894C11CD11CFA94CF0C13
:107F7000D11C0EC0853739F428D08EE10CD085E9AC
:107F80000AD08FE07ACF813511F488E018D01DD067
:107F900080E101D065CF982F8091C00085FFFCCF94
:107FA0009093C60008958091C00087FFFCCF809118
:107FB000C00084FD01C0A8958091C6000895E0E648
:107FC000F0E098E1908380830895EDDF803219F02E
:107FD00088E0F5DFFFCF84E1DECF1F93182FE3DFCA
:107FE0001150E9F7F2DF1F91089580E0E8DFEE27F6
:047FF000FF270994CA
:027FFE00040479
:0400000300007E007B
:00000001FF
