:100000000C9447050C946F050C946F050C946F05C8
:100010000C946F050C946F050C946F050C946F0590
:100020000C946F050C946F050C946F050C946F0580
:100030000C946F050C946F050C946F050C946F0570
:100040000C945B080C946F050C946F050C946F0571
:100050000C946F050C946F050C946F050C946F0550
:100060000C940F0E0C946F05DB40A4A62EAFDA02A1
:1000700081DA1281DA02818F2000A1C8D300408D7D
:10008000AED580A800006000000000000000000065
:100090000000000000E00000000000000000000080
:1000A00000000001E000000000000000000000006F
:1000B000000001F00000000000000000000000004F
:1000C0000003F0000000000000000000000000003D
:1000D00007F0000000000000000000000000000722
:1000E000F8000000000000000000000000000FF811
:1000F00000000003C0007E000001E0007F0FF80058
:10010000000003C000FE000001E000FFEFF8000067
:100110000003C000FE000001E000FFFFF800000047
:1001200003C000F00000000F007FFE7FC00000034E
:10013000C000F00000000F003FFE7FF83FF1FBCF52
:10014000FCFEF3BC3DEFE01FFE7FFF7FFBFFDFFE09
:10015000FEFFBC3DEFE01FC6FFFF7FFBFFDFFEFEA3
:10016000FFBC3DEFE00FE3C7FE787BC3DE1EF0FF70
:10017000BC3DEF0007FF87FC787BC3DE1EF0F83C38
:100180003DEF0001FFFFF0007BC3C01EF0F03C3DDF
:10019000EF0001F37FE03FFBC3CFFEF0F03C3DEF0B
:1001A0000003E33F807FFBC3DFFEF0F03C3DEF0048
:1001B00007E73C00787BC3DE1EF0F03C3DEF000714
:1001C000FFBE00787BC3DE1EF0F03C3DEF0007FF72
:1001D000FE00787BC3DE1EF0F03C3DEF000FFFFE1B
:1001E000007FFBFFDFFEF0F03FFDEFE00FFFFF00C1
:1001F0007FFBFFDFFEF0F03FFDEFE00FF9FF003E79
:1002000079F9CF9EF0F01F3DE7E01FF1FF000000FD
:100210000000000000000000001F80FF007FFFFFC3
:10022000FFFFFFFFFFFFFFE01C007F007FFFFFFFDE
:10023000FEB46D888D18E000001F007FFFFFFFFEF9
:1002400095AD7DB577E000000F007FFFFFFFFEA5B5
:10025000AD9D8D19E0000006007FFFFFFFFEB5ADEC
:10026000EDB57EE00000000000018000000000000D
:1002700000000000038000000000000000000007F4
:10028000C000000000000000000007C000000000E7
:1002900000000000000FC00000000000000000008F
:1002A0001FE00000000000000000001FE000000050
:1002B0000000000000003FE000000000000000001F
:1002C000003FF00000000000000000007FF0000090
:1002D00000000000001FF87FF00000000000000098
:1002E0003FFE7FF0000000000000003FFF7FF000B5
:1002F0000000000000001FFFFBE000000000000005
:10030000000FFFF9FFC00000000000000FFFF9FF21
:10031000F800000000000007FFF1FFFF00000000F0
:10032000000003FC73FFFF80000000000001FE3F9F
:10033000FFFF80000000000000FF1E0FFF00000014
:10034000000000007FFE1FFC000000000000003FD6
:10035000FFFFF8000000000000000FDFFFE00000DA
:1003600000000000001F19FFC00000000000000096
:100370003F3CFF00000000000000007E7CF8000011
:100380000000000000007FFE7C0000000000000074
:1003900000FFFFFC0000000000000000FFFFFE0067
:1003A00000000000000000FFFFFE00000000000051
:1003B0000001FFEFFE0000000000000001FFCFFE83
:1003C0000000000000000003FF07FE000000000026
:1003D000000003FC07FE0000000000000003F00323
:1003E000FE00000000000000018000FE0000000090
:1003F0000000000000007E0000000000000000007F
:10040000003E000000000000000000000C000000A2
:10041000000000078000FC000003C000000007800F
:1004200001FC000003C0000000078001FC00000385
:10043000C0000000078001E00000001E000000076F
:100440008001E00000001E007FE3F79FF9FDE778E0
:100450007BDFC0FFF7FFBFFDFDFF787BDFC0FFF74D
:10046000FFBFFDFDFF787BDFC0F0F787BC3DE1FFFC
:10047000787BDE00F0F787BC3DE1F0787BDE0000A2
:10048000F787803DE1E0787BDE007FF7879FFDE125
:10049000E0787BDE00FFF787BFFDE1E0787BDE00E0
:1004A000F0F787BC3DE1E0787BDE00F0F787BC3DEC
:1004B000E1E0787BDE00F0F787BC3DE1E0787BDEB1
:1004C00000FFF7FFBFFDE1E07FFBDFC0FFF7FFBFED
:1004D000FDE1E07FFBDFC07CF3F39F3DE1E03E7B8D
:1004E000CFC00000000000000000000000FFFFFF80
:1004F000FFFFFFFFFFFFFFC0FFFFFFFFFD68DB11F6
:100500001A31C0FFFFFFFFFD2B5AFB6AEFC0FFFF50
:10051000FFFFFD4B5B3B1A33C0FFFFFFFFFD6B5B33
:10052000DB6AFDC02200FF2100000000080002017C
:1005300000000304070000000000000000000103A9
:10054000070F1F3F7F0080C0E0F0F8FCFE000000B6
:1005500000003E5B4F5B3E3E6B4F6B3E1C3E7C3E65
:100560001C183C7E3C181C577D571C1C5E7F5E1C73
:1005700000183C1800FFE7C3E7FF0018241800FF2D
:10058000E7DBE7FF30483A060E2629792926407F27
:10059000050507407F05253F5A3CE73C5A7F3E1C36
:1005A0001C08081C1C3E7F14227F22145F5F005F22
:1005B0005F06097F017F006689956A606060606000
:1005C00094A2FFA29408047E040810207E20100844
:1005D000082A1C08081C2A08081E101010100C1EDF
:1005E0000C1E0C30383E3830060E3E0E0600000061
:1005F000000000005F00000007000700147F147F68
:1006000014242A7F2A122313086462364956205084
:100610000008070300001C2241000041221C002AA0
:100620001C7F1C2A08083E0808008070300008085B
:10063000080808000060600020100804023E5149CC
:10064000453E00427F400072494949462141494D9B
:10065000331814127F1027454545393C4A49493122
:1006600041211109073649494936464949291E00A1
:10067000001400000040340000000814224114144B
:10068000141414004122140802015909063E415D68
:10069000594E7C1211127C7F494949363E414141F5
:1006A000227F4141413E7F494949417F0909090172
:1006B0003E414151737F0808087F00417F4100207F
:1006C00040413F017F081422417F404040407F026B
:1006D0001C027F7F0408107F3E4141413E7F090993
:1006E00009063E4151215E7F09192946264949499B
:1006F0003203017F01033F4040403F1F2040201F45
:100700003F4038403F6314081463030478040361D6
:1007100059494D43007F41414102040810200041E6
:1007200041417F0402010204404040404000030771
:10073000080020545478407F2844443838444444C6
:1007400028384444287F385454541800087E09023D
:1007500018A4A49C787F0804047800447D400020FD
:1007600040403D007F1028440000417F40007C0451
:100770007804787C080404783844444438FC18240D
:10078000241818242418FC7C0804040848545454E1
:100790002404043F44243C4040207C1C2040201C76
:1007A0003C4030403C44281028444C9090907C447D
:1007B00064544C44000836410000007700000041BA
:1007C00036080002010204023C2623263C1EA1A199
:1007D00061123A4040207A38545455592155557980
:1007E0004122545478422155547840205455794040
:1007F0000C1E5272123955555559395454545939A1
:10080000555454580000457C410002457D4200018A
:10081000457C407D1211127DF0282528F07C54552E
:1008200045002054547C547C0A097F493249494987
:10083000323A4444443A324A4848303A4141217AB3
:100840003A42402078009DA0A07D3D4242423D3D7D
:100850004040403D3C24FF2424487E4943662B2FE2
:10086000FC2F2BFF0929F620C0887E090320545451
:1008700079410000447D413048484A3238404022A6
:100880007A007A0A0A727D0D19317D2629292F28CE
:10089000262929292630484D40203808080808080C
:1008A000080808382F10C8ACBA2F102834FA0000F6
:1008B0007B000008142A142222142A14085500551B
:1008C0000055AA55AA55AAFF55FF55FF000000FF85
:1008D00000101010FF00141414FF001010FF00FF90
:1008E0001010F010F0141414FC001414F700FF00A2
:1008F00000FF00FF1414F404FC141417101F101050
:100900001F101F1414141F00101010F0000000001E
:100910001F101010101F10101010F010000000FF1A
:10092000101010101010101010FF10000000FF1415
:100930000000FF00FF00001F10170000FC04F4146B
:10094000141710171414F404F40000FF00F7141423
:100950001414141414F700F7141414171410101F9F
:10096000101F141414F4141010F010F000001F10D5
:100970001F0000001F14000000FC140000F010F025
:100980001010FF10FF141414FF141010101F00009B
:100990000000F010FFFFFFFFFFF0F0F0F0F0FFFFAE
:1009A000FF0000000000FFFF0F0F0F0F0F3844443F
:1009B0003844FC4A4A4A347E02020606027E027E1F
:1009C0000263554941633844443C04407E201E2064
:1009D00006027E020299A5E7A5991C2A492A1C4C09
:1009E0007201724C304A4D4D303048784830BC620C
:1009F0005A463D3E494949007E0101017E2A2A2A84
:100A00002A2A44445F444440514A444040444A51A5
:100A1000400000FF0103E080FF000008086B6B0846
:100A20003612362436060F090F060000181800008B
:100A3000001010003040FF0101001F01011E0019CD
:100A40001D1712003C3C3C3C000000000000000070
:100A500000250028002B0000000000240027002AA9
:100A60000004040404040404040202020202020357
:100A70000303030303010204081020408001020461
:100A80000810200102040810200022181318112455
:100A90001FBECFEFD8E0DEBFCDBF11E0A0E0B1E0D8
:100AA000ECE9F3E302C005900D92A834B107D9F741
:100AB00022E0A8E4B1E001C01D92A735B207E1F73A
:100AC00015E0C6E4D5E004C02197FE010E948E180F
:100AD000C534D107C9F70E9456150C94C1190C945E
:100AE0000000CF92DF92EF92FF920F931F93CF936C
:100AF000DF936C017A018B01C0E0D0E0CE15DF05F9
:100B000081F0D8016D918D01D601ED91FC9101909C
:100B1000F081E02DC6010995892B11F02196EECFC9
:100B20007E01C701DF91CF911F910F91FF90EF9050
:100B3000DF90CF900895FC0177FDB9C08085918545
:100B4000681779070CF0B3C057FDB1C08285938553
:100B5000481759070CF008958689823079F484810A
:100B60009581DC01A61BB70BBD016150710986811F
:100B70009781DC01A41BB50BAD010EC0833009F0D9
:100B800084C064277527CA01862797276827792795
:100B900046815781481B590B41505109213031057D
:100BA00031F048F12230310509F44AC00895CA01F4
:100BB00057FD07969C01A3E035952795AA95E1F787
:100BC000A481B5812A9FC0012B9F900D3A9F900D63
:100BD0001124680F791F078CF0A1E02DE60FF71F95
:100BE0004770552781E090E001C0880F4A95EAF7E9
:100BF0009081892B48C0CA0157FD07969C0193E05C
:100C0000359527959A95E1F7A481B5812A9FC00172
:100C10002B9F900D3A9F900D1124680F791F078C20
:100C2000F0A1E02DE60FF71F4770552781E090E017
:100C300001C0880F4A95EAF780959081892323C0E7
:100C4000CA0157FD07969C0183E0359527958A9543
:100C5000E1F7A481B5812A9FC0012B9F900D3A9F97
:100C6000900D1124680F791F078CF0A1E02DE60F7D
:100C7000F71F4770552781E090E001C0880F4A9523
:100C8000EAF79081892780830895813009F086CF23
:100C90006427752746275727642775278481958100
:100CA000DC01A61BB70BBD016150710977CF089518
:100CB0000895FC016370668B84819581268137815C
:100CC000613039F0633029F091878087338722873C
:100CD0000895318720879387828708956F927F9246
:100CE0008F929F92AF92BF92CF92DF92EF92FF923C
:100CF0000F931F93CF93DF93EC014B015A016901CE
:100D00003801E881F9810284F385E02D0995E881B5
:100D1000F9810288F389E02D87019601A501B401CC
:100D2000CE010995A501460D571D41505109E88195
:100D3000F9810288F389E02D9601B401CE0109956D
:100D4000E881F9810088F189E02D9301A501B401C2
:100D5000CE010995C80CD91CB60161507109E88112
:100D6000F9810088F189E02D9301A501CE01099553
:100D7000E881F9810688F789E02DCE01DF91CF91D6
:100D80001F910F91FF90EF90DF90CF90BF90AF90A9
:100D90009F908F907F906F9009940E94B5190F9348
:100DA0001F93CF93DF93DC015696EC915697E23078
:100DB00071F0E330E9F0E13079F5FB0114960D9024
:100DC000BC91A02DA41BB50BA21BB30B18C0EC014A
:100DD000EC81FD81E61BF70BBF0161507109EE81CB
:100DE000FF81DF01A41BB50BAD01421B530B14C0E7
:100DF000DA01EC01EE81FF81E61BF70B3197F7FD7D
:100E00000DC0EC014E815F81E417F5073CF4AF01A2
:100E1000BD010E94B31302C00E941A14DF91CF914A
:100E20001F910F9108950F931F93DC015696EC913B
:100E30005697E23061F0E33009F1E13081F5149624
:100E4000ED91FC911597E41BF50B319723C0DC0164
:100E50001496ED91FC911597DF01A61BB70BBD0110
:100E6000DC011696ED91FC911797DF01A41BB50BE1
:100E7000AD0141505109621B730B11C0FA01DC0135
:100E800016964D915C911797DA01A61BB70BBD0121
:100E9000621B730BAB01BF010E941A140CC057FDFB
:100EA0000AC0DC011696ED91FC9117974E175F076B
:100EB00014F40E94B3131F910F9108958F929F9283
:100EC000AF92CF92EF92FF920F931F93CF93DF9346
:100ED000EC01262F898D9A8D009709F042C06A3067
:100EE00059F41D861C862D898E859F8538E0239FA9
:100EF000800D911D112443C06D3009F4AAC08F8963
:100F00008823C9F03C898C859D8546E0349F800DFF
:100F1000911D1124488559854817590764F41D8689
:100F20001C863D898E859F8548E0349F800D911DEC
:100F300011249F878E87EA88FB88088919894E8546
:100F40005F856C857D85AD88CC88CE010E947F1140
:100F50002C898C859D8536E0239F800D911D112461
:100F60003EC06A3079F41D861C862D89FC013696B8
:100F7000E4918E859F852E9F800D911D11249F8762
:100F80008E8767C06D3009F464C0FC0134963491DB
:100F9000631708F45EC03196E491E61708F459C06F
:100FA000462F431B342FFC0132968590949047E0E6
:100FB000349F800C911C1124F401329634913196A7
:100FC000E491332311F0E1110DC0F4013496E49162
:100FD0002C898C859D85E29F800D911D11249D8714
:100FE0008C8737C0F401359644915F89552319F1F8
:100FF0005C89E32FF0E0E40FF11D47FDFA955E9F59
:10100000B0015F9F700D11244C855D85460F571F01
:10101000688579856417750774F41D861C863D897B
:10102000FC013696E4918E859F853E9F800D911D33
:1010300011249F878E87EA88FB88088919894E8545
:101040005F856C857D85AD88CC88CE010E947F113F
:10105000BCCF81E090E0DF91CF911F910F91FF9085
:10106000EF90CF90AF909F908F9008953FB7F894F6
:101070008091560190915701A0915801B09159016A
:1010800026B5A89B05C02F3F19F00196A11DB11DE3
:101090003FBFBA2FA92F982F8827820F911DA11D1E
:1010A000B11DBC01CD0142E0660F771F881F991F5B
:1010B0004A95D1F708951F920F920FB60F921124FF
:1010C0002F933F938F939F93AF93BF938091520140
:1010D00090915301A0915401B0915501309151016B
:1010E00023E0230F2D3720F40196A11DB11D05C06B
:1010F00026E8230F0296A11DB11D20935101809374
:10110000520190935301A0935401B09355018091E3
:10111000560190915701A0915801B0915901019643
:10112000A11DB11D8093560190935701A0935801C2
:10113000B0935901BF91AF919F918F913F912F91A2
:101140000F900FBE0F901F90189508958EBD000050
:101150000DB407FEFDCF8EB508951F93CF93DF9397
:10116000FC01858D968D009729F1162FEF0121A1A5
:1011700031E03093E401209306021092E5011092D1
:101180000702DC01ED91FC910190F081E02D60E01F
:1011900009958D8D9E8DDC01ED91FC910190F08182
:1011A000E02D612F09958D8D9E8DDF91CF911F913F
:1011B0000C941D10A5A5B6A59C9183A980958923A3
:1011C0008C93838D948D892B31F0862FDF91CF9175
:1011D0001F910C94A60828E030E080E8A1A5B2A5F4
:1011E00091A9462F482319F04C91942B03C04C91A0
:1011F000909594239C93A3A5B4A54C9192A9942B6C
:101200009C93A3A5B4A54C9192A9909594239C93EB
:1012100086952150310911F7DF91CF911F910895E3
:101220008CBD9DBD08951F93CF93DF93EC01162FC6
:101230008D8D9E8D892BB1F02FA938AD49AD5AAD5A
:1012400060E074E284EF90E00E946C18DA01C9015A
:101250004097A109B109B695A79597958795809371
:10126000B8000FC08B8D9C8D892B21F08DA99EA974
:101270000E941009EFA5F8A990818CA98095892377
:101280008083111102C066EA01C067EACE010E94A4
:10129000AD088D8D9E8D892BB1F02BAD3CAD4DAD44
:1012A0005EAD60E074E284EF90E00E946C18DA01B9
:1012B000C9014097A109B109B695A795979587955A
:1012C0008093B80006C0EFA5F8A990818CA9892B5E
:1012D0008083DF91CF911F9108958F929F92AF925B
:1012E000BF92CF92DF92EF92FF920F931F93CF9313
:1012F000DF934C016B015A01E901DC01ED91FC9196
:101300006217730781F40417150724F48B2D580115
:10131000042F182F0A191B0998012F5F3F4F048CC7
:10132000F58DE02D12C04017510709F52617370734
:1013300024F48D2D6901C62FD82F9E012C193D094B
:101340002F5F3F4F068CF78DE02D8701A501B60179
:10135000C4010995DF91CF911F910F91FF90EF90FC
:10136000DF90CF90BF90AF909F908F9008950284B0
:10137000F385E02D0995D401ED91FC910488F58960
:10138000E02D9E01A501B601C4010995D401ED919E
:10139000FC910688F789E02DC401DF91CF911F9160
:1013A0000F91FF90EF90DF90CF90BF90AF909F9004
:1013B0008F900994EF92FF920F931F93DC011A967E
:1013C0000D911C911B9718962D913C911997ED91B9
:1013D000FC9100A0F1A1E02D7B0140E050E060E035
:1013E00070E009951F910F91FF90EF9008954F9233
:1013F0005F926F927F928F929F92AF92BF92CF92A5
:10140000DF92EF92FF920F931F93CF93DF936C01C4
:101410002B015A0139014801DC01ED91FC91028454
:10142000F385E02D0995E201640C751CD601ED9160
:10143000FC91C615D7055CF40088F189E02D870181
:101440009401A501BE01C60109952196EFCF06883A
:10145000F789E02DC601DF91CF911F910F91FF9089
:10146000EF90DF90CF90BF90AF909F908F907F9044
:101470006F905F904F9009948F929F92AF92BF921E
:10148000CF92DF92EF92FF920F931F93CF93DF9350
:10149000EC015B014A016901E881F9810284F3856D
:1014A000E02D099595012C0D3D1D21503109E88154
:1014B000F9810488F589E02D78018401A401B50142
:1014C000CE010995E881F9810688F789E02DCE01E2
:1014D000DF91CF911F910F91FF90EF90DF90CF9010
:1014E000BF90AF909F908F9009948F929F92AF92F0
:1014F000BF92CF92DF92EF92FF920F931F93CF9301
:10150000DF93EC015B014A0169017801E881F9810F
:101510000284F385E02D0995C80CD91C8601015081
:101520001109E881F9810488F589E02D9501A4016C
:10153000B501CE010995E881F9810688F789E02D8A
:10154000CE01DF91CF911F910F91FF90EF90DF902F
:10155000CF90BF90AF909F908F9009940895EF9295
:10156000FF920F931F93DC01ED91FC9100A0F1A17C
:10157000E02D09951F910F91FF90EF9008950F9323
:101580001F93DC01ED91FC91068CF78DE02D099500
:101590001F910F9108950F931F93DC01ED91FC9122
:1015A000048CF58DE02D09951F910F910895DC01B4
:1015B000ED91FC910084F185E02D09942F923F92EA
:1015C0004F925F926F927F928F929F92AF92BF9253
:1015D000CF92DF92EF92FF920F931F93CF93DF93FF
:1015E00000D000D000D0CDB7DEB72C017E836D8354
:1015F0006A015901C801FC82EB824801841A950AEC
:1016000097FE03C091948194910835012D813E810C
:10161000621A730A77FE03C07194619471086814AA
:1016200079045CF43A2D2B2D5C01832F922F3D81A0
:101630002E81DE82CD82C32ED22EAD81BE81AA162E
:10164000BB065CF43C2D2D2D6C01832F922F3D8128
:101650002E81BE82AD82A32EB22E85012D813E81C8
:10166000021B130B1C012C183D0837FE03C03194DC
:1016700021943108780117FF03C03FEFE31AF30A02
:10168000F594E794C816D9062CF08FEF9FEF9A8354
:10169000898304C0A1E0B0E0BA83A9832D813E8193
:1016A000A216B30624F1D201ED91FC910484F585D4
:1016B000E02D2B813C816814790424F44D815E81F6
:1016C000B60103C0A6016D817E81C2010995E218B1
:1016D000F308F7FE06C029813A81C20ED31EE00E40
:1016E000F11E8D819E8101969E838D83D7CF269694
:1016F0000FB6F894DEBF0FBECDBFDF91CF911F9123
:101700000F91FF90EF90DF90CF90BF90AF909F90A0
:101710008F907F906F905F904F903F902F900895A3
:1017200085ED8093BC008091BC0084FDFCCF1092BD
:10173000E301089540919A01262F30E0240F311DD6
:1017400021323105DCF42091E3012430C9F4FC019D
:1017500080E090E0861758F430919A012191DC01E5
:10176000A658BE4FA30FB11D2C930196F3CF8091C5
:101770009A01680F60939A0180E0089581E00895CE
:1017800082E008950895CF93DF93AC01E0914E017C
:10179000F0914F013097F1F090914D0180914C0103
:1017A0009817C0F090E0292F30E02617370754F43F
:1017B000D901A65ABE4FEA01C20FD31F28812C932C
:1017C0009F5FF1CF10924D0160934C01CB01DF91EF
:1017D000CF910994DF91CF910895E0914D018091CF
:1017E0004C01E81730F4F0E0E65AFE4F808190E0BB
:1017F00008958FEF9FEF089590914D0180914C01D6
:10180000981750F4E92FF0E0E65AFE4F208130E0BF
:101810009F5F90934D0102C02FEF3FEFC9010895E4
:1018200080914C0190E020914D01821B9109089517
:10183000CF92DF92EF92FF920F931F93CF93DF939C
:101840007C01CB018A012091E401222389F0EB0184
:101850006B01C40ED51ECC15DD0569F06991D70169
:10186000ED91FC910190F081E02DC7010995F3CF36
:10187000642F0E949A0BC801DF91CF911F910F91A5
:10188000FF90EF90DF90CF900895CF93DF931F925A
:10189000CDB7DEB769832091E4012223D1F02091F6
:1018A0000702203240F021E030E0FC013383228344
:1018B00080E090E015C08091E501E82FF0E0EA516A
:1018C000FE4F998190838F5F8093E501809307029B
:1018D00005C061E0CE0101960E949A0B81E090E084
:1018E0000F90DF91CF910895089580E090E00895E2
:1018F000CF92DF92EF92FF920F931F93CF93DF93DC
:101900000E945B0F81E0809328028093290287E385
:1019100090E090932102809320028AE090E09093DF
:1019200023028093220280914C0190E020914D018E
:10193000821B9109029754F088E092E00E94FC0B10
:10194000682F84E192E00E945E07EDCF88E092E08C
:101950000E94FC0B6C0182E0809328028093290294
:1019600082E390E090932102809320028EE190E048
:1019700090932302809322020D2C000CEE08FF08A6
:10198000F7FE0EC06DE284E192E00E945E076627DA
:101990007727CB016C197D098E099F094AE003C0A6
:1019A0004AE0C701B6010E942E1142E050E064E413
:1019B00071E084E192E00E94710580913102909182
:1019C0003202892BD1F020914B0230914C02409190
:1019D0004D0250914E0260E074E284EF90E00E946C
:1019E0006C18DA01C9014097A109B109B695A7950C
:1019F000979587958093B80016C080912F0290919B
:101A00003002892B31F08091490290914A020E9464
:101A10001009E0914302F0914402908180914802C4
:101A200080958923808365E084E295E00E947910A7
:101A300060911802615084E192E00E94AD0820910B
:101A40001A0230911B02C901079697FD079633E0F1
:101A5000959587953A95E1F72091180230911902F2
:101A6000829F7001839FF00C929FF00C1124C09113
:101A70003302D09134028091310290913202EC0E07
:101A8000FD1E009709F448C02091350231E03093E3
:101A9000E401209306021092E50110920702DC0196
:101AA000ED91FC910190F081E02D60E4099511E049
:101AB00001E08091310290913202EC16FD0649F16D
:101AC0001032C8F00E941D10809135020093E4018D
:101AD000809306021092E501109207028091310274
:101AE00090913202DC01ED91FC910190F081E02DAA
:101AF00060E4099511E08091310290913202699180
:101B0000DC01ED91FC910190F081E02D09951F5FC2
:101B1000D0CF0E941D1041C0E0914102F0914202DD
:101B2000908180914702892B8083CE15DF05A9F132
:101B3000899120912F0230913002232B19F00E94BD
:101B4000A608F3CF28E030E040E8E0913D02F091B4
:101B50003E0290914502582F542319F05081952B45
:101B600003C05081909595239083E0913F02F091BE
:101B70004002508190914602952B9083E0913F0264
:101B8000F091400250819091460290959523908368
:101B9000469521503109C9F6C8CF80913102909104
:101BA0003202892BD1F020914F02309150024091A6
:101BB00051025091520260E074E284EF90E00E9482
:101BC0006C18DA01C9014097A109B109B695A7952A
:101BD000979587958093B80019C0E0914302F091E2
:101BE0004402908180914802892B808380912F024A
:101BF00090913002892B51F0DF91CF911F910F917D
:101C0000FF90EF90DF90CF900C94A508DF91CF91DB
:101C10001F910F91FF90EF90DF90CF9008951F924A
:101C20000F920FB60F9211242F933F934F935F9310
:101C30006F937F938F939F93AF93BF93EF93FF9394
:101C40008091B900887F803609F49CC068F588329D
:101C500009F45BC090F4803109F454C038F488234F
:101C600009F4F6C0883009F44DC0F6C0883109F493
:101C70004CC0803209F45DC0EFC0803409F468C004
:101C800048F4803309F455C0883309F0E5C08093E7
:101C9000E101D8C0803509F44FC0883509F45DC032
:101CA000883409F0D9C0D6C0883909F4C7C0A8F46F
:101CB000883709F467C038F4883609F463C0803780
:101CC00009F460C0C9C0883809F4B8C0803909F483
:101CD0005FC0803809F0C0C05BC0803B09F486C09B
:101CE00038F4803A09F466C0883A09F47FC0B4C079
:101CF000803C09F4A7C0883C09F4A4C0883B09F4DF
:101D00008AC0AAC08091BE0110C09091E00180916C
:101D1000DF01981770F5E091E00181E08E0F80936C
:101D2000E001F0E0E154FE4F80818093BB0085EC40
:101D300086C08093E1018EC0E091E00181E08E0FCA
:101D40008093E0018091BB00F0E0E154FE4F80837E
:101D50009091E0018091DF016EC0E091E00181E0AF
:101D60008E0F8093E0018091BB00F0E0E154FE4FC4
:101D700080838091E20181116DC081E08093BD017B
:101D800084EA61C083E08093E3011092BC01CFCF6D
:101D90008091BC01803208F051C0E091BC0181E02B
:101DA0008E0F8093BC018091BB00F0E0E456FE4FA3
:101DB0008083BDCF85EC8093BC001092E3018091BD
:101DC000BC01803230F4E091BC01F0E0E456FE4FFB
:101DD00010826091BC0170E0E0914801F0914901EE
:101DE0008CE991E009951092BC0136C084E08093A3
:101DF000E30110929B0110929A01E0914A01F09147
:101E00004B01099580919A01811105C081E0809371
:101E10009A0110927A01E0919B0181E08E0F8093EC
:101E20009B01F0E0E658FE4F80818093BB009091CB
:101E30009B0180919A01981708F479CF85E88093E7
:101E4000BC000AC085EC8093BC001092E30104C082
:101E50001092E1010E94900BFF91EF91BF91AF9121
:101E60009F918F917F916F915F914F913F912F91B2
:101E70000F900FBE0F901F9018951092E30181E014
:101E80008093E2011092BD0161E082E10E94CF14D3
:101E900061E083E10E94CF14E9EBF0E080818E7F66
:101EA000808380818D7F808388E48093B80085E47F
:101EB0008093BC00089520911A0230911B02C90141
:101EC000079697FD079623E0959587952A95E1F764
:101ED0002091180230911902829FA001839F500D1A
:101EE000929F500D112460E070E080913302909138
:101EF00034020C94BA193F924F925F926F927F9284
:101F00008F929F92AF92BF92CF92DF92EF92FF9209
:101F10000F931F93CF93DF9300D000D000D0CDB7A5
:101F2000DEB72C013B014A015901C901079697FD13
:101F300007969C0193E0359527959A95E1F73C83A8
:101F40002B83C12CD12CE12CF12C312CC3018E0D13
:101F50009F1D9A838983E016F106C4F51E821D82B7
:101F60002D813E812A153B054CF5C90187709927C3
:101F7000892B11F0330C0EC0ED81FE81F7FD3796F1
:101F800083E0F595E7958A95E1F7EC0DFD1DE80DE9
:101F9000F91D349037FE0CC021E030E049815A81B0
:101FA0006D817E81640D751D84E192E00E94D70AE7
:101FB0008D819E8101969E838D83D2CF9FEFE91AFA
:101FC000F90A2B813C81C20ED31EC0CF26960FB6D4
:101FD000F894DEBF0FBECDBFDF91CF911F910F915F
:101FE000FF90EF90DF90CF90BF90AF909F908F9039
:101FF0007F906F905F904F903F90089590E0FC012C
:10200000EB58F54F2491FC01EF59F54F849188234B
:1020100099F090E0880F991FFC01E95AF54FA591BE
:10202000B491FC01E35BF54F859194918FB7F894DF
:10203000EC91E22BEC938FBF08953091070231327F
:1020400008F04BC08091E3018111FCCF9091060212
:1020500022E02093E30121E02093E2012FEF20937F
:10206000E1011092E0013093DF01E6EEF1E0AFEB29
:10207000B1E020E0321721F041914D932F5FFACF6C
:102080001092BE012091BE01990F922B9093BE0138
:102090009091BD01913061F41092BD019091BE010B
:1020A0009093BB009091BC0093FDF8CF95EC01C0DC
:1020B00095EE9093BC009091E3019230E1F3909102
:1020C000E1019F3F79F08091E101803241F0809100
:1020D000E101803331F084E005C081E003C082E09B
:1020E00001C083E01092E501109207021092E40112
:1020F0000895DF92EF92FF920F931F93CF93DF9398
:10210000D82ED92FC62F809131029091320200979C
:1021100009F454C02091350231E03093E40120935A
:1021200006021092E50110920702DC01ED91FC918C
:102130000190F081E02D60E00995ED2CFD2E11E07D
:10214000D1E08091310290913202CC2371F11032B2
:10215000C8F00E941D1080913502D093E401809355
:1021600006021092E50110920702809131029091CF
:102170003202DC01ED91FC910190F081E02D60E0F4
:10218000099511E08091310290913202F70164913A
:10219000DC01ED91FC910190F081E02D09951F5F2C
:1021A000C150BFEFEB1AFB0ACCCFDF91CF911F914B
:1021B0000F91FF90EF90DF900C941D10E091410281
:1021C000F09142029081809147028095892380831B
:1021D0000D2D1D2FCC2309F439C0F80184912091D5
:1021E0002F0230913002232B31F00E94A608C150FB
:1021F0000F5F1F4FEFCF28E030E040E8E0913D0255
:10220000F0913E0290914502582F542319F05081CD
:10221000952B03C05081909595239083E0913F02C8
:10222000F0914002508190914602952B9083E0916D
:102230003F02F09140025081909146029095952383
:102240009083469521503109C9F6D1CFDF91CF91C6
:102250001F910F91FF90EF90DF9008958F929F92C2
:10226000AF92BF920F931F93CF93DF93CDB7DEB79B
:10227000A1970FB6F894DEBF0FBECDBF19A24230B2
:1022800008F44AE08E010F5D1F4F842E912CA12C83
:10229000B12CA50194010E946C18E62FB901CA0166
:1022A00001501109EA3014F4E05D01C0E95CD80185
:1022B000EC93232B242B252B61F70115110571F0CD
:1022C000F80101900020E9F73197AF01401B510B55
:1022D000B80184E192E00E94710502C080E090E0C4
:1022E000A1960FB6F894DEBF0FBECDBFDF91CF91A0
:1022F0001F910F91BF90AF909F908F9008952F9254
:102300003F924F925F926F927F928F929F92AF9285
:10231000BF92CF92DF92EF92FF920F931F93CF93D2
:10232000DF93CDB7DEB76B970FB6F894DEBF0FBE65
:10233000CDBF9B8F8A8F1B014A01D22E1987088738
:102340003701A982DC0159962D913C915A972115AC
:10235000310509F0FFC018968D919C911997681767
:1023600079070CF0E7C11A968D919C911B9748173D
:1023700059070CF0DFC1EC2DF0E0FB83EA839B01F1
:1023800046E0C49E200D311D11243D872C87121676
:1023900013060CF0CFC16A2D70E07B876A8783E05B
:1023A000660F771F8A95E1F77F876E87CB01880DCF
:1023B000991D181619060CF0BDC158968C91811103
:1023C00004C08FEA8D1508F4D394AA8DBB8DED91CE
:1023D000FC9111970284F385E02DCD010995B5E0BC
:1023E000DB9EC0011124EC2DF0E0F98BE88B91010C
:1023F0002B5F3F4F3B8B2A8B3D822C822101AC010E
:10240000421953095D8B4C8B7981672F70E07F8B6C
:102410006E8BC4010896998F888FEC89FD89E40D35
:10242000F51DE35BFA4FD49054019F828E82D0FE5B
:1024300016C0AA8DBB8DED91FC91B1E0CB1209C005
:102440002981213031F40484F585E02D28853985F2
:1024500019C00684F785E02DE884F9841DC04885FD
:1024600059854615570519F1AA8DBB8DED91FC9143
:10247000B1E0CB120DC02981213051F40484F585DF
:10248000E02D9301A501B2018A8D9B8D09950FC0A6
:102490000684F785E02D73010A851B852A813B811F
:1024A0004E815F816C817D818A8D9B8D0995D6944B
:1024B0003FEFA31AB30A4E815F816E897F89460F71
:1024C000571F5F834E83888D998DA816B90609F032
:1024D000AECF9FEF491A590AAC81BD81E889F989CD
:1024E000AE0FBF1FBD83AC832A893B8942165306BA
:1024F00009F093CF488559854615570509F4F8C06A
:10250000AA8DBB8DED91FC91B1E0CB1211C0298158
:10251000213071F4B1016B5F7F4F0088F189E02DAC
:10252000830128E030E0A4018A8D9B8D0995E0C0ED
:102530006C857D854A815B81641B750B0684F785FC
:10254000E02D73010E851F859A01A4018A8D9B8D54
:102550000995CEC0F9013496E491DE1AF90132965C
:1025600085919491B7E0DB9E800D911D1124F901B6
:10257000259134913B8B2A8BFC0125913491590193
:10258000FC0132965490319634913C873296749087
:102590003196149141E04C1518F05981523068F091
:1025A000672D072C000C770B7D836C83812F012E08
:1025B000000C990B9B838A8304C01B821A821D82A4
:1025C0001C82AA8DBB8DED91FC9111970284F3853D
:1025D000E02DCD010995412CD12C612CF981EF2FF3
:1025E000F0E0FF83EE832C2D30E03B872A87A401A7
:1025F000410F511D17FD5A955F8B4E8BB101670D31
:10260000711D77FC7A95798F688F7C85671608F045
:102610006FC0262D30E04A815B81420F531FAE818F
:10262000BF81A49FC001A59F900DB49F900D112460
:10263000F401E80FF91FF98BE88B842D712C4E897A
:102640005F89420F531F5D8B4C8B751408F04DC092
:1026500051E0580F5E87877041F4C5010196EA8901
:10266000FB89EA0DFB1DD4905C01D7FE3AC061E006
:10267000C61216C07981713099F4AA8DBB8DED9187
:10268000FC9111970484F585E02D288539854C89C6
:102690005D89688D798D670D711DCD01099521C00A
:1026A0008C819D81870D911DEA85FB858E9FB001F0
:1026B0008F9F700D9E9F700D1124620D731DAA8D4A
:1026C000BB8DED91FC9111970684F785E02DE88490
:1026D000F9840E811F812A853B8548895989CD015E
:1026E0000995DD0C73948E85B0CF450C63948DCF26
:1026F000AA8DBB8DED91FC9111970688F789E02D8D
:10270000CD016B960FB6F894DEBF0FBECDBFDF9143
:10271000CF911F910F91FF90EF90DF90CF90BF90DE
:10272000AF909F908F907F906F905F904F903F9071
:102730002F9009946B960FB6F894DEBF0FBECDBFF5
:10274000DF91CF911F910F91FF90EF90DF90CF908D
:10275000BF90AF909F908F907F906F905F904F90C1
:102760003F902F9008950F931F93CF93DF9377FFA0
:1027700004C0260F371F60E070E0DC011496CD9195
:10278000DC911597FB01E20FF31FCE17DF071CF456
:102790009E01261B370B121613060CF046C0FA01D9
:1027A00057FD3796DF01E3E0B595A795EA95E1F788
:1027B000AC9FF001AD9FF00DBC9FF00D11246E0F8A
:1027C0007F1FDC015F96ED91FC919097E60FF71F5C
:1027D0004770552781E090E001C0880F4A95EAF7DD
:1027E000482F0130110539F078F002301105E9F475
:1027F0002E0F3F1F13C02E0F3F1FE217F307A9F044
:102800008081842B8193F9CF80952E0F3F1FE21793
:10281000F30759F0908198239193F9CFE217F307CA
:1028200021F0808184278193F9CFDF91CF911F918F
:102830000F910895EF92FF920F931F93CF93DF9321
:10284000EC0177FDA5C0EC80FD806E157F050CF0D6
:102850009FC057FF04C0240F351F40E050E08E8119
:102860009F81FA01E20FF31F8E179F071CF49C0152
:10287000241B350B121613060CF08AC0922F842FDE
:102880008695869586958E9DD0018F9DB00D1124DD
:102890006A0F7B1FAF8DB8A1A60FB71F4770B1F1AC
:1028A00088E0841B482F682F70E0FB01EB5BFA4F38
:1028B000E491281798F4621B71092FEF30E002C0F1
:1028C000359527956A95E2F7E2230130110549F025
:1028D00078F00230110509F05BC00EC0013011051F
:1028E00019F48C91E82B0AC00130110508F049C099
:1028F000E0958C91E82302C08C91E827EC93941723
:1029000008F446C02C813D81A20FB31FE92FE41BC0
:10291000E830F8F00230110561F48E2F9C9190950B
:102920009C932C813D81A20FB31F88508830B0F753
:102930000FC081E00115110509F480E081959E2FFB
:102940008C932C813D81A20FB31F98509830C0F713
:10295000E770EE23E9F0F0E0E35CFA4FE491013038
:10296000110539F048F00230110591F48C91E827F7
:1029700006C08C91E82B03C0E0958C91E823EC9382
:1029800007C00230110509F4B7CFAE0DBF1DBECF91
:10299000DF91CF911F910F91FF90EF90089590E0FC
:1029A000FC01E75DFA4F2491FC01EB58F54F34919F
:1029B000FC01EF59F54FE491EE2309F43CC02223CA
:1029C00039F1233091F038F42130A9F0223001F5AB
:1029D00084B58F7D12C0273091F02830A1F02430CB
:1029E000B9F4809180008F7D03C0809180008F7743
:1029F000809380000DC084B58F7784BD09C080911D
:102A0000B0008F7703C08091B0008F7D8093B000BD
:102A1000F0E0EE0FFF1FE35BF54FA591B4919FB778
:102A2000F894611104C08C913095382302C0EC9168
:102A30003E2B3C939FBF08958F929F92AF92BF927F
:102A4000CF92DF92EF92FF926B017C010E943608D9
:102A50004B015C01C114D104E104F104F1F00E94C6
:102A60003608DC01CB0188199909AA09BB09883EFF
:102A70009340A105B10570F321E0C21AD108E10825
:102A8000F10888EE880E83E0981EA11CB11CC114C9
:102A9000D104E104F10419F7DDCFFF90EF90DF904E
:102AA000CF90BF90AF909F908F900895789484B509
:102AB000826084BD84B5816084BD85B5826085BD3A
:102AC00085B5816085BD80916E00816080936E00C8
:102AD00010928100809181008260809381008091BA
:102AE000810081608093810080918000816080936B
:102AF00080008091B10084608093B1008091B0002B
:102B000081608093B00080917A00846080937A0025
:102B100080917A00826080937A0080917A0081604F
:102B200080937A0080917A00806880937A00109276
:102B3000C1008091330290913402892B11F52091CC
:102B40001A0230911B02C901079697FD079613E000
:102B5000959587951A95E1F7209118023091190201
:102B6000AC01429FC001439F900D529F900D1124D4
:102B70000E9494189093340280933302892B09F4B5
:102B8000F9C00E945B0F80911A0290911B02813262
:102B900091050CF425C1BC016054710977FF02C096
:102BA0006F5F7F4F7595679580911802909119021C
:102BB0008255910997FD019600E410E022E530E08E
:102BC00044E652E0959587950E947B0F82E08093C2
:102BD00036028091310290913202892B09F41AC198
:102BE00080911A0290911B02809709F411C18DE324
:102BF0008093350210924D0110924C011092E50124
:102C0000109207020E943D0F82EC9BE090934B01D3
:102C100080934A0183EC9BE09093490180934801A3
:102C200080913C0287FD1DC00E94FE0F61E08091F3
:102C30003C020E94CF1461E070E080E090E00E94CE
:102C40001C1560E080913C020E94CF146AE070E0A5
:102C500080E090E00E941C1561E080913C020E949F
:102C6000CF148091310290913202892B09F489C1ED
:102C700020914B0230914C0240914D0250914E02F6
:102C800060E074E284EF90E00E946C18DA01C90100
:102C90004097A109B109B695A79597958795809317
:102CA000B80064E080E890E00E94791060911A0218
:102CB000615084E192E00E94AD0864E08CE790E00E
:102CC0000E94791080913602813009F471C164E16B
:102CD00084E192E00E94AD0864E088E790E00E9401
:102CE000791080911802909119028038910509F0AD
:102CF00072C180911A0290911B028032910509F0F5
:102D000059C164E084E790E00E94791069ED84E1A4
:102D100092E00E94AD0880913602813009F477C1BB
:102D200061EF84E192E00E94AD0866E088E690E001
:102D30000E9479108091310290913202892B09F41E
:102D400068C120914F023091500240915102509140
:102D5000520260E074E284EF90E00E946C18DA01A5
:102D6000C9014097A109B109B695A795979587958F
:102D70008093B80010924D0110924C011092E50121
:102D8000109207020E943D0F82EC9BE090934B0152
:102D900080934A0183EC9BE0909349018093480122
:102DA00080E18093BA0081E090E0909327028093C5
:102DB0002602909325028093240288E79CE090935A
:102DC0004F0180934E01C0E0D0E064E670E080E007
:102DD00090E00E941C152097C1F30E940000F5CFDF
:102DE000BC016052710977FF02C06F5F7F4F75951C
:102DF000679580911802909119028357910997FD68
:102E0000019600E210E023E730E044E850E0DACE3B
:102E10008CE3EECE80913A020E94FE0F80913B023D
:102E20000E94FE0F80913A02082E000C990BFC01C3
:102E3000EF59F54FE491F0E0EE0FFF1FE35BF54F24
:102E4000259134913093420220934102FC01EB58CA
:102E5000F54FE491E093470280913B02082E000C6D
:102E6000990BFC01EF59F54FE491F0E0EE0FFF1FD5
:102E7000E35BF54FA591B491B0934402A093430254
:102E8000FC01EB58F54FE491E09348028C91E82B5C
:102E9000EC9380912F0290913002892B89F1CFB76A
:102EA000F89480915001811124C0EBE6FAE08491FE
:102EB000EFE7FAE09491E82FF0E0EE0FFF1FE95AF8
:102EC000F54FA591B491EC91E92321F461E08AE0FA
:102ED0000E94CF148AE00E94FE0F8CB580618CBDE9
:102EE0008CB580648CBD8DE00E94FE0F8BE00E944B
:102EF000FE0F809150018F5F80935001CFBF90CE25
:102F0000809138020E94FE0F809139020E94FE0FCC
:102F100080913802082E000C990BFC01EF59F54FF7
:102F2000E491F0E0EE0FFF1FE35BF54F2591349144
:102F300030933E0220933D02FC01EB58F54FE491A3
:102F4000E093450280913902082E000C990BFC0198
:102F5000EF59F54FE491F0E0EE0FFF1FE35BF54F03
:102F6000A591B491B0934002A0933F02FC01EB58AD
:102F7000F54FE491E09346028C91E095E823EC93C1
:102F80004FCE80912F0290913002892B31F08091A9
:102F9000490290914A020E941009E0914302F09187
:102FA000440290818091480280958923808379CE64
:102FB00060E18ECE8034910509F0A8CE63E081E710
:102FC00090E00E94791080913602813011F06FEC10
:102FD00019C06FE917C08036910509F097CE80912E
:102FE0001A0290911B02409709F090CE63E08EE6A2
:102FF00090E00E94791080913602813011F06FEAE2
:1030000001C060E184E192E00E94AD087FCE62E2FF
:1030100088CEE0914302F091440290818091480271
:10302000892B8083A7CE8CE191E090931502809349
:1030300014028091330290913402009711F00C94A5
:103040002C190895E8E0F2E01382128288EE93E0F2
:10305000A0E0B0E084839583A683B7838AE091E003
:1030600091838083E4E1F2E01382128220E830E071
:103070003583248380E490E097838683318720879B
:1030800093878287168A158614861786168681E0AE
:10309000858B848B2FEF3FEF338B228B318B208BF3
:1030A000878B108E128E118E8CE191E0918380833C
:1030B000148E138E168E158E10A2178E8BE084A39D
:1030C0008CE085A389E086A38AE087A388E080A7B7
:1030D00080E585AB16AA0895A1E21A2EAA1BBB1B98
:1030E000FD010DC0AA1FBB1FEE1FFF1FA217B307D4
:1030F000E407F50720F0A21BB30BE40BF50B661FEA
:10310000771F881F991F1A9469F7609570958095AD
:1031100090959B01AC01BD01CF010895EE0FFF1FFB
:103120000590F491E02D09940F931F93CF93DF93B3
:103130008230910510F482E090E0E0915502F09128
:10314000560220E030E0A0E0B0E0309719F1408175
:1031500051810281138148175907C8F084179507D8
:1031600069F4109731F012960C93129713961C93F2
:1031700027C0009355021093560222C02115310535
:1031800019F04217530718F49A01BD01EF01DF014E
:10319000F801DBCF21153105F9F0281B390B24305C
:1031A000310580F48A819B816115710521F0FB0155
:1031B0009383828304C09093560280935502FE014C
:1031C000329644C0FE01E20FF31F81939193225087
:1031D0003109398328833AC0209153023091540237
:1031E000232B41F4209102013091030130935402CA
:1031F00020935302209100013091010121153105E6
:1032000041F42DB73EB74091040150910501241BB4
:10321000350BE0915302F0915402E217F307A0F44A
:103220002E1B3F0B2817390778F0AC014E5F5F4F1C
:103230002417350748F04E0F5F1F509354024093F8
:1032400053028193919302C0E0E0F0E0CF01DF915F
:10325000CF911F910F910895CF93DF93009709F4B9
:1032600081C0FC01329713821282A0915502B09165
:103270005602109781F420813181820F931F209193
:103280005302309154022817390751F5F093540234
:10329000E093530267C0ED0120E030E0CE17DF0776
:1032A00040F44A815B819E0141155105F1F0EA012C
:1032B000F5CFD383C28340815181840F951FC817F6
:1032C000D90759F488819981840F951F02969183BB
:1032D00080838A819B81938382832115310529F420
:1032E000F0935602E09355023DC0E901FB83EA8367
:1032F00049915991C40FD51FEC17FD0761F48081E6
:103300009181840F951F0296E901998388838281B8
:1033100093819B838A83E0E0F0E012968D919C91EB
:103320001397009719F0FD01DC01F7CF8D919C9167
:1033300011979D012E5F3F4F820F931F20915302E3
:10334000309154022817390769F4309729F4109204
:1033500056021092550202C013821282B093540298
:10336000A0935302DF91CF91089581E090E0F8940B
:103370000C94C119DC0101C06D9341505040E0F73D
:10338000089515E0C6E4D5E004C0FE010E948E1841
:0C3390002196C734D107C9F7F894FFCF8D
:10339C0000005702800000000000450C180C750C52
:1033AC00AE0A100CFC0BED0B000000005E07710563
:1033BC00750C740C9B05AE0AD70AAF0ACB0ABF0A70
:1033CC00DE0AAE0A59061309CF061307F709DA0904
:0833DC006D096E060D0A0000E8
:107E0000112484B714BE81FFF0D085E080938100F7
:107E100082E08093C00088E18093C10086E0809377
:107E2000C20080E18093C4008EE0C9D0259A86E02C
:107E300020E33CEF91E0309385002093840096BBD3
:107E4000B09BFECF1D9AA8958150A9F7CC24DD24C4
:107E500088248394B5E0AB2EA1E19A2EF3E0BF2EE7
:107E6000A2D0813461F49FD0082FAFD0023811F036
:107E7000013811F484E001C083E08DD089C08234E0
:107E800011F484E103C0853419F485E0A6D080C0E4
:107E9000853579F488D0E82EFF2485D0082F10E0AE
:107EA000102F00270E291F29000F111F8ED06801E7
:107EB0006FC0863521F484E090D080E0DECF843638
:107EC00009F040C070D06FD0082F6DD080E0C81688
:107ED00080E7D80618F4F601B7BEE895C0E0D1E017
:107EE00062D089930C17E1F7F0E0CF16F0E7DF06D8
:107EF00018F0F601B7BEE89568D007B600FCFDCFD4
:107F0000A601A0E0B1E02C9130E011968C91119780
:107F100090E0982F8827822B932B1296FA010C0160
:107F200087BEE89511244E5F5F4FF1E0A038BF0790
:107F300051F7F601A7BEE89507B600FCFDCF97BE46
:107F4000E89526C08437B1F42ED02DD0F82E2BD052
:107F50003CD0F601EF2C8F010F5F1F4F84911BD097
:107F6000EA94F801C1F70894C11CD11CFA94CF0C13
:107F7000D11C0EC0853739F428D08EE10CD085E9AC
:107F80000AD08FE07ACF813511F488E018D01DD067
:107F900080E101D065CF982F8091C00085FFFCCF94
:107FA0009093C60008958091C00087FFFCCF809118
:107FB000C00084FD01C0A8958091C6000895E0E648
:107FC000F0E098E1908380830895EDDF803219F02E
:107FD00088E0F5DFFFCF84E1DECF1F93182FE3DFCA
:107FE0001150E9F7F2DF1F91089580E0E8DFEE27F6
:047FF000FF270994CA
:027FFE00040479
:0400000300007E007B
:00000001FF
