:100000000C9452050C947A050C947A050C947A059C
:100010000C947A050C947A050C947A050C947A0564
:100020000C947A050C947A050C947A050C947A0554
:100030000C947A050C947A050C947A050C947A0544
:100040000C94700E0C947A050C94290C0C94030CEF
:100050000C947A050C947A050C947A050C947A0524
:100060000C94C90C0C947A05DB40A4A62EAFDA02DE
:1000700081DA1281DA02818F2000A1C8D300408D7D
:10008000AED580A800006000000000000000000065
:100090000000000000E00000000000000000000080
:1000A00000000001E000000000000000000000006F
:1000B000000001F00000000000000000000000004F
:1000C0000003F0000000000000000000000000003D
:1000D00007F0000000000000000000000000000722
:1000E000F8000000000000000000000000000FF811
:1000F00000000003C0007E000001E0007F0FF80058
:10010000000003C000FE000001E000FFEFF8000067
:100110000003C000FE000001E000FFFFF800000047
:1001200003C000F00000000F007FFE7FC00000034E
:10013000C000F00000000F003FFE7FF83FF1FBCF52
:10014000FCFEF3BC3DEFE01FFE7FFF7FFBFFDFFE09
:10015000FEFFBC3DEFE01FC6FFFF7FFBFFDFFEFEA3
:10016000FFBC3DEFE00FE3C7FE787BC3DE1EF0FF70
:10017000BC3DEF0007FF87FC787BC3DE1EF0F83C38
:100180003DEF0001FFFFF0007BC3C01EF0F03C3DDF
:10019000EF0001F37FE03FFBC3CFFEF0F03C3DEF0B
:1001A0000003E33F807FFBC3DFFEF0F03C3DEF0048
:1001B00007E73C00787BC3DE1EF0F03C3DEF000714
:1001C000FFBE00787BC3DE1EF0F03C3DEF0007FF72
:1001D000FE00787BC3DE1EF0F03C3DEF000FFFFE1B
:1001E000007FFBFFDFFEF0F03FFDEFE00FFFFF00C1
:1001F0007FFBFFDFFEF0F03FFDEFE00FF9FF003E79
:1002000079F9CF9EF0F01F3DE7E01FF1FF000000FD
:100210000000000000000000001F80FF007FFFFFC3
:10022000FFFFFFFFFFFFFFE01C007F007FFFFFFFDE
:10023000FEB46D888D18E000001F007FFFFFFFFEF9
:1002400095AD7DB577E000000F007FFFFFFFFEA5B5
:10025000AD9D8D19E0000006007FFFFFFFFEB5ADEC
:10026000EDB57EE00000000000018000000000000D
:1002700000000000038000000000000000000007F4
:10028000C000000000000000000007C000000000E7
:1002900000000000000FC00000000000000000008F
:1002A0001FE00000000000000000001FE000000050
:1002B0000000000000003FE000000000000000001F
:1002C000003FF00000000000000000007FF0000090
:1002D00000000000001FF87FF00000000000000098
:1002E0003FFE7FF0000000000000003FFF7FF000B5
:1002F0000000000000001FFFFBE000000000000005
:10030000000FFFF9FFC00000000000000FFFF9FF21
:10031000F800000000000007FFF1FFFF00000000F0
:10032000000003FC73FFFF80000000000001FE3F9F
:10033000FFFF80000000000000FF1E0FFF00000014
:10034000000000007FFE1FFC000000000000003FD6
:10035000FFFFF8000000000000000FDFFFE00000DA
:1003600000000000001F19FFC00000000000000096
:100370003F3CFF00000000000000007E7CF8000011
:100380000000000000007FFE7C0000000000000074
:1003900000FFFFFC0000000000000000FFFFFE0067
:1003A00000000000000000FFFFFE00000000000051
:1003B0000001FFEFFE0000000000000001FFCFFE83
:1003C0000000000000000003FF07FE000000000026
:1003D000000003FC07FE0000000000000003F00323
:1003E000FE00000000000000018000FE0000000090
:1003F0000000000000007E0000000000000000007F
:10040000003E000000000000000000000C000000A2
:10041000000000078000FC000003C000000007800F
:1004200001FC000003C0000000078001FC00000385
:10043000C0000000078001E00000001E000000076F
:100440008001E00000001E007FE3F79FF9FDE778E0
:100450007BDFC0FFF7FFBFFDFDFF787BDFC0FFF74D
:10046000FFBFFDFDFF787BDFC0F0F787BC3DE1FFFC
:10047000787BDE00F0F787BC3DE1F0787BDE0000A2
:10048000F787803DE1E0787BDE007FF7879FFDE125
:10049000E0787BDE00FFF787BFFDE1E0787BDE00E0
:1004A000F0F787BC3DE1E0787BDE00F0F787BC3DEC
:1004B000E1E0787BDE00F0F787BC3DE1E0787BDEB1
:1004C00000FFF7FFBFFDE1E07FFBDFC0FFF7FFBFED
:1004D000FDE1E07FFBDFC07CF3F39F3DE1E03E7B8D
:1004E000CFC00000000000000000000000FFFFFF80
:1004F000FFFFFFFFFFFFFFC0FFFFFFFFFD68DB11F6
:100500001A31C0FFFFFFFFFD2B5AFB6AEFC0FFFF50
:10051000FFFFFD4B5B3B1A33C0FFFFFFFFFD6B5B33
:10052000DB6AFDC02200FF210000FF2F260000FF34
:100530002F27004E6F6F6B3137406F322E706C007B
:100540000000000800020100000304070000000092
:1005500000000000000103070F1F3F7F0080C0E084
:10056000F0F8FCFE00000000003E5B4F5B3E3E6B7F
:100570004F6B3E1C3E7C3E1C183C7E3C181C577D3D
:10058000571C1C5E7F5E1C00183C1800FFE7C3E789
:10059000FF0018241800FFE7DBE7FF30483A060E9B
:1005A0002629792926407F050507407F05253F5AE2
:1005B0003CE73C5A7F3E1C1C08081C1C3E7F142252
:1005C0007F22145F5F005F5F06097F017F006689FD
:1005D000956A606060606094A2FFA29408047E0443
:1005E0000810207E201008082A1C08081C2A080869
:1005F0001E101010100C1E0C1E0C30383E38300629
:100600000E3E0E06000000000000005F0000000724
:10061000000700147F147F14242A7F2A1223130852
:10062000646236495620500008070300001C22412E
:10063000000041221C002A1C7F1C2A08083E0808D2
:100640000080703000080808080800006060002082
:10065000100804023E5149453E00427F4000724965
:100660004949462141494D331814127F1027454509
:1006700045393C4A4949314121110907364949491F
:1006800036464949291E000014000000403400008D
:1006900000081422411414141414004122140802F6
:1006A000015909063E415D594E7C1211127C7F4969
:1006B0004949363E414141227F4141413E7F4949BE
:1006C00049417F090909013E414151737F080808EA
:1006D0007F00417F41002040413F017F08142241BB
:1006E0007F404040407F021C027F7F0408107F3E15
:1006F0004141413E7F090909063E4151215E7F0982
:10070000192946264949493203017F01033F4040E8
:10071000403F1F2040201F3F4038403F63140814D3
:100720006303047804036159494D43007F4141410B
:100730000204081020004141417F040201020440EC
:1007400040404040000307080020545478407F2870
:100750004444383844444428384444287F38545466
:10076000541800087E090218A4A49C787F08040489
:100770007800447D40002040403D007F1028440028
:1007800000417F40007C047804787C0804047838B9
:1007900044444438FC1824241818242418FC7C08E9
:1007A000040408485454542404043F44243C404066
:1007B000207C1C2040201C3C4030403C4428102819
:1007C000444C9090907C4464544C44000836410062
:1007D0000000770000004136080002010204023CDC
:1007E0002623263C1EA1A161123A4040207A3854AB
:1007F0005455592155557941225454784221555424
:10080000784020545579400C1E5272123955555576
:1008100059395454545939555454580000457C4161
:100820000002457D420001457C407D1211127DF0A1
:10083000282528F07C545545002054547C547C0ACB
:10084000097F4932494949323A4444443A324A4894
:1008500048303A4141217A3A42402078009DA0A098
:100860007D3D4242423D3D4040403D3C24FF2424EA
:10087000487E4943662B2FFC2F2BFF0929F620C009
:10088000887E090320545479410000447D4130485A
:10089000484A32384040227A007A0A0A727D0D199D
:1008A000317D2629292F28262929292630484D40FF
:1008B00020380808080808080808382F10C8ACBAFB
:1008C0002F102834FA00007B000008142A1422227A
:1008D000142A14085500550055AA55AA55AAFF55C3
:1008E000FF55FF000000FF00101010FF001414144B
:1008F000FF001010FF00FF1010F010F0141414FC93
:10090000001414F700FF0000FF00FF1414F404FCAF
:10091000141417101F10101F101F1414141F001090
:100920001010F0000000001F101010101F10101009
:1009300010F010000000FF10101010101010101018
:10094000FF10000000FF140000FF00FF00001F1058
:10095000170000FC04F414141710171414F404F412
:100960000000FF00F714141414141414F700F71403
:100970001414171410101F101F141414F414101052
:10098000F010F000001F101F0000001F14000000F6
:10099000FC140000F010F01010FF10FF141414FFEE
:1009A000141010101F00000000F010FFFFFFFFFFE9
:1009B000F0F0F0F0F0FFFFFF0000000000FFFF0F7D
:1009C0000F0F0F0F3844443844FC4A4A4A347E0221
:1009D000020606027E027E026355494163384444A2
:1009E0003C04407E201E2006027E020299A5E7A557
:1009F000991C2A492A1C4C7201724C304A4D4D30C8
:100A00003048784830BC625A463D3E494949007EEC
:100A10000101017E2A2A2A2A2A44445F4444405183
:100A20004A444040444A51400000FF0103E080FF37
:100A3000000008086B6B083612362436060F090FC3
:100A400006000018180000001010003040FF0101DF
:100A5000001F01011E00191D1712003C3C3C3C0008
:100A60000000000000000000250028002B0000000E
:100A70000000240027002A000404040404040404E1
:100A80000202020202020303030303030102040839
:100A900010204080010204081020010204081020E8
:100AA0009519641411241FBECFEFD8E0DEBFCDBF6F
:100AB00011E0A0E0B1E0E2EDF6E302C005900D9296
:100AC000AA35B107D9F723E0AAE5B1E001C01D922C
:100AD000A430B207E1F715E0C1E5D5E004C02197E5
:100AE000FE010E94291AC035D107C9F70E9473146C
:100AF0000C945C1B0C940000CF92DF92EF92FF925B
:100B00000F931F93CF93DF936C017A018B01C0E0A9
:100B1000D0E0CE15DF0581F0D8016D918D01D601B1
:100B2000ED91FC910190F081E02DC6010995892B92
:100B300011F02196EECF7E01C701DF91CF911F9179
:100B40000F91FF90EF90DF90CF900895FC01538DAF
:100B5000448D252F30E0842F90E0821B930B541797
:100B600010F0CF96089501970895FC01918D828D24
:100B7000981761F0828DDF01A80FB11D5D968C91F1
:100B8000928D9F5F9F73928F90E008958FEF9FEFFC
:100B90000895FC01918D828D981731F0828DE80FB8
:100BA000F11D858D90E008958FEF9FEF0895FC0172
:100BB000918D228D892F90E0805C9F4F821B91093F
:100BC0008F739927089588E192E00E94D70521E06C
:100BD000892B09F420E0822F0895FC01848DDF0128
:100BE000A80FB11DA35ABF4F2C91848D90E00196A0
:100BF0008F739927848FA689B7892C93A089B1898F
:100C00008C91837080648C93938D848D981306C02F
:100C10000288F389E02D80818F7D80830895EF9293
:100C2000FF920F931F93CF93DF93EC0181E0888FA6
:100C30009B8D8C8D981305C0E889F989808185FD8D
:100C400026C0F62E0B8D10E00F5F1F4F0F7311277C
:100C5000E02E8C8DE8120CC00FB607FCFACFE889A5
:100C6000F989808185FFF5CFCE010E94ED05F1CF96
:100C70008B8DFE01E80FF11DE35AFF4FF0829FB705
:100C8000F8940B8FEA89FB89808180620AC09FB744
:100C9000F894EE89FF896083E889F98980818370FF
:100CA000806480839FBF81E090E0DF91CF911F91AE
:100CB0000F91FF90EF900895CF93DF93EC01888D13
:100CC0008823C9F0EA89FB89808185FD05C0A88950
:100CD000B9898C9186FD0FC00FB607FCF5CF8081D6
:100CE00085FFF2CFA889B9898C9185FFEDCFCE0120
:100CF0000E94ED05E7CFDF91CF91089580E090E06D
:100D0000892B29F00E94E30581110C9400000895BD
:100D1000FC0177FDB9C080859185681779070CF0D3
:100D2000B3C057FDB1C082859385481759070CF0B1
:100D300008958689823079F484819581DC01A61B2F
:100D4000B70BBD016150710986819781DC01A41B3D
:100D5000B50BAD010EC0833009F084C06427752740
:100D6000CA01862797276827792746815781481B1C
:100D7000590B415051092130310531F048F12230F1
:100D8000310509F44AC00895CA0157FD07969C0130
:100D9000A3E035952795AA95E1F7A481B5812A9F0F
:100DA000C0012B9F900D3A9F900D1124680F791F61
:100DB000078CF0A1E02DE60FF71F4770552781E063
:100DC00090E001C0880F4A95EAF79081892B48C0CE
:100DD000CA0157FD07969C0193E0359527959A9592
:100DE000E1F7A481B5812A9FC0012B9F900D3A9F06
:100DF000900D1124680F791F078CF0A1E02DE60FEC
:100E0000F71F4770552781E090E001C0880F4A9591
:100E1000EAF780959081892323C0CA0157FD079680
:100E20009C0183E0359527958A95E1F7A481B581EA
:100E30002A9FC0012B9F900D3A9F900D1124680F9F
:100E4000791F078CF0A1E02DE60FF71F477055279B
:100E500081E090E001C0880F4A95EAF790818927E8
:100E600080830895813009F086CF6427752746274F
:100E700057276427752784819581DC01A61BB70B52
:100E8000BD016150710977CF08950895FC01637029
:100E9000668B8481958126813781613039F063309A
:100EA00029F09187808733872287089531872087AB
:100EB0009387828708956F927F928F929F92AF92CD
:100EC000BF92CF92DF92EF92FF920F931F93CF9337
:100ED000DF93EC014B015A0169013801E881F98186
:100EE0000284F385E02D0995E881F9810288F38970
:100EF000E02D87019601A501B401CE010995A50158
:100F0000460D571D41505109E881F9810288F38946
:100F1000E02D9601B401CE010995E881F9810088A0
:100F2000F189E02D9301A501B401CE010995C80C0A
:100F3000D91CB60161507109E881F9810088F189F5
:100F4000E02D9301A501CE010995E881F98106887C
:100F5000F789E02DCE01DF91CF911F910F91FF9086
:100F6000EF90DF90CF90BF90AF909F908F907F9049
:100F70006F9009948F929F92AF92BF92CF92DF921F
:100F8000EF92FF920F931F93CF93DF934C016B016E
:100F90005A01E901DC01ED91FC916217730781F4BC
:100FA0000417150724F48B2D5801042F182F0A1944
:100FB0001B0998012F5F3F4F048CF58DE02D12C067
:100FC0004017510709F52617370724F48D2D6901BD
:100FD000C62FD82F9E012C193D092F5F3F4F068C3D
:100FE000F78DE02D8701A501B601C4010995DF91B8
:100FF000CF911F910F91FF90EF90DF90CF90BF9016
:10100000AF909F908F9008950284F385E02D09950D
:10101000D401ED91FC910488F589E02D9E01A50194
:10102000B601C4010995D401ED91FC910688F789B8
:10103000E02DC401DF91CF911F910F91FF90EF90B0
:10104000DF90CF90BF90AF909F908F900994EF92D8
:10105000FF920F931F93DC011A960D911C911B9721
:1010600018962D913C911997ED91FC9100A0F1A15A
:10107000E02D7B0140E050E060E070E009951F91B9
:101080000F91FF90EF9008954F925F926F927F9231
:101090008F929F92AF92BF92CF92DF92EF92FF9288
:1010A0000F931F93CF93DF936C012B015A013901EA
:1010B0004801DC01ED91FC910284F385E02D099556
:1010C000E201640C751CD601ED91FC91C615D705A3
:1010D0005CF40088F189E02D87019401A501BE012F
:1010E000C60109952196EFCF0688F789E02DC60144
:1010F000DF91CF911F910F91FF90EF90DF90CF90F4
:10110000BF90AF909F908F907F906F905F904F9027
:1011100009948F929F92AF92BF92CF92DF92EF92FB
:10112000FF920F931F93CF93DF93EC015B014A0172
:101130006901E881F9810284F385E02D0995950123
:101140002C0D3D1D21503109E881F9810488F58974
:10115000E02D78018401A401B501CE010995E88153
:10116000F9810688F789E02DCE01DF91CF911F919B
:101170000F91FF90EF90DF90CF90BF90AF909F9036
:101180008F9009948F929F92AF92BF92CF92DF92ED
:10119000EF92FF920F931F93CF93DF93EC015B01CC
:1011A0004A0169017801E881F9810284F385E02D23
:1011B0000995C80CD91C860101501109E881F981F3
:1011C0000488F589E02D9501A401B501CE010995AA
:1011D000E881F9810688F789E02DCE01DF91CF9172
:1011E0001F910F91FF90EF90DF90CF90BF90AF9045
:1011F0009F908F9009940895EF92FF920F931F9301
:10120000DC01ED91FC9100A0F1A1E02D09951F9169
:101210000F91FF90EF9008950F931F93DC01ED91D4
:10122000FC91068CF78DE02D09951F910F91089583
:101230000F931F93DC01ED91FC91048CF58DE02D53
:1012400009951F910F910895DC01ED91FC910084A7
:10125000F185E02D09942F923F924F925F926F9209
:101260007F928F929F92AF92BF92CF92DF92EF9236
:10127000FF920F931F93CF93DF9300D000D000D045
:10128000CDB7DEB72C017E836D836A015901C80199
:10129000FC82EB824801841A950A97FE03C0919460
:1012A0008194910835012D813E81621A730A77FE7F
:1012B00003C0719461947108681479045CF43A2D48
:1012C0002B2D5C01832F922F3D812E81DE82CD82DA
:1012D000C32ED22EAD81BE81AA16BB065CF43C2D76
:1012E0002D2D6C01832F922F3D812E81BE82AD82E8
:1012F000A32EB22E85012D813E81021B130B1C01F2
:101300002C183D0837FE03C0319421943108780130
:1013100017FF03C03FEFE31AF30AF594E794C816EA
:10132000D9062CF08FEF9FEF9A83898304C0A1E048
:10133000B0E0BA83A9832D813E81A216B30624F1C1
:10134000D201ED91FC910484F585E02D2B813C8147
:101350006814790424F44D815E81B60103C0A601AE
:101360006D817E81C2010995E218F308F7FE06C07F
:1013700029813A81C20ED31EE00EF11E8D819E811D
:1013800001969E838D83D7CF26960FB6F894DEBF45
:101390000FBECDBFDF91CF911F910F91FF90EF90C6
:1013A000DF90CF90BF90AF909F908F907F906F9085
:1013B0005F904F903F902F90089585ED8093BC00F3
:1013C0008091BC0084FDFCCF1092F3010895409100
:1013D0009A01262F30E0240F311D21323105DCF433
:1013E0002091F3012430C9F4FC0180E090E08617DD
:1013F00058F430919A012191DC01A658BE4FA30FF9
:10140000B11D2C930196F3CF80919A01680F6093E0
:101410009A0180E0089581E0089582E0089508959A
:101420000895E091C2018091C101E81730F4F0E025
:10143000E65AFE4F808190E008958FEF9FEF089568
:101440009091C2018091C101981750F4E92FF0E00A
:10145000E65AFE4F208130E09F5F9093C20102C0A8
:101460002FEF3FEFC90108958091C10190E02091D5
:10147000C201821B91090895CF92DF92EF92FF92F1
:101480000F931F93CF93DF937C01CB018A012091AF
:10149000F401222389F0EB016B01C40ED51ECC159B
:1014A000DD0569F06991D701ED91FC910190F08122
:1014B000E02DC7010995F3CF642F0E94E709C80109
:1014C000DF91CF911F910F91FF90EF90DF90CF9020
:1014D0000895CF93DF931F92CDB7DEB76983209134
:1014E000F4012223D1F020911702203240F021E0B4
:1014F00030E0FC013383228380E090E015C08091CE
:10150000F501E82FF0E0EA50FE4F998190838F5F5C
:101510008093F5018093170205C061E0CE0101962A
:101520000E94E70981E090E00F90DF91CF9108954C
:10153000089580E090E008950F931F93CF93DF9379
:10154000DC015696EC915697E23071F0E330E9F009
:10155000E13079F5FB0114960D90BC91A02DA41BF0
:10156000B50BA21BB30B18C0EC01EC81FD81E61B8F
:10157000F70BBF0161507109EE81FF81DF01A41BF0
:10158000B50BAD01421B530B14C0DA01EC01EE8127
:10159000FF81E61BF70B3197F7FD0DC0EC014E8183
:1015A0005F81E417F5073CF4AF01BD010E94C11251
:1015B00002C00E942813DF91CF911F910F910895CF
:1015C0000F931F93DC015696EC915697E23061F031
:1015D000E33009F1E13081F51496ED91FC91159716
:1015E000E41BF50B319723C0DC011496ED91FC91BF
:1015F0001597DF01A61BB70BBD01DC011696ED9117
:10160000FC911797DF01A41BB50BAD0141505109A7
:10161000621B730B11C0FA01DC0116964D915C91AF
:101620001797DA01A61BB70BBD01621B730BAB0149
:10163000BF010E9428130CC057FD0AC0DC0116969A
:10164000ED91FC9117974E175F0714F40E94C11299
:101650001F910F9108958F929F92AF92CF92EF9228
:10166000FF920F931F93CF93DF93EC01262F898D69
:101670009A8D009709F042C06A3059F41D861C8685
:101680002D898E859F8538E0239F800D911D112423
:1016900043C06D3009F4AAC08F898823C9F03C8902
:1016A0008C859D8546E0349F800D911D11244885D1
:1016B00059854817590764F41D861C863D898E8517
:1016C0009F8548E0349F800D911D11249F878E8750
:1016D000EA88FB88088919894E855F856C857D8538
:1016E000AD88CC88CE010E948D102C898C859D857B
:1016F00036E0239F800D911D11243EC06A3079F49D
:101700001D861C862D89FC013696E4918E859F8569
:101710002E9F800D911D11249F878E8767C06D308D
:1017200009F464C0FC0134963491631708F45EC078
:101730003196E491E61708F459C0462F431B342F25
:10174000FC0132968590949047E0349F800C911C68
:101750001124F401329634913196E491332311F03F
:10176000E1110DC0F4013496E4912C898C859D859E
:10177000E29F800D911D11249D878C8737C0F40155
:10178000359644915F89552319F15C89E32FF0E088
:10179000E40FF11D47FDFA955E9FB0015F9F700D4C
:1017A00011244C855D85460F571F68857985641720
:1017B000750774F41D861C863D89FC013696E491FC
:1017C0008E859F853E9F800D911D11249F878E875A
:1017D000EA88FB88088919894E855F856C857D8537
:1017E000AD88CC88CE010E948D10BCCF81E090E006
:1017F000DF91CF911F910F91FF90EF90CF90AF901D
:101800009F908F9008951F920F920FB60F92112400
:101810002F933F934F935F936F937F938F939F93F8
:10182000AF93BF93EF93FF9388E192E00E94ED05A1
:10183000FF91EF91BF91AF919F918F917F916F91A8
:101840005F914F913F912F910F900FBE0F901F907E
:1018500018951F920F920FB60F9211242F938F930A
:101860009F93EF93FF93E0912802F09129028081EA
:10187000E0912E02F0912F0282FD12C090818091A2
:1018800031028F5F8F7320913202821751F0E09105
:101890003102F0E0E85EFD4F958F8093310201C088
:1018A0008081FF91EF919F918F912F910F900FBEAB
:1018B0000F901F90189508958EBD00000DB407FE7F
:1018C000FDCF8EB508951F93CF93DF93FC01858DD7
:1018D000968D009729F1162FEF0121A131E0309369
:1018E000F401209316021092F50110921702DC0108
:1018F000ED91FC910190F081E02D60E009958D8DD6
:101900009E8DDC01ED91FC910190F081E02D612F25
:1019100009958D8D9E8DDF91CF911F910C947C0F39
:10192000A5A5B6A59C9183A9809589238C93838DC9
:10193000948D892B31F0862FDF91CF911F910C94DC
:101940005C0C28E030E080E8A1A5B2A591A9462F63
:10195000482319F04C91942B03C04C9190959423FB
:101960009C93A3A5B4A54C9192A9942B9C93A3A559
:10197000B4A54C9192A9909594239C93869521505F
:10198000310911F7DF91CF911F9108958CBD9DBD55
:1019900008951F920F920FB60F9211242F933F9329
:1019A0004F935F936F937F938F939F93AF93BF9367
:1019B000EF93FF938091B900887F803609F49CC033
:1019C00068F5883209F45BC090F4803109F454C0A2
:1019D00038F4882309F4F6C0883009F44DC0F6C005
:1019E000883109F44CC0803209F45DC0EFC0803406
:1019F00009F468C048F4803309F455C0883309F00D
:101A0000E5C08093F101D8C0803509F44FC0883516
:101A100009F45DC0883409F0D9C0D6C0883909F40A
:101A2000C7C0A8F4883709F467C038F4883609F4C9
:101A300063C0803709F460C0C9C0883809F4B8C0F1
:101A4000803909F45FC0803809F0C0C05BC0803BBA
:101A500009F486C038F4803A09F466C0883A09F47B
:101A60007FC0B4C0803C09F4A7C0883C09F4A4C07E
:101A7000883B09F48AC0AAC08091CE0110C0909121
:101A8000F0018091EF01981770F5E091F00181E08D
:101A90008E0F8093F001F0E0E153FE4F8081809340
:101AA000BB0085EC86C08093F1018EC0E091F0010F
:101AB00081E08E0F8093F0018091BB00F0E0E15354
:101AC000FE4F80839091F0018091EF016EC0E09114
:101AD000F00181E08E0F8093F0018091BB00F0E077
:101AE000E153FE4F80838091F20181116DC081E04E
:101AF0008093CD0184EA61C083E08093F30110926A
:101B0000BC01CFCF8091BC01803208F051C0E09180
:101B1000BC0181E08E0F8093BC018091BB00F0E09E
:101B2000E456FE4F8083BDCF85EC8093BC001092BD
:101B3000F3018091BC01803230F4E091BC01F0E00F
:101B4000E456FE4F10826091BC0170E0E091BD014F
:101B5000F091BE018CE991E009951092BC0136C06C
:101B600084E08093F30110929B0110929A01E0911E
:101B7000BF01F091C001099580919A01811105C0C2
:101B800081E080939A0110927A01E0919B0181E0BB
:101B90008E0F80939B01F0E0E658FE4F808180938A
:101BA000BB0090919B0180919A01981708F479CF1E
:101BB00085E88093BC000AC085EC8093BC0010923D
:101BC000F30104C01092F1010E94DD09FF91EF9131
:101BD000BF91AF919F918F917F916F915F914F9145
:101BE0003F912F910F900FBE0F901F9018959B0162
:101BF000AC0160E074E284EF90E00E94071ADA0121
:101C0000C9014097A109B109B695A7959795879500
:101C10008093B80008951F93CF93DF93EC01162FA4
:101C20008D8D9E8D892B39F06FA978AD89AD9AADD8
:101C30000E94F70D0FC08B8D9C8D892B21F08DA9F3
:101C40009EA90E94C60CEFA5F8A990818CA9809549
:101C500089238083111102C066EA01C067EACE01C0
:101C60000E94630C8D8D9E8D892B49F06BAD7CADF0
:101C70008DAD9EADDF91CF911F910C94F70DEFA527
:101C8000F8A990818CA9892B8083DF91CF911F9136
:101C900008950E94501B3FB7F8948091C90190911C
:101CA000CA01A091CB01B091CC0126B5A89B05C07B
:101CB0002F3F19F00196A11DB11D3FBFBA2FA92FCB
:101CC000982F8827820F911DA11DB11DBC01CD0148
:101CD00042E0660F771F881F991F4A95D1F7089534
:101CE0001F920F920FB60F9211242F933F938F9351
:101CF0009F93AF93BF938091C5019091C601A0912E
:101D0000C701B091C8013091C40123E0230F2D37E2
:101D100020F40196A11DB11D05C026E8230F0296EF
:101D2000A11DB11D2093C4018093C5019093C601EC
:101D3000A093C701B093C8018091C9019091CA01D5
:101D4000A091CB01B091CC010196A11DB11D809352
:101D5000C9019093CA01A093CB01B093CC01BF916C
:101D6000AF919F918F913F912F910F900FBE0F9048
:101D70001F9018952091BB023091BC02C9010796B3
:101D800097FD079623E0959587952A95E1F7209191
:101D9000B9023091BA02829FA001839F500D929F99
:101DA000500D112460E070E08091D4029091D50232
:101DB0000C94551B3F924F925F926F927F928F923D
:101DC0009F92AF92BF92CF92DF92EF92FF920F93CA
:101DD0001F93CF93DF9300D000D000D0CDB7DEB7F4
:101DE0002C013B014A015901C901079697FD07964D
:101DF0009C0193E0359527959A95E1F73C832B83D9
:101E0000C12CD12CE12CF12C312CC3018E0D9F1D46
:101E10009A838983E016F106C4F51E821D822D8106
:101E20003E812A153B054CF5C90187709927892BFE
:101E300011F0330C0EC0ED81FE81F7FD379683E083
:101E4000F595E7958A95E1F7EC0DFD1DE80DF91D77
:101E5000349037FE0CC021E030E049815A816D8119
:101E60007E81640D751D85EB92E00E9424098D81B1
:101E70009E8101969E838D83D2CF9FEFE91AF90A46
:101E80002B813C81C20ED31EC0CF26960FB6F8948C
:101E9000DEBF0FBECDBFDF91CF911F910F91FF909D
:101EA000EF90DF90CF90BF90AF909F908F907F90FA
:101EB0006F905F904F903F90089590E0FC01E45741
:101EC000F54F2491FC01E858F54F8491882399F04F
:101ED00090E0880F991FFC01E259F54FA591B4914C
:101EE000FC01EC59F54F859194918FB7F894EC91E2
:101EF000E22BEC938FBF089530911702313208F036
:101F00004BC08091F3018111FCCF9091160222E029
:101F10002093F30121E02093F2012FEF2093F101B0
:101F20001092F0013093EF01E6EFF1E0AFECB1E099
:101F300020E0321721F041914D932F5FFACF10929C
:101F4000CE012091CE01990F922B9093CE019091CA
:101F5000CD01913061F41092CD019091CE0190931A
:101F6000BB009091BC0093FDF8CF95EC01C095EEBD
:101F70009093BC009091F3019230E1F39091F101C4
:101F80009F3F79F08091F101803241F08091F10121
:101F9000803331F084E005C081E003C082E001C0FD
:101FA00083E01092F501109217021092F401089547
:101FB000DF92EF92FF920F931F93CF93DF93D82E70
:101FC000D92FC62F8091D2029091D302009709F4A5
:101FD00054C02091D60231E03093F40120931602D0
:101FE0001092F50110921702DC01ED91FC91019025
:101FF000F081E02D60E00995ED2CFD2E11E0D1E09F
:102000008091D2029091D302CC2371F11032C8F0AA
:102010000E947C0F8091D602D093F4018093160227
:102020001092F501109217028091D2029091D30282
:10203000DC01ED91FC910190F081E02D60E00995CB
:1020400011E08091D2029091D302F7016491DC01FA
:10205000ED91FC910190F081E02D09951F5FC15039
:10206000BFEFEB1AFB0ACCCFDF91CF911F910F91FD
:10207000FF90EF90DF900C947C0FE091E202F091E2
:10208000E30290818091E8028095892380830D2D61
:102090001D2FCC2309F439C0F80184912091D0027E
:1020A0003091D102232B31F00E945C0CC1500F5FA4
:1020B0001F4FEFCF28E030E040E8E091DE02F091E2
:1020C000DF029091E602582F542319F05081952B8E
:1020D00003C05081909595239083E091E002F091A8
:1020E000E10250819091E702952B9083E091E0020C
:1020F000F091E10250819091E702909595239083B1
:10210000469521503109C9F6D1CFDF91CF911F916A
:102110000F91FF90EF90DF9008952F923F924F9292
:102120005F926F927F928F929F92AF92BF92CF9267
:10213000DF92EF92FF920F931F93CF93DF93CDB770
:10214000DEB76B970FB6F894DEBF0FBECDBF9B8F87
:102150008A8F1B014A01D22E198708873701A9826D
:10216000DC0159962D913C915A972115310509F0C2
:10217000FFC018968D919C911997681779070CF0FC
:10218000E7C11A968D919C911B97481759070CF03F
:10219000DFC1EC2DF0E0FB83EA839B0146E0C49EA7
:1021A000200D311D11243D872C87121613060CF0CB
:1021B000CFC16A2D70E07B876A8783E0660F771F47
:1021C0008A95E1F77F876E87CB01880D991D1816D8
:1021D00019060CF0BDC158968C91811104C08FEA8C
:1021E0008D1508F4D394AA8DBB8DED91FC911197B8
:1021F0000284F385E02DCD010995B5E0DB9EC00199
:102200001124EC2DF0E0F98BE88B91012B5F3F4F0F
:102210003B8B2A8B3D822C822101AC014219530950
:102220005D8B4C8B7981672F70E07F8B6E8BC40147
:102230000896998F888FEC89FD89E40DF51DEC597E
:10224000FA4FD49054019F828E82D0FE16C0AA8D80
:10225000BB8DED91FC91B1E0CB1209C029812130F9
:1022600031F40484F585E02D2885398519C006846C
:10227000F785E02DE884F9841DC048855985461509
:10228000570519F1AA8DBB8DED91FC91B1E0CB12F0
:102290000DC02981213051F40484F585E02D93018E
:1022A000A501B2018A8D9B8D09950FC00684F78523
:1022B000E02D73010A851B852A813B814E815F8158
:1022C0006C817D818A8D9B8D0995D6943FEFA31AF1
:1022D000B30A4E815F816E897F89460F571F5F83E6
:1022E0004E83888D998DA816B90609F0AECF9FEF61
:1022F000491A590AAC81BD81E889F989AE0FBF1F1F
:10230000BD83AC832A893B894216530609F093CFDB
:10231000488559854615570509F4F8C0AA8DBB8D27
:10232000ED91FC91B1E0CB1211C02981213071F403
:10233000B1016B5F7F4F0088F189E02D830128E0B8
:1023400030E0A4018A8D9B8D0995E0C06C857D8568
:102350004A815B81641B750B0684F785E02D730150
:102360000E851F859A01A4018A8D9B8D0995CEC08B
:10237000F9013496E491DE1AF9013296859194912F
:10238000B7E0DB9E800D911D1124F9012591349158
:102390003B8B2A8BFC01259134915901FC0132962B
:1023A0005490319634913C873296749031961491C2
:1023B00041E04C1518F05981523068F0672D072C18
:1023C000000C770B7D836C83812F012E000C990B01
:1023D0009B838A8304C01B821A821D821C82AA8D61
:1023E000BB8DED91FC9111970284F385E02DCD0119
:1023F0000995412CD12C612CF981EF2FF0E0FF835E
:10240000EE832C2D30E03B872A87A401410F511D1C
:1024100017FD5A955F8B4E8BB101670D711D77FCCF
:102420007A95798F688F7C85671608F06FC0262DA6
:1024300030E04A815B81420F531FAE81BF81A49F70
:10244000C001A59F900DB49F900D1124F401E80FD9
:10245000F91FF98BE88B842D712C4E895F89420F0F
:10246000531F5D8B4C8B751408F04DC051E0580F15
:102470005E87877041F4C5010196EA89FB89EA0D00
:10248000FB1DD4905C01D7FE3AC061E0C61216C0B5
:102490007981713099F4AA8DBB8DED91FC911197E2
:1024A0000484F585E02D288539854C895D89688D02
:1024B000798D670D711DCD01099521C08C819D819C
:1024C000870D911DEA85FB858E9FB0018F9F700D52
:1024D0009E9F700D1124620D731DAA8DBB8DED9111
:1024E000FC9111970684F785E02DE884F9840E812C
:1024F0001F812A853B8548895989CD010995DD0CC5
:1025000073948E85B0CF450C63948DCFAA8DBB8D0F
:10251000ED91FC9111970688F789E02DCD016B961E
:102520000FB6F894DEBF0FBECDBFDF91CF911F91E4
:102530000F91FF90EF90DF90CF90BF90AF909F9062
:102540008F907F906F905F904F903F902F90099465
:102550006B960FB6F894DEBF0FBECDBFDF91CF9163
:102560001F910F91FF90EF90DF90CF90BF90AF90B1
:102570009F908F907F906F905F904F903F902F90A3
:1025800008950F931F93CF93DF9377FF04C0260F17
:10259000371F60E070E0DC011496CD91DC91159757
:1025A000FB01E20FF31FCE17DF071CF49E01261B71
:1025B000370B121613060CF046C0FA0157FD37967A
:1025C000DF01E3E0B595A795EA95E1F7AC9FF0014F
:1025D000AD9FF00DBC9FF00D11246E0F7F1FDC012D
:1025E0005F96ED91FC919097E60FF71F4770552786
:1025F00081E090E001C0880F4A95EAF7482F01304A
:10260000110539F078F002301105E9F42E0F3F1F63
:1026100013C02E0F3F1FE217F307A9F08081842B10
:102620008193F9CF80952E0F3F1FE217F30759F0E2
:10263000908198239193F9CFE217F30721F08081DD
:1026400084278193F9CFDF91CF911F910F91089546
:10265000EF92FF920F931F93CF93DF93EC0177FDDF
:10266000A5C0EC80FD806E157F050CF09FC057FF64
:1026700004C0240F351F40E050E08E819F81FA0195
:10268000E20FF31F8E179F071CF49C01241B350BD0
:10269000121613060CF08AC0922F842F8695869509
:1026A00086958E9DD0018F9DB00D11246A0F7B1FE2
:1026B000AF8DB8A1A60FB71F4770B1F188E0841B9A
:1026C000482F682F70E0FB01E45AFA4FE491281775
:1026D00098F4621B71092FEF30E002C03595279501
:1026E0006A95E2F7E2230130110549F078F00230F3
:1026F000110509F05BC00EC00130110519F48C9171
:10270000E82B0AC00130110508F049C0E0958C9112
:10271000E82302C08C91E827EC93941708F446C094
:102720002C813D81A20FB31FE92FE41BE830F8F0A4
:102730000230110561F48E2F9C9190959C932C8111
:102740003D81A20FB31F88508830B0F70FC081E0E1
:102750000115110509F480E081959E2F8C932C8141
:102760003D81A20FB31F98509830C0F7E770EE2359
:10277000E9F0F0E0EC5AFA4FE4910130110539F03C
:1027800048F00230110591F48C91E82706C08C9135
:10279000E82B03C0E0958C91E823EC9307C002304E
:1027A000110509F4B7CFAE0DBF1DBECFDF91CF919C
:1027B0001F910F91FF90EF90089590E0FC01E05C75
:1027C000FA4F2491FC01E457F54F3491FC01E8588D
:1027D000F54FE491EE2309F43CC0222339F1233074
:1027E00091F038F42130A9F0223001F584B58F7DC5
:1027F00012C0273091F02830A1F02430B9F4809134
:1028000080008F7D03C0809180008F77809380004F
:102810000DC084B58F7784BD09C08091B0008F77DB
:1028200003C08091B0008F7D8093B000F0E0EE0F88
:10283000FF1FEC59F54FA591B4919FB7F894611122
:1028400004C08C913095382302C0EC913E2B3C9310
:102850009FBF08958F929F92AF92BF92CF92DF92C7
:10286000EF92FF926B017C010E944B0E4B015C01C9
:10287000C114D104E104F104F1F00E944B0EDC011B
:10288000CB0188199909AA09BB09883E9340A10583
:10289000B10570F321E0C21AD108E108F10888EE11
:1028A000880E83E0981EA11CB11CC114D104E10460
:1028B000F10419F7DDCFFF90EF90DF90CF90BF903C
:1028C000AF909F908F9008958EE291E09093B60222
:1028D0008093B5028091D4029091D502009711F0B7
:1028E0000C94C71A0895789484B5826084BD84B529
:1028F000816084BD85B5826085BD85B5816085BDFB
:1029000080916E00816080936E00109281008091B2
:10291000810082608093810080918100816080933A
:102920008100809180008160809380008091B1005F
:1029300084608093B1008091B00081608093B0008A
:1029400080917A00846080937A0080917A0082601E
:1029500080937A0080917A00816080937A008091E0
:102960007A00806880937A001092C100E09128027A
:10297000F091290282E08083E0912402F091250207
:102980001082E0912602F09127028FEC8083109252
:102990003002E0912C02F0912D0286E08083E091DC
:1029A0002A02F0912B02808180618083E0912A02CB
:1029B000F0912B02808188608083E0912A02F0915F
:1029C0002B02808180688083E0912A02F0912B02A3
:1029D00080818F7D80838091D4029091D502892B54
:1029E00011F52091BB023091BC02C901079697FDF9
:1029F000079613E0959587951A95E1F72091B9020E
:102A00003091BA02AC01429FC001439F900D529F8A
:102A1000900D11240E942F1A9093D5028093D40216
:102A2000892B09F4F8C00E94BA0E8091BB029091E4
:102A3000BC02813291050CF44CC3BC016054710995
:102A400077FF02C06F5F7F4F759567958091B902E0
:102A50009091BA028255910997FD019600E410E029
:102A600022E530E044E652E0959587950E94DA0E23
:102A700082E08093D7028091D2029091D302892B79
:102A800009F441C38091BB029091BC02809709F484
:102A900038C38DE38093D6021092C2011092C10117
:102AA0001092F501109217021092F30181E08093C9
:102AB000F2011092CD0161E082E10E94DD1361E03C
:102AC00083E10E94DD138091B9008E7F8093B9006D
:102AD0008091B9008D7F8093B90088E48093B8001D
:102AE00085E48093BC008FE09AE09093C0018093CE
:102AF000BF0180E19AE09093BE018093BD01809177
:102B0000DD0287FD1DC00E945D0F61E08091DD0246
:102B10000E94DD1361E070E080E090E00E942A14E2
:102B200060E08091DD020E94DD136AE070E080E0E9
:102B300090E00E942A1461E08091DD020E94DD1382
:102B40008091D2029091D302892B09F493C36091B2
:102B5000EC027091ED028091EE029091EF020E94E2
:102B6000F70D64E080E890E00E94D80F6091BB020E
:102B7000615085EB92E00E94630C64E08CE790E08A
:102B80000E94D80F8091D702813009F48AC364E192
:102B900085EB92E00E94630C64E088E790E00E947D
:102BA000D80F8091B9029091BA028038910509F04E
:102BB0008BC38091BB029091BC028032910509F0D9
:102BC00072C364E084E790E00E94D80F69ED85EB62
:102BD00092E00E94630C8091D702813009F490C387
:102BE00061EF85EB92E00E94630C66E088E690E07E
:102BF0000E94D80F8091D2029091D302892B09F4C0
:102C000081C36091F0027091F1028091F202909183
:102C1000F3020E94F70DBB24B39401E010E03AE008
:102C2000E32EF12C0E94BA0EB092C902B092CA02F1
:102C30001093C8020093C7021093C6020093C50206
:102C4000F092C202E092C102F092C402E092C3028A
:102C5000C3E3D5E0FE016491611119C042E050E088
:102C600066E571E085EB92E00E947C058091D202DE
:102C70009091D302892B99F06091EC027091ED0252
:102C80008091EE029091EF020E94F70D1EC085EB3D
:102C900092E00E942B0B2196892BE1F6DFCF8091E9
:102CA000D0029091D102892B31F08091EA0290916B
:102CB000EB020E94C60CE091E402F091E5029081E3
:102CC0008091E90280958923808365E084E295E024
:102CD0000E94D80F6091B902615085EB92E00E948A
:102CE000630C2091BB023091BC02C901079697FD8D
:102CF000079623E0959587952A95E1F72091B902EB
:102D00003091BA02829F6001839FD00C929FD00CB9
:102D10001124C091D402D091D5028091D202909119
:102D2000D302CC0EDD1E009709F449C02091D602D3
:102D3000B092F401209316021092F501109217023E
:102D4000DC01ED91FC910190F081E02D60E40995AA
:102D50004E01D1E08091D2029091D302C814D904DF
:102D600059F1D032C8F00E947C0F8091D602B09207
:102D7000F401809316021092F501109217028091CF
:102D8000D2029091D302DC01ED91FC910190F0818F
:102D9000E02D60E40995D1E08091D2029091D302B8
:102DA000F40161914F01DC01ED91FC910190F08102
:102DB000E02D0995DF5FCECF0E947C0F41C0E091EE
:102DC000E202F091E30290818091E802892B8083F6
:102DD000CC15DD05A9F189912091D0023091D10265
:102DE000232B19F00E945C0CF3CF28E030E040E880
:102DF000E091DE02F091DF029091E602542F582319
:102E000019F05081952B03C05081909595239083A4
:102E1000E091E002F091E10250819091E702952B60
:102E20009083E091E002F091E10250819091E702FD
:102E3000909595239083469521503109C9F6C8CFC6
:102E40008091D2029091D302892B59F06091F002C7
:102E50007091F1028091F2029091F3020E94F70DBD
:102E600011C0E091E402F091E50290818091E902C5
:102E7000892B80838091D0029091D102892B11F00F
:102E80000E945B0C8091D2029091D302892B59F061
:102E90006091EC027091ED028091EE029091EF0250
:102EA0000E94F70D16C08091D0029091D102892B1B
:102EB00031F08091EA029091EB020E94C60CE09101
:102EC000E402F091E50290818091E90280958923E6
:102ED000808362E08CE295E00E94D80F60E085EB91
:102EE00092E00E94630C60E085EB92E00E94630C2C
:102EF0006FE085EB92E00E94630C63E089E295E06D
:102F00000E94D80F8091D2029091D302892B59F060
:102F10006091F0027091F1028091F2029091F302BF
:102F20000E94F70D11C0E091E402F091E50290815A
:102F30008091E902892B80838091D0029091D10207
:102F4000892B11F00E945B0C68EB7BE080E090E045
:102F50000E942A148091D2029091D302892B59F0B9
:102F60006091EC027091ED028091EE029091EF027F
:102F70000E94F70D16C08091D0029091D102892B4A
:102F800031F08091EA029091EB020E94C60CE09130
:102F9000E402F091E50290818091E9028095892315
:102FA00080836EE285EB92E00E94630C8091D202F6
:102FB0009091D302892B59F06091F0027091F10247
:102FC0008091F2029091F3020E94F70D11C0E091FE
:102FD000E402F091E50290818091E902892B8083DF
:102FE0008091D0029091D102892B11F00E945B0C4C
:102FF00062E370E080E090E00E942A148091D202A7
:103000009091D302892B59F06091EC027091ED02FE
:103010008091EE029091EF020E94F70D16C0809110
:10302000D0029091D102892B31F08091EA029091E7
:10303000EB020E94C60CE091E402F091E50290815F
:103040008091E90280958923808362E081E395E0A5
:103050000E94D80F60E085EB92E00E94630C60E074
:1030600085EB92E00E94630C6FE085EB92E00E949A
:10307000630C63E08EE295E00E94D80F8091D2024B
:103080009091D302892B59F06091F0027091F10276
:103090008091F2029091F3020E94F70D11C0E0912D
:1030A000E402F091E50290818091E902892B80830E
:1030B0008091D0029091D102892B11F00E945B0C7B
:1030C00068EB7BE080E090E00E942A140E947E067C
:1030D000A9CDBC016052710977FF02C06F5F7F4FBD
:1030E000759567958091B9029091BA0283579109BD
:1030F00097FD019600E210E023E730E044E850E05D
:10310000B3CC8CE3C7CC8091DB020E945D0F809131
:10311000DC020E945D0F8091DB02082E000C990BEF
:10312000FC01E858F54FE491F0E0EE0FFF1FEC5979
:10313000F54F259134913093E3022093E202FC0194
:10314000E457F54FE491E093E8028091DC02082E09
:10315000000C990BFC01E858F54FE491F0E0EE0FFC
:10316000FF1FEC59F54FA591B491B093E502A093E0
:10317000E402FC01E457F54FE491E093E9028C91FD
:10318000E82BEC938091D0029091D102892B89F1A8
:10319000CFB7F8948091C301811124C0E2E8FAE02E
:1031A0008491E6E9FAE09491E82FF0E0EE0FFF1F3A
:1031B000E259F54FA591B491EC91E92321F461E036
:1031C0008AE00E94DD138AE00E945D0F8CB5806169
:1031D0008CBD8CB580648CBD8DE00E945D0F8BE052
:1031E0000E945D0F8091C3018F5F8093C301CFBFA9
:1031F00086CC8091D9020E945D0F8091DA020E94F4
:103200005D0F8091D902082E000C990BFC01E85843
:10321000F54FE491F0E0EE0FFF1FEC59F54F2591CB
:1032200034913093DF022093DE02FC01E457F54F26
:10323000E491E093E6028091DA02082E000C990BEB
:10324000FC01E858F54FE491F0E0EE0FFF1FEC5958
:10325000F54FA591B491B093E102A093E002FC0177
:10326000E457F54FE491E093E7028C91E095E82371
:10327000EC9345CC8091D0029091D102892B31F012
:103280008091EA029091EB020E94C60CE091E40268
:10329000F091E50290818091E902809589238083F5
:1032A00060CC60E175CC8034910509F08FCC63E08F
:1032B00081E790E00E94D80F8091D702813011F011
:1032C0006FEC19C06FE917C08036910509F07ECC0C
:1032D0008091BB029091BC02409709F077CC63E0EB
:1032E0008EE690E00E94D80F8091D702813011F0D5
:1032F0006FEA01C060E185EB92E00E94630C66CC4E
:1033000062E26FCCE091E402F091E502908180915D
:10331000E902892B80838091D0029091D102892B80
:1033200009F479CC0E945B0C76CCE8E1F2E01382E0
:10333000128288EE93E0A0E0B0E084839583A683B8
:10334000B7832AE031E03183208325EC30E03587F4
:10335000248724EC30E03787268720EC30E0318B5F
:10336000208B21EC30E0338B228B22EC30E0358B4C
:10337000248B26EC30E0378B268B118E128E138E29
:10338000148EE4EFF2E01382128284839583A68385
:10339000B7838CE191E091838083E5EBF2E01382C7
:1033A000128220E830E03583248380E490E0978324
:1033B00086833187208793878287168A15861486AD
:1033C0001786168681E0858B848B2FEF3FEF338B3A
:1033D000228B318B208B878B108E128E118E8EE27A
:1033E00091E091838083148E138E168E158E10A219
:1033F000178E8BE084A38CE085A389E086A38AE006
:1034000087A388E080A780E585AB16AA0895A1E28E
:103410001A2EAA1BBB1BFD010DC0AA1FBB1FEE1F4E
:10342000FF1FA217B307E407F50720F0A21BB30B99
:10343000E40BF50B661F771F881F991F1A9469F715
:1034400060957095809590959B01AC01BD01CF0171
:103450000895EE0FFF1F0590F491E02D09940F934E
:103460001F93CF93DF938230910510F482E090E0B8
:10347000E0910203F091030320E030E0A0E0B0E02F
:10348000309719F140815181028113814817590702
:10349000C8F08417950769F4109731F012960C93D1
:1034A000129713961C9327C00093020310930303F3
:1034B00022C02115310519F04217530718F49A015B
:1034C000BD01EF01DF01F801DBCF21153105F9F076
:1034D000281B390B2430310580F48A819B816115CA
:1034E000710521F0FB019383828304C09093030351
:1034F00080930203FE01329644C0FE01E20FF31FE7
:103500008193919322503109398328833AC02091C5
:10351000000330910103232B41F4209102013091EB
:1035200003013093010320930003209100013091A7
:1035300001012115310541F42DB73EB74091040139
:1035400050910501241B350BE0910003F09101031C
:10355000E217F307A0F42E1B3F0B2817390778F06A
:10356000AC014E5F5F4F2417350748F04E0F5F1FC9
:1035700050930103409300038193919302C0E0E0D4
:10358000F0E0CF01DF91CF911F910F910895CF937C
:10359000DF93009709F481C0FC01329713821282F5
:1035A000A0910203B0910303109781F4208131812F
:1035B000820F931F209100033091010328173907D0
:1035C00051F5F0930103E093000367C0ED0120E0A3
:1035D00030E0CE17DF0740F44A815B819E01411540
:1035E0005105F1F0EA01F5CFD383C28340815181C7
:1035F000840F951FC817D90759F488819981840FC2
:10360000951F0296918380838A819B819383828315
:103610002115310529F4F0930303E09302033DC023
:10362000E901FB83EA8349915991C40FD51FEC1737
:10363000FD0761F480819181840F951F0296E90155
:1036400099838883828193819B838A83E0E0F0E081
:1036500012968D919C911397009719F0FD01DC0152
:10366000F7CF8D919C9111979D012E5F3F4F820F57
:10367000931F20910003309101032817390769F443
:10368000309729F4109203031092020302C01382B0
:103690001282B0930103A0930003DF91CF910895AC
:1036A00081E090E0F8940C945C1BDC0101C06D9308
:1036B00041505040E0F7089515E0C1E5D5E004C061
:1036C000FE010E94291A2196C235D107C9F7F89444
:0236D000FFCF2A
:1036D200000004038000000000000F067C05A60520
:1036E2005C06D705B505C90500000000690A3C0A59
:1036F200990AFB08340A200A110A000000002B0B69
:103702007C05990A980A8806FB082409FC0818090E
:103712000C092B09FB0846070B0E9C0AE00A440819
:0A3722002708BA075B070D0A000034
:00000001FF
