:100000000C9479060C94A1060C94A1060C94A106FC
:100010000C94A1060C94A1060C94A1060C94A106C4
:100020000C94A1060C94A1060C94A30F0C9415102B
:100030000C94A1060C94A1060C94A1060C94A106A4
:100040000C94A1060C94A1060C94A1060C94A10694
:100050000C94A1060C94A1060C94A1060C94650EB8
:100060000C94A1060C94A1060C94A1060C94A10674
:100070000C94A1060C94A1060C94A1060C94A10664
:100080000C94A1060C94A1060C94A1060C94A10654
:100090000C94E60C0C94A1060C94A1060C94A106F9
:1000A0000C94A1060C94A1060C94A1066B126E127E
:1000B0005D12611267128F128F128F1272127612F6
:1000C0007A12801284128F128A12DB40A4A62EAFFD
:1000D000DA0281DA1281DA02818F2000A1C8D3000E
:1000E000408DAED580A80000600000000000000038
:1000F00000000000000000E0000000000000000020
:10010000000000000001E00000000000000000000E
:100110000000000001F000000000000000000000EE
:1001200000000003F00000000000000000000000DC
:10013000000007F0000000000000000000000000C8
:100140000007F800000000000000000000000000B0
:100150000FF800000003C0007E000001E0007F0FE8
:10016000F800000003C000FE000001E000FFEFF80F
:1001700000000003C000FE000001E000FFFFF800E7
:10018000000003C000F00000000F007FFE7FC000F1
:100190000003C000F00000000F003FFE7FF83FF1B9
:1001A000FBCFFCFEF3BC3DEFE01FFE7FFF7FFBFFBC
:1001B000DFFEFEFFBC3DEFE01FC6FFFF7FFBFFDF62
:1001C000FEFEFFBC3DEFE00FE3C7FE787BC3DE1E03
:1001D000F0FFBC3DEF0007FF87FC787BC3DE1EF01D
:1001E000F83C3DEF0001FFFFF0007BC3C01EF0F0C4
:1001F0003C3DEF0001F37FE03FFBC3CFFEF0F03C5E
:100200003DEF0003E33F807FFBC3DFFEF0F03C3DAA
:10021000EF0007E73C00787BC3DE1EF0F03C3DEFCB
:100220000007FFBE00787BC3DE1EF0F03C3DEF0010
:1002300007FFFE00787BC3DE1EF0F03C3DEF000FB1
:10024000FFFE007FFBFFDFFEF0F03FFDEFE00FFF62
:10025000FF007FFBFFDFFEF0F03FFDEFE00FF9FF57
:10026000003E79F9CF9EF0F01F3DE7E01FF1FF005F
:1002700000000000000000000000001F80FF007F61
:10028000FFFFFFFFFFFFFFFFFFE01C007F007FFF7E
:10029000FFFFFEB46D888D18E000001F007FFFFF98
:1002A000FFFE95AD7DB577E000000F007FFFFFFFFB
:1002B000FEA5AD9D8D19E0000006007FFFFFFFFE4B
:1002C000B5ADEDB57EE0000000000001800000004B
:1002D000000000000000038000000000000000009B
:1002E0000007C000000000000000000007C0000080
:1002F000000000000000000FC0000000000000002F
:1003000000001FE00000000000000000001FE000EF
:1003100000000000000000003FE0000000000000BE
:100320000000003FF00000000000000000007FF02F
:10033000000000000000001FF87FF0000000000037
:1003400000003FFE7FF0000000000000003FFF7F44
:10035000F0000000000000001FFFFBE000000000B4
:100360000000000FFFF9FFC00000000000000FFFB9
:10037000F9FFF800000000000007FFF1FFFF000098
:100380000000000003FC73FFFF800000000000017C
:10039000FE3FFFFF80000000000000FF1E0FFF0077
:1003A0000000000000007FFE1FFC000000000000B5
:1003B000003FFFFFF8000000000000000FDFFFE03B
:1003C000000000000000001F19FFC0000000000036
:1003D00000003F3CFF00000000000000007E7CF8B1
:1003E00000000000000000007FFE7C000000000014
:1003F000000000FFFFFC0000000000000000FFFF05
:10040000FE0000000000000000FFFFFE00000000F2
:1004100000000001FFEFFE0000000000000001FFEF
:10042000CFFE0000000000000003FF07FE000000F8
:100430000000000003FC07FE0000000000000003B5
:10044000F003FE00000000000000018000FE00003C
:1004500000000000000000007E000000000000001E
:100460000000003E000000000000000000000C0042
:100470000000000000078000FC000003C000000036
:10048000078001FC000003C0000000078001FC00A1
:100490000003C0000000078001E00000001E000013
:1004A00000078001E00000001E007FE3F79FF9FDD8
:1004B000E7787BDFC0FFF7FFBFFDFDFF787BDFC084
:1004C000FFF7FFBFFDFDFF787BDFC0F0F787BC3D86
:1004D000E1FF787BDE00F0F787BC3DE1F0787BDE62
:1004E0000000F787803DE1E0787BDE007FF7879FA3
:1004F000FDE1E0787BDE00FFF787BFFDE1E0787B80
:10050000DE00F0F787BC3DE1E0787BDE00F0F787A6
:10051000BC3DE1E0787BDE00F0F787BC3DE1E078B0
:100520007BDE00FFF7FFBFFDE1E07FFBDFC0FFF7F1
:10053000FFBFFDE1E07FFBDFC07CF3F39F3DE1E027
:100540003E7BCFC00000000000000000000000FF64
:10055000FFFFFFFFFFFFFFFFFFC0FFFFFFFFFD6883
:10056000DB111A31C0FFFFFFFFFD2B5AFB6AEFC002
:10057000FFFFFFFFFD4B5B3B1A33C0FFFFFFFFFD9B
:100580006B5BDB6AFDC00000000000000007FFE0BD
:10059000000000000FFFF8000000001FFFFC00003B
:1005A00000003C003C01C00C0038001E01E00C00C3
:1005B00038000E01E00C0078000E01F00C00700015
:1005C0000E01B80C0070000E019C0C0070000E01B2
:1005D0008E0C0070000E01870C0070000E01878CDD
:1005E0000070000E01838C0070000E0181CC007041
:1005F000000E0180EC0078000E01807C0038000EB7
:1006000001803C003C001E01801C003F007C00007B
:1006100000001FFFF8000000000FFFF000000000C6
:1006200001FFC0000000000000000000000000000A
:1006300000000000000000000000000000000000BA
:10064000FFF00000000003FFFC0000000007FFFEB9
:10065000000000000F801F0001FFC01E000F0007F8
:1006600081E01C0007800E00701C0007801C003019
:100670001C000380187FB81C00038038E7381C007A
:10068000038031C7181C0003807187181C00038089
:100690007187181C0003807386181C000380738EFA
:1006A000301C000380739E301C00078071F7E01C33
:1006B00000078039E3C01E0007003800000F001F4C
:1006C000001C00000FFFFE000FCE0007FFFC000320
:1006D000FC0001FFF8000000000000000000000026
:1006E00000240027002A002D003000000000002513
:1006F0000028002B002E003100080B00020202012E
:100700000009040000010202000005240010010598
:1007100024010101042402060524060001070581C5
:100720000310004009040100020A0000000705024E
:100730000240000007058302400000040309041280
:10074000010002EF02014041233680000101020353
:100750000141726475696E6F204C4C4300417264B4
:1007600075696E6F204C656F6E6172646F00000179
:1007700003070F1F3F7F0080C0E0F0F8FCFE000081
:100780000000003E5B4F5B3E3E6B4F6B3E1C3E7C71
:100790003E1C183C7E3C181C577D571C1C5E7F5E1F
:1007A0001C00183C1800FFE7C3E7FF0018241800DE
:1007B000FFE7DBE7FF30483A060E26297929264075
:1007C0007F050507407F05253F5A3CE73C5A7F3EA1
:1007D0001C1C08081C1C3E7F14227F22145F5F0033
:1007E0005F5F06097F017F006689956A60606060CF
:1007F0006094A2FFA29408047E040810207E2010BA
:1008000008082A1C08081C2A08081E101010100CC2
:100810001E0C1E0C30383E3830060E3E0E06000010
:1008200000000000005F00000007000700147F14B4
:100830007F14242A7F2A1223130864623649562023
:10084000500008070300001C2241000041221C0048
:100850002A1C7F1C2A08083E080800807030000807
:1008600008080808000060600020100804023E51DB
:1008700049453E00427F400072494949462141496D
:100880004D331814127F1027454545393C4A4949D4
:100890003141211109073649494936464949291E3E
:1008A000000014000000403400000008142241142D
:1008B00014141414004122140802015909063E417F
:1008C0005D594E7C1211127C7F494949363E4141A7
:1008D00041227F4141413E7F494949417F09090900
:1008E000013E414151737F0808087F00417F41006C
:1008F0002040413F017F081422417F404040407F1B
:10090000021C027F7F0408107F3E4141413E7F0967
:100910000909063E4151215E7F09192946264949A8
:10092000493203017F01033F4040403F1F204020E8
:100930001F3F4038403F63140814630304780403E6
:100940006159494D43007F41414102040810200094
:100950004141417F04020102044040404040000305
:1009600007080020545478407F28444438384444D1
:100970004428384444287F385454541800087E09C9
:100980000218A4A49C787F0804047800447D4000E9
:100990002040403D007F1028440000417F40007C03
:1009A000047804787C080404783844444438FC18FB
:1009B00024241818242418FC7C08040408485454DF
:1009C000542404043F44243C4040207C1C2040200C
:1009D0001C3C4030403C44281028444C9090907C73
:1009E0004464544C44000836410000007700000085
:1009F0004136080002010204023C2623263C1EA1C7
:100A0000A161123A4040207A385454555921555525
:100A100079412254547842215554784020545579D4
:100A2000400C1E5272123955555559395454545967
:100A300039555454580000457C410002457D420020
:100A400001457C407D1211127DF0282528F07C5450
:100A50005545002054547C547C0A097F4932494949
:100A600049323A4444443A324A4848303A414121B2
:100A70007A3A42402078009DA0A07D3D4242423D0E
:100A80003D4040403D3C24FF2424487E4943662BA2
:100A90002FFC2F2BFF0929F620C0887E0903205444
:100AA0005479410000447D413048484A3238404042
:100AB000227A007A0A0A727D0D19317D2629292FA2
:100AC00028262929292630484D40203808080808BA
:100AD00008080808382F10C8ACBA2F102834FA00BC
:100AE000007B000008142A142222142A140855003E
:100AF000550055AA55AA55AAFF55FF55FF000000FD
:100B0000FF00101010FF00141414FF001010FF005D
:100B1000FF1010F010F0141414FC001414F700FF70
:100B20000000FF00FF1414F404FC141417101F102D
:100B3000101F101F1414141F00101010F0000000DC
:100B4000001F101010101F10101010F010000000E7
:100B5000FF101010101010101010FF10000000FFF8
:100B6000140000FF00FF00001F10170000FC04F439
:100B700014141710171414F404F40000FF00F714F1
:100B8000141414141414F700F71414141714101078
:100B90001F101F141414F4141010F010F000001F94
:100BA000101F0000001F14000000FC140000F010D3
:100BB000F01010FF10FF141414FF141010101F0079
:100BC000000000F010FFFFFFFFFFF0F0F0F0F0FF7B
:100BD000FFFF0000000000FFFF0F0F0F0F0F384452
:100BE000443844FC4A4A4A347E02020606027E0227
:100BF0007E0263554941633844443C04407E201ED4
:100C00002006027E020299A5E7A5991C2A492A1C02
:100C10004C7201724C304A4D4D303048784830BCEF
:100C2000625A463D3E494949007E0101017E2A2A19
:100C30002A2A2A44445F444440514A444040444A9A
:100C400051400000FF0103E080FF000008086B6BCB
:100C5000083612362436060F090F06000018180051
:100C600000001010003040FF0101001F01011E00B4
:100C7000191D1712003C3C3C3C0000000000220003
:100C8000FF2100000000002300260029002C002F77
:100C90000004040404040304050202020204030223
:100CA0000202020606060606060404020202040404
:100CB000040802011040804010204080408008025B
:100CC00004018040201002011080102040402000CC
:100CD00000000200090F0000030401000C000000E6
:100CE0000000000000000000000000000000AB2039
:100CF000BC1B11241FBECFEFDAE0DEBFCDBF11E079
:100D0000A0E0B1E0E6E5F5E402C005900D92A23A5C
:100D1000B107D9F723E0A2EAB1E001C01D92A032E9
:100D2000B207E1F716E0C8E7D6E004C02197FE015C
:100D30000E945721C737D107C9F70E94CB1B0C94DB
:100D40009E220C940000FC0177FDB9C0808591853E
:100D5000681779070CF0B3C057FDB1C08285938541
:100D6000481759070CF008958689823079F48481F8
:100D70009581DC01A61BB70BBD016150710986810D
:100D80009781DC01A41BB50BAD010EC0833009F0C7
:100D900084C064277527CA01862797276827792783
:100DA00046815781481B590B41505109213031056B
:100DB00031F048F12230310509F44AC00895CA01E2
:100DC00057FD07969C01A3E035952795AA95E1F775
:100DD000A481B5812A9FC0012B9F900D3A9F900D51
:100DE0001124680F791F078CF0A1E02DE60FF71F83
:100DF0004770552781E090E001C0880F4A95EAF7D7
:100E00009081892B48C0CA0157FD07969C0193E049
:100E1000359527959A95E1F7A481B5812A9FC00160
:100E20002B9F900D3A9F900D1124680F791F078C0E
:100E3000F0A1E02DE60FF71F4770552781E090E005
:100E400001C0880F4A95EAF780959081892323C0D5
:100E5000CA0157FD07969C0183E0359527958A9531
:100E6000E1F7A481B5812A9FC0012B9F900D3A9F85
:100E7000900D1124680F791F078CF0A1E02DE60F6B
:100E8000F71F4770552781E090E001C0880F4A9511
:100E9000EAF79081892780830895813009F086CF11
:100EA00064277527462757276427752784819581EE
:100EB000DC01A61BB70BBD016150710977CF089506
:100EC0000895FC016370668B84819581268137814A
:100ED000613039F0633029F091878087338722872A
:100EE0000895318720879387828708956F927F9234
:100EF0008F929F92AF92BF92CF92DF92EF92FF922A
:100F00000F931F93CF93DF93EC014B015A016901BB
:100F10003801E881F9810284F385E02D0995E881A3
:100F2000F9810288F389E02D87019601A501B401BA
:100F3000CE010995A501460D571D41505109E88183
:100F4000F9810288F389E02D9601B401CE0109955B
:100F5000E881F9810088F189E02D9301A501B401B0
:100F6000CE010995C80CD91CB60161507109E88100
:100F7000F9810088F189E02D9301A501CE01099541
:100F8000E881F9810688F789E02DCE01DF91CF91C4
:100F90001F910F91FF90EF90DF90CF90BF90AF9097
:100FA0009F908F907F906F9009948F929F92AF92B5
:100FB000BF92CF92DF92EF92FF920F931F93CF9346
:100FC000DF934C016B015A01E901DC01ED91FC91C9
:100FD0006217730781F40417150724F48B2D580149
:100FE000042F182F0A191B0998012F5F3F4F048CFB
:100FF000F58DE02D12C04017510709F52617370768
:1010000024F48D2D6901C62FD82F9E012C193D097E
:101010002F5F3F4F068CF78DE02D8701A501B601AC
:10102000C4010995DF91CF911F910F91FF90EF902F
:10103000DF90CF90BF90AF909F908F9008950284E3
:10104000F385E02D0995D401ED91FC910488F58993
:10105000E02D9E01A501B601C4010995D401ED91D1
:10106000FC910688F789E02DC401DF91CF911F9193
:101070000F91FF90EF90DF90CF90BF90AF909F9037
:101080008F900994EF92FF920F931F93DC011A96B1
:101090000D911C911B9718962D913C911997ED91EC
:1010A000FC9100A0F1A1E02D7B0140E050E060E068
:1010B00070E009951F910F91FF90EF9008954F9266
:1010C0005F926F927F928F929F92AF92BF92CF92D8
:1010D000DF92EF92FF920F931F93CF93DF936C01F8
:1010E0002B015A0139014801DC01ED91FC91028488
:1010F000F385E02D0995E201640C751CD601ED9194
:10110000FC91C615D7055CF40088F189E02D8701B4
:101110009401A501BE01C60109952196EFCF06886D
:10112000F789E02DC601DF91CF911F910F91FF90BC
:10113000EF90DF90CF90BF90AF909F908F907F9077
:101140006F905F904F9009948F929F92AF92BF9251
:10115000CF92DF92EF92FF920F931F93CF93DF9383
:10116000EC015B014A016901E881F9810284F385A0
:10117000E02D099595012C0D3D1D21503109E88187
:10118000F9810488F589E02D78018401A401B50175
:10119000CE010995E881F9810688F789E02DCE0115
:1011A000DF91CF911F910F91FF90EF90DF90CF9043
:1011B000BF90AF909F908F9009948F929F92AF9223
:1011C000BF92CF92DF92EF92FF920F931F93CF9334
:1011D000DF93EC015B014A0169017801E881F98143
:1011E0000284F385E02D0995C80CD91C86010150B5
:1011F0001109E881F9810488F589E02D9501A401A0
:10120000B501CE010995E881F9810688F789E02DBD
:10121000CE01DF91CF911F910F91FF90EF90DF9062
:10122000CF90BF90AF909F908F9009940895EF92C8
:10123000FF920F931F93DC01ED91FC9100A0F1A1AF
:10124000E02D09951F910F91FF90EF9008950F9356
:101250001F93DC01ED91FC91068CF78DE02D099533
:101260001F910F9108950F931F93DC01ED91FC9155
:10127000048CF58DE02D09951F910F910895DC01E7
:10128000ED91FC910084F185E02D09942F923F921D
:101290004F925F926F927F928F929F92AF92BF9286
:1012A000CF92DF92EF92FF920F931F93CF93DF9332
:1012B00000D000D000D0CDB7DEB72C017E836D8387
:1012C0006A015901C801FC82EB824801841A950A1F
:1012D00097FE03C091948194910835012D813E8140
:1012E000621A730A77FE03C07194619471086814DE
:1012F00079045CF43A2D2B2D5C01832F922F3D81D4
:101300002E81DE82CD82C32ED22EAD81BE81AA1661
:10131000BB065CF43C2D2D2D6C01832F922F3D815B
:101320002E81BE82AD82A32EB22E85012D813E81FB
:10133000021B130B1C012C183D0837FE03C031940F
:1013400021943108780117FF03C03FEFE31AF30A35
:10135000F594E794C816D9062CF08FEF9FEF9A8387
:10136000898304C0A1E0B0E0BA83A9832D813E81C6
:10137000A216B30624F1D201ED91FC910484F58507
:10138000E02D2B813C816814790424F44D815E8129
:10139000B60103C0A6016D817E81C2010995E218E4
:1013A000F308F7FE06C029813A81C20ED31EE00E73
:1013B000F11E8D819E8101969E838D83D7CF2696C7
:1013C0000FB6F894DEBF0FBECDBFDF91CF911F9156
:1013D0000F91FF90EF90DF90CF90BF90AF909F90D4
:1013E0008F907F906F905F904F903F902F900895D7
:1013F00085ED8093BC008091BC0084FDFCCF1092F1
:10140000510208954091E201262F30E0240F311D52
:1014100021323105DCF4209151022430C9F4FC0161
:1014200080E090E0861758F43091E2012191DC01D0
:10143000AE53BE4FA30FB11D2C930196F3CF8091F5
:10144000E201680F6093E20180E0089581E0089571
:1014500082E0089508950895E0910A0280910902BA
:10146000E81730F4F0E0EE55FE4F808190E00895EB
:101470008FEF9FEF089590910A02809109029817CB
:1014800050F4E92FF0E0EE55FE4F208130E09F5FF1
:1014900090930A0202C02FEF3FEFC9010895809197
:1014A000090290E020910A02821B91090895CF92CF
:1014B000DF92EF92FF920F931F93CF93DF937C0104
:1014C000CB018A0120915202222389F0EB016B01AA
:1014D000C40ED51ECC15DD0569F06991D701ED91DB
:1014E000FC910190F081E02DC7010995F3CF642FA5
:1014F0000E94020AC801DF91CF911F910F91FF90C6
:10150000EF90DF90CF900895CF93DF931F92CDB7E8
:10151000DEB76983209152022223D1F02091750217
:10152000203240F021E030E0FC013383228380E070
:1015300090E015C080915302E82FF0E0EC5AFD4F87
:10154000998190838F5F809353028093750205C0C9
:1015500061E0CE0101960E94020A81E090E00F90C6
:10156000DF91CF910895089580E090E008950F9362
:101570001F93CF93DF93DC015696EC915697E230A0
:1015800071F0E330E9F0E13079F5FB0114960D904C
:10159000BC91A02DA41BB50BA21BB30B18C0EC0172
:1015A000EC81FD81E61BF70BBF0161507109EE81F3
:1015B000FF81DF01A41BB50BAD01421B530B14C00F
:1015C000DA01EC01EE81FF81E61BF70B3197F7FDA5
:1015D0000DC0EC014E815F81E417F5073CF4AF01CB
:1015E000BD010E94241602C00E948B16DF91CF918C
:1015F0001F910F9108950F931F93DC015696EC9164
:101600005697E23061F0E33009F1E13081F514964C
:10161000ED91FC911597E41BF50B319723C0DC018C
:101620001496ED91FC911597DF01A61BB70BBD0138
:10163000DC011696ED91FC911797DF01A41BB50B09
:10164000AD0141505109621B730B11C0FA01DC015D
:1016500016964D915C911797DA01A61BB70BBD0149
:10166000621B730BAB01BF010E948B160CC057FDB0
:101670000AC0DC011696ED91FC9117974E175F0793
:1016800014F40E9424161F910F9108958F929F9237
:10169000AF92CF92EF92FF920F931F93CF93DF936E
:1016A000EC01262F898D9A8D009709F042C06A308F
:1016B00059F41D861C862D898E859F8538E0239FD1
:1016C000800D911D112443C06D3009F4AAC08F898B
:1016D0008823C9F03C898C859D8546E0349F800D28
:1016E000911D1124488559854817590764F41D86B2
:1016F0001C863D898E859F8548E0349F800D911D15
:1017000011249F878E87EA88FB88088919894E856E
:101710005F856C857D85AD88CC88CE010E94F013F5
:101720002C898C859D8536E0239F800D911D112489
:101730003EC06A3079F41D861C862D89FC013696E0
:10174000E4918E859F852E9F800D911D11249F878A
:101750008E8767C06D3009F464C0FC013496349103
:10176000631708F45EC03196E491E61708F459C097
:10177000462F431B342FFC0132968590949047E00E
:10178000349F800C911C1124F401329634913196CF
:10179000E491332311F0E1110DC0F4013496E4918A
:1017A0002C898C859D85E29F800D911D11249D873C
:1017B0008C8737C0F401359644915F89552319F120
:1017C0005C89E32FF0E0E40FF11D47FDFA955E9F81
:1017D000B0015F9F700D11244C855D85460F571F2A
:1017E000688579856417750774F41D861C863D89A4
:1017F000FC013696E4918E859F853E9F800D911D5C
:1018000011249F878E87EA88FB88088919894E856D
:101810005F856C857D85AD88CC88CE010E94F013F4
:10182000BCCF81E090E0DF91CF911F910F91FF90AD
:10183000EF90CF90AF909F908F90089508958EBDB8
:1018400000000DB407FEFDCF8EB508951F93CF9312
:10185000DF93FC01858D968D009729F1162FEF01FE
:1018600021A131E03093520220937402109253026E
:1018700010927502DC01ED91FC910190F081E02D58
:1018800060E009958D8D9E8DDC01ED91FC910190BC
:10189000F081E02D612F09958D8D9E8DDF91CF9187
:1018A0001F910C946119A5A5B6A59C9183A980955B
:1018B00089238C93838D948D892B31F0862FDF9132
:1018C000CF911F910C941F0C28E030E080E8A1A577
:1018D000B2A591A9462F482319F04C91942B03C02F
:1018E0004C91909594239C93A3A5B4A54C9192A957
:1018F000942B9C93A3A5B4A54C9192A99095942365
:101900009C9386952150310911F7DF91CF911F915A
:1019100008958CBD9DBD08951F93CF93DF93EC0177
:10192000162F8D8D9E8D892BB1F02FA938AD49AD25
:101930005AAD60E074E284EF90E00E943521DA0154
:10194000C9014097A109B109B695A79597958795C3
:101950008093B8000FC08B8D9C8D892B21F08DA9B1
:101960009EA90E94890CEFA5F8A990818CA9809569
:1019700089238083111102C066EA01C067EACE01A3
:101980000E94260C8D8D9E8D892BB1F02BAD3CAD28
:101990004DAD5EAD60E074E284EF90E00E943521D1
:1019A000DA01C9014097A109B109B695A7959795A4
:1019B00087958093B80006C0EFA5F8A990818CA9FF
:1019C000892B8083DF91CF911F9108951F920F92F1
:1019D0000FB60F9211242F933F934F935F936F9302
:1019E0007F938F939F93AF93BF93EF93FF938091D8
:1019F000B900887F803609F49CC068F5883209F404
:101A00005BC090F4803109F454C038F4882309F4A1
:101A1000F6C0883009F44DC0F6C0883109F44CC0D6
:101A2000803209F45DC0EFC0803409F468C048F426
:101A3000803309F455C0883309F0E5C080934F0224
:101A4000D8C0803509F44FC0883509F45DC08834AA
:101A500009F0D9C0D6C0883909F4C7C0A8F48837BE
:101A600009F467C038F4883609F463C0803709F494
:101A700060C0C9C0883809F4B8C0803909F45FC0B3
:101A8000803809F0C0C05BC0803B09F486C038F4E0
:101A9000803A09F466C0883A09F47FC0B4C0803C3B
:101AA00009F4A7C0883C09F4A4C0883B09F48AC0A3
:101AB000AAC080912C0210C090914E0280914D02DC
:101AC000981770F5E0914E0281E08E0F80934E02E0
:101AD000F0E0E35DFD4F80818093BB0085EC86C024
:101AE00080934F028EC0E0914E0281E08E0F809372
:101AF0004E028091BB00F0E0E35DFD4F808390914A
:101B00004E0280914D026EC0E0914E0281E08E0F38
:101B100080934E028091BB00F0E0E35DFD4F808337
:101B20008091500281116DC081E080932B0284EA84
:101B300061C083E08093510210920402CFCF809164
:101B40000402803208F051C0E091040281E08E0F5F
:101B5000809304028091BB00F0E0EC51FE4F808343
:101B6000BDCF85EC8093BC0010925102809104029D
:101B7000803230F4E0910402F0E0EC51FE4F10822C
:101B80006091040270E0E0910502F091060284EE9B
:101B900091E009951092040236C084E080935102CE
:101BA0001092E3011092E201E0910702F091080225
:101BB00009958091E201811105C081E08093E201E5
:101BC0001092C201E091E30181E08E0F8093E30166
:101BD000F0E0EE53FE4F80818093BB009091E301D3
:101BE0008091E201981708F479CF85E88093BC00D2
:101BF0000AC085EC8093BC001092510204C0109280
:101C00004F020E94F809FF91EF91BF91AF919F9110
:101C10008F917F916F915F914F913F912F910F9095
:101C20000FBE0F901F901895CF92DF92EF92FF9208
:101C30000F931F93CF93DF936C017A018B01C0E068
:101C4000D0E0CE15DF0581F0D8016D918D01D60170
:101C5000ED91FC910190F081E02DC6010995892B51
:101C600011F02196EECF7E01C701DF91CF911F9138
:101C70000F91FF90EF90DF90CF9008950E949222F5
:101C80003FB7F8948091110290911202A091130233
:101C9000B091140226B5A89B05C02F3F19F00196FC
:101CA000A11DB11D3FBFBA2FA92F982F8827820FE2
:101CB000911DA11DB11DBC01CD0142E0660F771F32
:101CC000881F991F4A95D1F708951F920F920FB65A
:101CD0000F9211242F933F938F939F93AF93BF93B2
:101CE00080910D0290910E02A0910F02B09110020E
:101CF00030910C0223E0230F2D3720F40196A11D13
:101D0000B11D05C026E8230F0296A11DB11D209329
:101D10000C0280930D0290930E02A0930F02B093D9
:101D200010028091110290911202A0911302B091C1
:101D300014020196A11DB11D80931102909312020D
:101D4000A0931302B0931402BF91AF919F918F9112
:101D50003F912F910F900FBE0F901F901895FC018F
:101D60008485958597FD0BC09FB7F89482E080939A
:101D7000E9008091F2009FBF90E0019608959FB71F
:101D8000F89482E08093E9008091F2009FBF90E098
:101D90000895409118025091190220911602309135
:101DA000170242175307B4F49091E8009570E1F3DD
:101DB0009091E80092FD19C08093F1008091180283
:101DC0009091190201968F739927892B19F48EEF40
:101DD0008093E800809118029091190201969093E7
:101DE00019028093180281E0089580E00895DF923F
:101DF000EF92FF920F931F93CF93DF93D82E8A0118
:101E00007B01E40EF51EEB01CE15DF0571F0D7FE68
:101E100003C0FE01849101C088810E94C90E2196F1
:101E20008111F2CF8FEF9FEF01C0C801DF91CF91F9
:101E30001F910F91FF90EF90DF900895615030F067
:101E40002091F100FC0120830196F8CF289884E6C8
:101E500080931D0208950E946E1790E008950F93DD
:101E60001F93CF93DF931F92CDB7DEB78C01FC0198
:101E70008485958597FF0EC0CE0101960E9440177C
:101E8000019719F4898190E002C08FEF9FEFF8016C
:101E900095878487F801848595850F90DF91CF9190
:101EA0001F910F910895CF93DF931F92CDB7DEB7A7
:101EB000FC018485958597FD05C02FEF3FEF3587A1
:101EC00024870BC0CE0101960E944017019719F498
:101ED000898190E002C08FEF9FEF0F90DF91CF914B
:101EE00008950F931F93CF93DF931F92CDB7DEB763
:101EF00082E0898342E450E069EF76E080E80E9466
:101F0000F70E0E940518DC0112960D911C91139793
:101F10000115110589F0D801ED91FC910280F38142
:101F2000E02DBE016F5F7F4FC801099597FD04C08A
:101F3000F80100851185ECCF89810F90DF91CF9159
:101F40001F910F9108951F920F920FB60F921124B7
:101F50008F939F938091E1009091E100937F909304
:101F6000E10083FF0FC01092E90091E09093EB0035
:101F70001092EC0092E39093ED0010921E0298E014
:101F80009093F00082FF20C093E09093E90090913D
:101F9000F200992319F09AE39093E80090911B02C4
:101FA000992339F090911B02915090931B02992331
:101FB00089F190911D02992339F090911D02915061
:101FC00090931D02992341F184FF10C08091E2009B
:101FD0008E7E81608093E2008091E1008F7E80930D
:101FE000E10080911C028E7E806111C080FF16C0CE
:101FF0008091E2008E7E80618093E2008091E1001A
:102000008E7E8093E10080911C028E7E81608093A1
:102010001C0204C05D9ACDCF289AD6CF9F918F9194
:102020000F900FBE0F901F9018951F920F920FB632
:102030000F921124CF92DF92EF92FF920F931F9392
:102040002F933F934F935F936F937F938F939F93C0
:10205000AF93BF93EF93FF93CF93DF93CDB7DEB7EB
:102060006C97DEBFCDBF1092E9008091E80083FF3E
:10207000FBC168E0CE0145960E941E0F82EF80935F
:10208000E8008D8987FF05C09091E80090FFFCCFA4
:1020900003C09EEF9093E800982F907609F0C6C099
:1020A0009E894F89588D2F89F88C91110CC08038EA
:1020B00029F4809115028093F10002C01092F10082
:1020C0001092F10045C1913051F4811141C141306C
:1020D000510509F03DC1809115028D7F0BC09330F1
:1020E00061F4811135C14130510509F031C1809150
:1020F00015028260809315022BC1953049F48091BE
:10210000E80080FFFCCF822F80688093E30020C12D
:10211000963009F05EC00B8D1C8D22E01092E90014
:102120001092190210921802F21232C01092170285
:10213000109216020E94710F99E0BE016F5F7F4FEF
:10214000DB01E92F1D92EA95E9F79983FA8291E084
:102150009E8390EA98879AEF998720911802309190
:102160001902275F3F4F3C832B838D831092E90038
:10217000109219021092180210931702009316027F
:1021800049E050E080E00E94F70E0E94710FE0C02D
:1021900010931702009316020E940518DC01129694
:1021A0000D911C9113970115110509F4BBC0D801BD
:1021B000ED91FC910480F581E02DBE016B5E7F4FB7
:1021C000C8010995009709F0C7C0F801008511857D
:1021D000EACF973009F445C1983021F481E080932B
:1021E000F100B6C0993009F0B3C0837009F039C16D
:1021F000E2E2F1E081E031E096E32081211109C0C3
:102200008EE78093EA001092EA008F8980931E0285
:102210009FC08093E9003093EB0021912093EC0064
:102220009093ED008F5F873041F7EACF8B8D9C8DC7
:102230001092E9001092190210921802909317025E
:1022400080931602898D811153C08E899D89913AA0
:1022500049F4813209F005C147E050E065E071E0E2
:1022600080E0BBC0913209F0FCC0833269F48F89F1
:10227000988DA0E0B0E08093010190930201A093BB
:102280000301B093040164C0803269F48091E800D6
:1022900082FFFCCF67E085E091E00E941E0F8BEF8C
:1022A0008093E80055C0823209F052C08F89809334
:1022B0000C01EEEFFFE7859194918B3F9C4D19F057
:1022C000E0E0F8E002C0EEEFFAE0809105019091C5
:1022D0000601A0910701B0910801803B9440A1053F
:1022E000B10509F09EC080910C0180FF79C099C0B2
:1022F0000E940518FC01028113810115110509F4E2
:10230000B0C0D801ED91FC910190F081E02DBE01AB
:102310006B5E7F4FC801099581111AC0F8010085D5
:102320001185EBCFF1E0FF1609F44EC0F3E0FF1288
:1023300098C08F89882309F44AC0823089F440E824
:1023400060E18DE597E00E947620882309F489C03A
:102350008EEF8093E80088C018161906CCF381C070
:10236000813029F440E86BE081E597E0ECCF8330E1
:1023700009F077C00E940518DC011296ED90FC90E0
:1023800013978E010F5F1F4F6801E114F10479F07C
:10239000D701ED91FC910680F781E02DB801C701CE
:1023A0000995080F111DF701E084F184EECFD801E3
:1023B0001C92F60101900020E9F73197BF016C19DA
:1023C0007D0940E0C601BFCF6FE377E002C06BE359
:1023D00077E0FB01449150E080E80E94F70EB8CF0F
:1023E000EE3F2AE0F20751F0808191818737A7E71D
:1023F0009A0721F09093FF0A8093FE0A87E797E7F8
:10240000918380838091600080931A029BE088E131
:102410000FB6F894A895809360000FBE909360006B
:1024200097CF808191818737974709F091CFA89501
:102430008091600088618093600080911A0280938F
:102440006000EE3FBAE0FB0739F08091FE0A909100
:10245000FF0A918380837CCF1092FF0A1092FE0ABC
:1024600077CF81E28093EB006C960FB6F894DEBFD5
:102470000FBECDBFDF91CF91FF91EF91BF91AF9193
:102480009F918F917F916F915F914F913F912F918C
:102490001F910F91FF90EF90DF90CF900F900FBEA4
:1024A0000F901F90189590E0FC013197EF30F105E7
:1024B000B0F5EA5AFF4F0C945721809180008F7736
:1024C00003C0809180008F7D80938000089580916B
:1024D0008000877FF9CF84B58F7702C084B58F7D68
:1024E00084BD0895809190008F7707C080919000FF
:1024F0008F7D03C080919000877F80939000089526
:102500008091C0008F7703C08091C0008F7D809341
:10251000C00008958091C200877F8093C200089513
:102520001F93CF93DF93282F30E0F901E153F34F4E
:102530008491F901E055F34FD491F901EF56F34F2F
:10254000C491CC23C1F0162F81110E945312EC2F9D
:10255000F0E0EE0FFF1FE551F94FA591B4919FB741
:10256000F894111104C08C91D095D82302C0EC913D
:10257000DE2BDC939FBFDF91CF911F910895CF9306
:10258000DF9390E0FC01E055F34F2491FC01EF56FE
:10259000F34F8491882361F190E0880F991FFC012B
:1025A000E352F94FC591D491FC01E551F94FA59142
:1025B000B491611109C09FB7F89488812095822356
:1025C0008883EC912E230BC0623061F49FB7F8949E
:1025D0008881322F309583238883EC912E2B2C9386
:1025E0009FBF06C08FB7F894E8812E2B28838FBF3A
:1025F000DF91CF9108958F929F92AF92BF92CF9229
:10260000DF92EF92FF926B017C010E94400E4B0122
:102610005C01C114D104E104F104F1F00E94400E08
:10262000DC01CB0188199909AA09BB09883E9340AE
:10263000A105B10570F321E0C21AD108E108F10843
:1026400088EE880E83E0981EA11CB11CC114D10431
:10265000E104F10419F7DDCFFF90EF90DF90CF9008
:10266000BF90AF909F908F900895CF93DF931F926C
:10267000CDB7DEB76983DC01ED91FC910280F38177
:10268000E02D41E050E0BE016F5F7F4F09950F9054
:10269000DF91CF91089583E08093E9008091F2006B
:1026A000882319F08AE38093E8000895EF92FF925F
:1026B0000F931F93CF93DF93CDB7DEB728970FB655
:1026C000F894DEBF0FBECDBF60E0809178020E941B
:1026D000901261E0809176020E9490128FEB0E942E
:1026E000191809E712E081E8E82E82E0F82E0E942E
:1026F0006A18F80181938F01EE16FF06C1F760E0BA
:10270000809176020E94901280917902482F46951E
:10271000469546954E70942F990F990F490F8F70DB
:10272000480F80917A02382F3695369536953E704F
:10273000932F990F990F390F8F70380F80917B026B
:10274000282F2F7087FF08C085FB992790F9FCE0A0
:102750009F9F200D112409C08073869586958695CC
:10276000982F990F990F890F280F60917C02709113
:102770007D02E0917E0280917F02562F56955695FC
:1027800056955E70952F990F990F590F6F70560FD0
:10279000672F6695669566956E70962F990F990FBF
:1027A000690F7F70670F982F92959F708F707AE0F6
:1027B000979F800D112490E08053984F9F838E83C4
:1027C000782F8F819E2F28960FB6F894DEBF0FBE0C
:1027D000CDBFDF91CF911F910F91FF90EF900895A2
:1027E0002F923F924F925F926F927F928F929F9221
:1027F000AF92BF92CF92DF92EF92FF920F931F930F
:10280000CF93DF93CDB7DEB76B970FB6F894DEBFEB
:102810000FBECDBF9B8F8A8F1B014A01D22E198715
:1028200008873701A982DC0159962D913C915A976E
:102830002115310509F0FFC018968D919C911997CB
:10284000681779070CF0E7C11A968D919C911B9738
:10285000481759070CF0DFC1EC2DF0E0FB83EA8349
:102860009B0146E0C49E200D311D11243D872C871D
:10287000121613060CF0CFC16A2D70E07B876A87B1
:1028800083E0660F771F8A95E1F77F876E87CB011C
:10289000880D991D181619060CF0BDC158968C911B
:1028A000811104C08FEA8D1508F4D394AA8DBB8DD5
:1028B000ED91FC9111970284F385E02DCD010995EE
:1028C000B5E0DB9EC0011124EC2DF0E0F98BE88B24
:1028D00091012B5F3F4F3B8B2A8B3D822C82210144
:1028E000AC01421953095D8B4C8B7981672F70E0E5
:1028F0007F8B6E8BC4010896998F888FEC89FD8938
:10290000E40DF51DE258F84FD49054019F828E8259
:10291000D0FE16C0AA8DBB8DED91FC91B1E0CB121B
:1029200009C02981213031F40484F585E02D288502
:10293000398519C00684F785E02DE884F9841DC027
:10294000488559854615570519F1AA8DBB8DED911E
:10295000FC91B1E0CB120DC02981213051F40484E7
:10296000F585E02D9301A501B2018A8D9B8D099516
:102970000FC00684F785E02D73010A851B852A8127
:102980003B814E815F816C817D818A8D9B8D099514
:10299000D6943FEFA31AB30A4E815F816E897F8977
:1029A000460F571F5F834E83888D998DA816B906F1
:1029B00009F0AECF9FEF491A590AAC81BD81E88971
:1029C000F989AE0FBF1FBD83AC832A893B894216AC
:1029D000530609F093CF488559854615570509F4E4
:1029E000F8C0AA8DBB8DED91FC91B1E0CB1211C066
:1029F0002981213071F4B1016B5F7F4F0088F1892B
:102A0000E02D830128E030E0A4018A8D9B8D09959B
:102A1000E0C06C857D854A815B81641B750B0684F3
:102A2000F785E02D73010E851F859A01A4018A8D1B
:102A30009B8D0995CEC0F9013496E491DE1AF90117
:102A4000329685919491B7E0DB9E800D911D112403
:102A5000F901259134913B8B2A8BFC01259134910E
:102A60005901FC0132965490319634913C8732964C
:102A700074903196149141E04C1518F05981523000
:102A800068F0672D072C000C770B7D836C83812FFA
:102A9000012E000C990B9B838A8304C01B821A822F
:102AA0001D821C82AA8DBB8DED91FC911197028431
:102AB000F385E02DCD010995412CD12C612CF981B4
:102AC000EF2FF0E0FF83EE832C2D30E03B872A8749
:102AD000A401410F511D17FD5A955F8B4E8BB1011B
:102AE000670D711D77FC7A95798F688F7C856716E5
:102AF00008F06FC0262D30E04A815B81420F531FE2
:102B0000AE81BF81A49FC001A59F900DB49F900D81
:102B10001124F401E80FF91FF98BE88B842D712C37
:102B20004E895F89420F531F5D8B4C8B751408F0E3
:102B30004DC051E0580F5E87877041F4C501019682
:102B4000EA89FB89EA0DFB1DD4905C01D7FE3AC0EF
:102B500061E0C61216C07981713099F4AA8DBB8DDF
:102B6000ED91FC9111970484F585E02D2885398538
:102B70004C895D89688D798D670D711DCD01099531
:102B800021C08C819D81870D911DEA85FB858E9FDB
:102B9000B0018F9F700D9E9F700D1124620D731DEB
:102BA000AA8DBB8DED91FC9111970684F785E02DE0
:102BB000E884F9840E811F812A853B8548895989DB
:102BC000CD010995DD0C73948E85B0CF450C6394CF
:102BD0008DCFAA8DBB8DED91FC9111970688F78959
:102BE000E02DCD016B960FB6F894DEBF0FBECDBFC2
:102BF000DF91CF911F910F91FF90EF90DF90CF90D9
:102C0000BF90AF909F908F907F906F905F904F900C
:102C10003F902F9009946B960FB6F894DEBF0FBECD
:102C2000CDBFDF91CF911F910F91FF90EF90DF907B
:102C3000CF90BF90AF909F908F907F906F905F905C
:102C40004F903F902F9008950F931F93CF93DF9352
:102C500077FF04C0260F371F60E070E0DC01149698
:102C6000CD91DC911597FB01E20FF31FCE17DF0723
:102C70001CF49E01261B370B121613060CF046C0DF
:102C8000FA0157FD3796DF01E3E0B595A795EA9580
:102C9000E1F7AC9FF001AD9FF00DBC9FF00D11244A
:102CA0006E0F7F1FDC015F96ED91FC919097E60F10
:102CB000F71F4770552781E090E001C0880F4A95C3
:102CC000EAF7482F0130110539F078F0023011058C
:102CD000E9F42E0F3F1F13C02E0F3F1FE217F3071B
:102CE000A9F08081842B8193F9CF80952E0F3F1F0F
:102CF000E217F30759F0908198239193F9CFE217E7
:102D0000F30721F0808184278193F9CFDF91CF9160
:102D10001F910F910895EF92FF920F931F93CF93FE
:102D2000DF93EC0177FDA5C0EC80FD806E157F057B
:102D30000CF09FC057FF04C0240F351F40E050E047
:102D40008E819F81FA01E20FF31F8E179F071CF4FB
:102D50009C01241B350B121613060CF08AC0922F0F
:102D6000842F8695869586958E9DD0018F9DB00D7A
:102D700011246A0F7B1FAF8DB8A1A60FB71F477034
:102D8000B1F188E0841B482F682F70E0FB01EA58FE
:102D9000F84FE491281798F4621B71092FEF30E087
:102DA00002C0359527956A95E2F7E22301301105B7
:102DB00049F078F00230110509F05BC00EC0013017
:102DC000110519F48C91E82B0AC00130110508F0A7
:102DD00049C0E0958C91E82302C08C91E827EC93E0
:102DE000941708F446C02C813D81A20FB31FE92F30
:102DF000E41BE830F8F00230110561F48E2F9C914D
:102E000090959C932C813D81A20FB31F88508830F0
:102E1000B0F70FC081E00115110509F480E081953C
:102E20009E2F8C932C813D81A20FB31F9850983018
:102E3000C0F7E770EE23E9F0F0E0E259F84FE491D3
:102E40000130110539F048F00230110591F48C91F0
:102E5000E82706C08C91E82B03C0E0958C91E8230D
:102E6000EC9307C00230110509F4B7CFAE0DBF1DBA
:102E7000BECFDF91CF911F910F91FF90EF900895FA
:102E800020911E02211103C08FEF9FEF08955FB7BD
:102E9000F89422E02093E9002091F20030E012162D
:102EA000130614F421E030E0422FFC0184E6415087
:102EB00038F0289880931D029091F1009193F7CFFC
:102EC0002115310521F08091F200882319F05FBFB0
:102ED000C90108958BE68093E800F9CF2FB7F894E5
:102EE00083E08093E9009091E800892F807295FF3C
:102EF00004C09091F20080E4891B2FBF08958F9247
:102F00009F92AF92BF92CF92DF92EF92FF920F9378
:102F10001F93CF93DF936C017B018A0180910C0199
:102F2000882309F45CC080911E02882309F457C0ED
:102F300080911C0280FF05C08091E0008260809338
:102F4000E000E801B12C8AEFA82E93E0892E2AE355
:102F5000922E209711F4BB20D9F10E946E17811197
:102F60000AC0AA94AA20D9F161E070E080E090E064
:102F70000E94FB12EECF282F30E0C217D3070CF4CB
:102F80008C2F9FB7F8948092E9002091E80025FFEC
:102F90001DC0282F30E0C21BD30BF701815020F059
:102FA00041914093F100FACFE20EF31EBB2019F0DD
:102FB0009092E8000AC08091E80085FD07C09092D9
:102FC000E800BB24B394209709F0B12C9FBFC1CF78
:102FD0005D9884E680931B021016110644F081E090
:102FE00090E0F6019383828380E090E001C0C80105
:102FF000DF91CF911F910F91FF90EF90DF90CF90D5
:10300000BF90AF909F908F9008958091230281117F
:103010000DC082E080931F0284E080932002109212
:1030200022021092210281E0809323028FE192E03C
:103030000895EF92FF920F931F93CF93DF93082F82
:1030400061E0809177020E94BF12F0907802E090D8
:103050007702C0E0D0E010E0B8010C2E02C07595F8
:1030600067950A94E2F761708E2D0E94901261E0DC
:103070008F2D0E94901260E08F2D0E949012219659
:10308000C830D10549F7DF91CF911F910F91FF9083
:10309000EF9008950F931F93CF93DF93182F062F70
:1030A000C6E7D2E060E08A810E94901261E08881E8
:1030B0000E949012812F880F80680E941918802F1B
:1030C0000E94191860E08881DF91CF911F910F91C4
:1030D0000C949012FF920F931F93CF93DF9360E0B5
:1030E000809177020E94BF1200E0C0E0D0E0209102
:1030F000770230E0F901E153F34F8491F901E05593
:10310000F34FF490F901EF56F34F1491112391F01E
:1031100081110E945312E12FF0E0EE0FFF1FED57D7
:10312000F34FA591B491EC91EF2131E009F430E037
:10313000832F02C080E090E00C2E01C0880F0A941B
:10314000EAF7082B61E0809178020E94901260E01B
:10315000809178020E9490122196C830D10509F022
:10316000C6CF802FDF91CF911F910F91FF900895CF
:103170002091870230918802C901079697FD079632
:1031800023E0959587952A95E1F720918502309166
:103190008602829FA001839F500D929F500D1124A3
:1031A00060E070E08091A0029091A1020C949722BF
:1031B0003F924F925F926F927F928F929F92AF92C7
:1031C000BF92CF92DF92EF92FF920F931F93CF9314
:1031D000DF93CDB7DEB728970FB6F894DEBF0FBEEA
:1031E000CDBF4C017E836D832A013901C80107964A
:1031F00097FD07969C0193E0359527959A95E1F701
:103200003C832B83A12CB12CC12CD12C312CC2019D
:103210008C0D9D1D9A838983CE14DF04D4F5188606
:103220001F822F813885201731075CF5C90187700F
:103230009927892B11F0330C0EC0EF81F885F7FD2B
:10324000379683E0F595E7958A95E1F7EA0DFB1D42
:10325000E60DF71D349037FE0DC021E030E04981C6
:103260005A816D817E818F819885680F791FC40195
:103270000E943F092F8138852F5F3F4F38872F836A
:10328000D0CF3FEFC31AD30A8B819C81A80EB91E01
:10329000BECF28960FB6F894DEBF0FBECDBFDF912C
:1032A000CF911F910F91FF90EF90DF90CF90BF9043
:1032B000AF909F908F907F906F905F904F903F90D6
:1032C000089530917502313208F04BC0809151025F
:1032D0008111FCCF9091740222E02093510221E0F1
:1032E000209350022FEF20934F0210924E02309302
:1032F0004D02E4E5F2E0ADE2B2E020E0321721F069
:1033000041914D932F5FFACF10922C0220912C0205
:10331000990F922B90932C0290912B02913061F493
:1033200010922B0290912C029093BB009091BC00C4
:1033300093FDF8CF95EC01C095EE9093BC00909171
:1033400051029230E1F390914F029F3F79F08091CA
:103350004F02803241F080914F02803331F084E09F
:1033600005C081E003C082E001C083E010925302F7
:1033700010927502109252020895DF92EF92FF921E
:103380000F931F93CF93DF93D82ED92FC62F809101
:103390009E0290919F02009709F454C02091A202CE
:1033A00031E0309352022093740210925302109233
:1033B0007502DC01ED91FC910190F081E02D60E05F
:1033C0000995ED2CFD2E11E0D1E080919E029091A7
:1033D0009F02CC2371F11032C8F00E9461198091D4
:1033E000A202D09352028093740210925302109260
:1033F000750280919E0290919F02DC01ED91FC91FB
:103400000190F081E02D60E0099511E080919E022D
:1034100090919F02F7016491DC01ED91FC91019084
:10342000F081E02D09951F5FC150BFEFEB1AFB0A39
:10343000CCCFDF91CF911F910F91FF90EF90DF9054
:103440000C946119E091AE02F091AF0290818091ED
:10345000B4028095892380830D2D1D2FCC2309F480
:1034600039C0F801849120919C0230919D02232B58
:1034700031F00E941F0CC1500F5F1F4FEFCF28E0AB
:1034800030E040E8E091AA02F091AB029091B202E4
:10349000582F542319F05081952B03C050819095DB
:1034A00095239083E091AC02F091AD025081909110
:1034B000B302952B9083E091AC02F091AD02508164
:1034C0009091B302909595239083469521503109B0
:1034D000C9F6D1CFDF91CF911F910F91FF90EF905F
:1034E000DF900895EF92FF920F931F93CF93DF9396
:1034F00080919E0290919F02892BD1F02091B80279
:103500003091B9024091BA025091BB0260E074E27E
:1035100084EF90E00E943521DA01C9014097A109AA
:10352000B109B695A795979587958093B80016C071
:1035300080919C0290919D02892B31F08091B6027E
:103540009091B7020E94890CE091B002F091B10213
:1035500090818091B50280958923808365E08EE714
:103560009CE00E94BD1960918502615081E892E063
:103570000E94260C2091870230918802C90107968B
:1035800097FD079633E0959587953A95E1F7209159
:10359000850230918602829F8001839F100D929F49
:1035A000100D1124C091A002D091A10280919E0221
:1035B00090919F020C0F1D1F009709F44CC02091A1
:1035C000A20231E03093520220937402109253020F
:1035D00010927502DC01ED91FC910190F081E02DDB
:1035E00060E40995FF24F394EE24E39480919E0215
:1035F00090919F020C171D0759F1BFE1BF15D0F440
:103600000E9461198091A202E0925202809374029A
:10361000109253021092750280919E0290919F0227
:10362000DC01ED91FC910190F081E02D60E40995C1
:10363000FF24F39480919E0290919F026991DC0196
:10364000ED91FC910190F081E02D0995F394CECF9E
:103650000E94611941C0E091AE02F091AF029081E9
:103660008091B402892B80830C171D07A9F18991E1
:1036700020919C0230919D02232B19F00E941F0C77
:10368000F3CF28E030E040E8E091AA02F091AB02ED
:103690009091B202582F542319F05081952B03C0FA
:1036A0005081909595239083E091AC02F091AD020A
:1036B00050819091B302952B9083E091AC02F091F0
:1036C000AD0250819091B3029095952390834695D9
:1036D00021503109C9F6C8CF80919E0290919F0276
:1036E000892BD1F02091BC023091BD024091BE02E5
:1036F0005091BF0260E074E284EF90E00E943521B7
:10370000DA01C9014097A109B109B695A795979526
:1037100087958093B80017C0E091B002F091B10294
:1037200090818091B502892B808380919C02909139
:103730009D02892B41F0DF91CF911F910F91FF9056
:10374000EF900C941E0CDF91CF911F910F91FF9081
:10375000EF900895009769F0FC0101900020E9F7CF
:103760003197AF01481B590BBC0181E892E00C94E2
:10377000140E80E090E0089580E591E0909382023D
:10378000809381028091A0029091A102009711F094
:103790000C9409220895CF93DF93CDB7DEB7289715
:1037A0000FB6F894DEBF0FBECDBF789484B58260AB
:1037B00084BD84B5816084BD85B5826085BD85B5D5
:1037C000816085BD80916E00816080936E00109253
:1037D00081008091810082608093810080918100CE
:1037E000816080938100809180008160809380005F
:1037F000809191008260809391008091910081601E
:1038000080939100809190008160809390008091DE
:10381000C10084608093C1008091C1008260809368
:10382000C1008091C10081608093C1008091C3007C
:1038300081608093C3008091C00082608093C0004B
:103840008091C20081608093C20080917A00846080
:1038500080937A0080917A00826080937A008091D0
:103860007A00816080937A0080917A0080688093EA
:103870007A0010921E021092150210921C02809182
:10388000D70081608093D70080EA8093D80089B503
:10389000806189BD89B5826089BD09B400FEFDCF14
:1038A00061E070E080E090E00E94FB128091D8001F
:1038B0008F7C80618093D8008091E000807F80932E
:1038C000E0008091E1008E7E8093E1008DE08093A6
:1038D000E200559A209A61E00E94BF1261E086E002
:1038E0000E94BF1261E087E00E94BF1261E083E1A5
:1038F0000E94BF1261E082E10E94BF1260E08DE091
:103900000E94901260E086E00E94901261E087E0E1
:103910000E94901260E083E10E94901261E082E1D7
:103920000E9490128091A0029091A102892B11F522
:103930002091870230918802C901079697FD07966A
:1039400023E0959587952A95E1F72091850230919E
:103950008602AC01429FC001439F900D529F900D83
:1039600011240E9471219093A1028093A002892BBF
:1039700009F41CC10E94B8188091870290918802B6
:10398000813291050CF479C2AC014054510957FFC2
:1039900002C04F5F5F4F55954795609185027091CA
:1039A00086026255710977FF02C06F5F7F4F759580
:1039B000679510E4E12EF12C02E510E026EC32E0F0
:1039C00081E892E00E94D81882E08093A30280915F
:1039D0009E0290919F02892B09F46EC2809187020A
:1039E00090918802809709F465C28DE38093A202CA
:1039F00010920A021092090210925302109275025C
:103A00001092510281E08093500210922B0261E0EB
:103A100082E00E94901261E083E00E949012809107
:103A2000B9008E7F8093B9008091B9008D7F80931B
:103A3000B90088E48093B80085E48093BC008AE2F2
:103A40009AE090930802809307028BE29AE09093A9
:103A50000602809305028091A90287FD1EC061E0E5
:103A60000E94BF1261E08091A9020E94901261E061
:103A700070E080E090E00E94FB1260E08091A9027B
:103A80000E9490126AE070E080E090E00E94FB12D9
:103A900061E08091A9020E94901280919E02909113
:103AA0009F02892B09F4C7C22091B8023091B90254
:103AB0004091BA025091BB0260E074E284EF90E062
:103AC0000E943521DA01C9014097A109B109B695D3
:103AD000A795979587958093B80064E082EE90E073
:103AE0000E94BD1960918702615081E892E00E94B6
:103AF000260C64E08EED90E00E94BD198091A30237
:103B0000813009F4AFC264E181E892E00E94260CA2
:103B100064E08AED90E00E94BD1980918502909149
:103B200086028038910509F0B0C280918702909199
:103B300088028032910509F097C264E086ED90E03A
:103B40000E94BD1969ED81E892E00E94260C8091E7
:103B5000A302813009F4B5C261EF81E892E00E94CE
:103B6000260C66E08AEC90E00E94BD1980919E02CE
:103B700090919F02892B09F4A6C22091BC0230913A
:103B8000BD024091BE025091BF0260E074E284EF3A
:103B900090E00E943521DA01C9014097A109B109DD
:103BA000B695A795979587958093B80060E080912A
:103BB00078020E94901261E0809176020E94901239
:103BC00081E80E9419180E946A18182F60E08091FD
:103BD00076020E949012612F6F7780E00E944A184F
:103BE00060E887E00E944A1862E085E00E944A1877
:103BF00069E082E00E944A1865E281E00E944A186A
:103C000060E080E00E944A1869E186E00E944A185C
:103C100060E184E00E944A1863E083E00E944A1851
:103C20007AE0572EE2E04E2ECC24C394D12C2AE326
:103C3000222E3EE1632E712C4EE2342E58EE852E5C
:103C400053E0952E64E6A62EB12C809100018823C6
:103C5000D9F00E94B81891E3E92EF12C02E310E0AC
:103C600026E835E04AE050E068E270E081E892E062
:103C70000E94D8180E94721A1092000168EE73E038
:103C800080E090E00E94FB120E94B81840929502DA
:103C900040929602D0929402C0929302D0929202E5
:103CA000C09291028FE090E090938E0280938D02FB
:103CB00045E050E05093900240938F020E945613CB
:103CC0003A834B832A3010F480E305C0822F652DA0
:103CD0000E941521805D80937D01822F652D0E94B9
:103CE0001521905D90937E0120927F012A812A30D8
:103CF00010F480E305C0822F652D0E941521805DA0
:103D000080938001822F652D0E941521905D9093F4
:103D10008101209282012B812A3010F480E305C0BA
:103D2000822F652D0E941521805D80938301822F53
:103D3000652D0E941521905D90938401109285015C
:103D40008DE791E00E94AA1B88E791E00E94AA1BE0
:103D500081E0809395028093960287E390E09093B0
:103D60008E0280938D027092900260928F020E9468
:103D700056139150973048F4E92FF0E0EE0FFF1FF3
:103D8000ED5EFE4F8081918102C08CE791E00E9440
:103D9000AA1B4092950240929602D0928E02C09247
:103DA0008D0282E390E09093900280938F020E94B4
:103DB00056136D837E838F835A3010F480E305C0E1
:103DC000852F652D0E941521805D80937B01852FB5
:103DD000652D0E941521905D90937C0130927D01AC
:103DE0002D812A3010F480E305C0822F652D0E94BA
:103DF0001521805D80937E01822F652D0E94152103
:103E0000905D90937F01309280012E813F81C901A6
:103E1000B4010E942121605D60938101B5010E947F
:103E20002121605D60938201C901B5010E942121B9
:103E3000EAE0F0E0BF010E942121605D6093830110
:103E4000C901BF010E942121805D809384011092ED
:103E500085018BE791E00E94AA1B0E94721A68EE0E
:103E600073E080E090E00E94FB1240E050E0452BC0
:103E700009F4EBCE0E940000DACEAC0140525109A9
:103E800057FF02C04F5F5F4F559547956091850280
:103E9000709186026357710977FF02C06F5F7F4F91
:103EA00075956795F0E2EF2EF12C03E710E026EE12
:103EB00030E086CD8CE39ACD61E08091A7020E942C
:103EC000BF1261E08091A8020E94BF128091A702F8
:103ED000082E000C990BFC01EF56F34FE491F0E033
:103EE000EE0FFF1FE551F94F259134913093AF024A
:103EF0002093AE02FC01E055F34FE491E093B4024D
:103F00008091A802082E000C990BFC01EF56F34F8C
:103F1000E491F0E0EE0FFF1FE551F94FA591B49148
:103F2000B093B102A093B002FC01E055F34FE491CD
:103F3000E093B5028C91E82BEC9380919C029091D8
:103F40009D02892B09F434C01FB7F89480910B02AD
:103F5000811127C0E2EAFCE08491E1ECFCE094915D
:103F6000E82FF0E0EE0FFF1FE352F94FA591B49157
:103F7000EC91E92321F461E081E10E94901261E07B
:103F800081E10E94BF128CB580618CBD8CB58064CC
:103F90008CBD61E08FE00E94BF1261E080E10E9471
:103FA000BF1280910B028F5F80930B021FBF53CD16
:103FB00061E08091A5020E94BF1261E08091A6029B
:103FC0000E94BF128091A502082E000C990BFC01E3
:103FD000EF56F34FE491F0E0EE0FFF1FE551F94F7C
:103FE000259134913093AB022093AA02FC01E05555
:103FF000F34FE491E093B2028091A602082E000CE8
:10400000990BFC01EF56F34FE491F0E0EE0FFF1F28
:10401000E551F94FA591B491B093AD02A093AC02D4
:10402000FC01E055F34FE491E093B3028C91E095ED
:10403000E823EC9310CD80919C0290919D02892BF6
:1040400031F08091B6029091B7020E94890CE09104
:10405000B002F091B10290818091B50280958923E0
:1040600080833BCD60E150CD8034910509F06ACD6D
:1040700063E083ED90E00E94BD198091A30281303E
:1040800011F06FEC19C06FE917C08036910509F087
:1040900059CD8091870290918802409709F052CDC6
:1040A00063E080ED90E00E94BD198091A302813011
:1040B00011F06FEA01C060E181E892E00E94260CF5
:1040C00041CD62E24ACDE091B002F091B10290811F
:1040D0008091B502892B808380919C0290919D02F2
:1040E000892B09F463CD0E941E0C60CDDF92EF9204
:1040F000FF920F931F93CF93DF93D82EF92EE42EC8
:10410000062F10E0C8010196880F0E94C90E83E0B7
:104110000E94C90ECD2DDF2D0C0F1D1FC017D1071A
:1041200089F0E7FE03C0FE01849101C088810E94EE
:10413000C90EF82E80E00E94C90E8F2121968111B0
:10414000EDCF01C081E0DF91CF911F910F91FF90E2
:10415000EF90DF900895CF93DF93E0ECF2E01382CD
:10416000128288EE93E0A0E0B0E084839583A6837A
:10417000B7832CE231E0318320832FEF3FEF358787
:104180002487E0E1F3E01382128284839583A6837F
:10419000B7838EE391E091838083E1E8F2E01382BC
:1041A000128240E850E05583448380E490E0978396
:1041B00086835187408793878287168A158614865F
:1041C0001786168681E0858B848B338B228B318B0F
:1041D000208B878B108E128E118E20E531E031837B
:1041E0002083148E138E168E158E10A2178E94E0D7
:1041F00094A395E095A392E096A393E097A380A75C
:1042000080E585AB16AAC6E7D2E086E1888385E122
:10421000898384E18A8361E086E10E94BF1261E0C4
:104220008A81DF91CF910C94BF12991B79E004C071
:10423000991F961708F0961B881F7A95C9F78095E5
:10424000089597FB072E16F4009407D077FD09D048
:104250000E945D2107FC05D03EF4909581959F4F0B
:104260000895709561957F4F0895A1E21A2EAA1BBB
:10427000BB1BFD010DC0AA1FBB1FEE1FFF1FA21716
:10428000B307E407F50720F0A21BB30BE40BF50B13
:10429000661F771F881F991F1A9469F7609570959C
:1042A000809590959B01AC01BD01CF010895EE0F63
:1042B000FF1F0590F491E02D0994AA1BBB1B51E14F
:1042C00007C0AA1FBB1FA617B70710F0A61BB70B86
:1042D000881F991F5A95A9F780959095BC01CD012B
:1042E00008950F931F93CF93DF938230910510F4BD
:1042F00082E090E0E0911E03F0911F0320E030E0A7
:10430000A0E0B0E0309719F1408151810281138122
:1043100048175907C8F08417950769F4109731F0CA
:1043200012960C93129713961C9327C000931E03AA
:1043300010931F0322C02115310519F042175307AE
:1043400018F49A01BD01EF01DF01F801DBCF21155F
:104350003105F9F0281B390B2430310580F48A81AE
:104360009B816115710521F0FB019383828304C059
:1043700090931F0380931E03FE01329644C0FE01FA
:10438000E20FF31F819391932250310939832883DF
:104390003AC020911C0330911D03232B41F420913E
:1043A0000F013091100130931D0320931C032091C5
:1043B0000D0130910E012115310541F42DB73EB7A5
:1043C0004091110150911201241B350BE0911C0307
:1043D000F0911D03E217F307A0F42E1B3F0B2817E3
:1043E000390778F0AC014E5F5F4F2417350748F06E
:1043F0004E0F5F1F50931D0340931C0381939193B5
:1044000002C0E0E0F0E0CF01DF91CF911F910F916A
:104410000895CF93DF93009709F481C0FC01329790
:1044200013821282A0911E03B0911F03109781F492
:1044300020813181820F931F20911C0330911D0335
:104440002817390751F5F0931D03E0931C0367C04B
:10445000ED0120E030E0CE17DF0740F44A815B81B8
:104460009E0141155105F1F0EA01F5CFD383C283D6
:1044700040815181840F951FC817D90759F488814D
:104480009981840F951F0296918380838A819B81F5
:10449000938382832115310529F4F0931F03E09360
:1044A0001E033DC0E901FB83EA8349915991C40F82
:1044B000D51FEC17FD0761F480819181840F951F52
:1044C0000296E90199838883828193819B838A8301
:1044D000E0E0F0E012968D919C911397009719F00F
:1044E000FD01DC01F7CF8D919C9111979D012E5F0D
:1044F0003F4F820F931F20911C0330911D032817FB
:10450000390769F4309729F410921F0310921E03A3
:1045100002C013821282B0931D03A0931C03DF918B
:10452000CF91089581E090E0F8940C949E22DC01F4
:1045300001C06D9341505040E0F7089516E0C8E780
:10454000D6E004C0FE010E9457212196C937D10749
:06455000C9F7F894FFCF4B
:1045560001FFFFFFFF00E100000000000000002057
:1045660003800086018A018E01920196019A019EBE
:104576000100C180810000000000000035137F1794
:104586002B0F4B13AF0E530F2F0F00000000840AA2
:10459600570AB40A16094F0A3B0A2C0A0000000003
:1045A600460B140EB40AB30AA30616093F091709E7
:1045B600330927094609160961078C0CB70AFB0A55
:1045C6005F084208D50776070D0A0078787878786C
:1045D6007878787878004D6F6E0054756500576569
:1045E600640054687500467269005361740053751F
:0245F6006E0055
:2070000055C000006EC000006CC000006AC0000068C0000066C0000064C0000062C0000043
:2070200060C000005EC00000F2C400005AC0000058C0000056C0000054C0000052C00000EE
:2070400050C0000078C000004CC000004AC0000048C0000046C0000044C0000042C00000BE
:2070600040C000003EC000003CC000003AC0000038C0000036C0000034C0000032C0000048
:2070800030C000002EC000002CC000002AC0000028C0000026C0000024C0000022C00000A8
:2070A00020C000001EC000001CC0000011241FBECFEFDAE0DEBFCDBF11E0A0E0B1E0E2E3BC
:2070C000FFE702C005900D92A83AB107D9F711E0A8EAB1E001C01D92AE3BB107E1F78FD30B
:2070E00026C78ECFF89410926F0010928100109285001092840081E085BF15BE47985D9AEB
:20710000289A0C94000008952091B2013091B3012F5F3F4F3093B3012093B201932F37FFA6
:2071200003C08EEF831B982F990F921710F447980895479A08951F920F920FB60F9211246E
:207140002F938F939F93EF93FF9310928500109284008091A8019091A901009741F00197D3
:207160009093A9018093A801892B09F45D9A8091AA019091AB01009741F001979093AB0126
:207180008093AA01892B09F4289AE0E0F0E0859194918F5F9F4F49F08091AC019091AD0151
:2071A00001969093AD018093AC01FF91EF919F918F912F910F900FBE0F901F90189584E0BC
:2071C0008093E9000DC08091E8008B778093E80003C08EB3882351F08091E80082FFF9CFBE
:2071E0008091E80085FFEFCF8091F1000895982F83E08093E9008091E80085FD0DC0809136
:20720000E8008E778093E80003C08EB3882369F08091E80080FFF9CF9093F1005D9884E6CB
:2072200090E09093A9018093A80108954F925F926F927F928F929F92AF92BF92CF92DF921E
:20724000EF92FF920F931F93CF93DF9384E08093E9008091E80082FF57C2289884E690E067
:207260009093AB018093AA01AADF182F853481F48CE49DE19093AD018093AC0107B600FC4B
:20728000FDCFF999FECF81E180935700E89503C0843519F494DF8DE00DC28C34E1F38035F9
:2072A000D1F3843721F484E4A2DF80E003C2813611F489E5FFC18134B1F481DF182F7FDFE3
:2072C00090E0880F991FAA2797FDA095BA2F312F330F20E0442737FD4095542F822B932B68
:2072E000A42BB52BB8C1803711F483E5E3C1833549F4C0E0D1E089917ADF21E0C730D20714
:20730000D1F7D9C1863521F481E371DF80E3D2C1833731F487E86BDF85E969DF8EE1CAC149
:207320008536B9F4E0E0F0E093E085E090935700E89507B600FCFDCF80935700E89507B65D
:2073400000FCFDCFE058FF4FA0E7E030FA0771F7A2CF823739F4E1E0F0E089E08093570024
:207360008491A8C1863439F4E0E0F0E089E08093570084919FC18E3439F4E3E0F0E089E0E5
:2073800080935700849196C1813539F4E2E0F0E089E08093570084918DC1823631F489E521
:2073A00026DF80E024DF80E885C1823419F0873609F0E5C01092AD011092AC0100DF082FE8
:2073C000FEDEF82EFCDE682E8554823008F071C1902F80E0CF2DD0E0C82BD92B10926F00B3
:2073E000173609F04BC081E180935700E895DD24CC24C3943FC0E090AE01F090AF010091CC
:20740000B0011091B101B6E46B16D9F4ED2DF0E0EE29FF29E4918E2FEADEDD2081F082E08D
:2074200090E0A0E0B0E0E80EF91E0A1F1B1FE092AE01F092AF010093B0011093B101DC2470
:2074400018C0D801C701B695A7959795879559D5CEDE82E090E0A0E0B0E0E80EF91E0A1FF2
:207460001B1FE092AE01F092AF010093B0011093B1012197209709F0BECF7DC08090AE01F5
:207480009090AF01A090B001B090B10196E4691609F05DC083E0F40180935700E89507B63E
:2074A00000FCFDCF54C0F6E46F1661F5772031F1E090AE01F090AF010091B0011091B1019E
:2074C0007EDED82ECC24852D90E08C299D29F7010C0140925700E895112482E090E0A0E08B
:2074E000B0E0E80EF91E0A1F1B1FE092AE01F092AF010093B0011093B10102C060DE582E1A
:20750000742423C0E090AE01F090AF010091B0011091B10116950795F794E79450DE682FFA
:20752000C701F7D48091AE019091AF01A091B001B091B1010296A11DB11D8093AE01909349
:20754000AF01A093B001B093B101219704C05524772444244394209709F0A5CF96E46916B6
:2075600041F485E0F40180935700E89507B600FCFDCF8DE03CDE82E080936F009CC0833492
:2075800071F40091AE011091AF0119DE90E021E0F8010C0120935700E89511247CCE8336C8
:2075A00019F5E090AE01F090AF010091B0011091B10105DEF701E16090E021E00C0120938C
:2075C0005700E895112482E090E0A0E0B0E0E80EF91E0A1F1B1FE092AE01F092AF0100936A
:2075E000B0011093B10157CE8D3661F4E091AE01F091AF0185E080935700E89507B600FCF2
:20760000FDCF49CE823551F4E091AE01F091AF0105911491812FEBDD802F4CC0843421F5FE
:20762000E090AE01F090AF010091B0011091B10116950795F794E794C2DD682FC70169D4DE
:207640008091AE019091AF01A091B001B091B1010296A11DB11D8093AE019093AF01A093D8
:20766000B001B093B10117CE843609F5E090AE01F090AF010091B0011091B101D801C70142
:20768000B695A795979587953CD4B1DD82E090E0A0E0B0E0E80EF91E0A1F1B1FE092AE010A
:2076A000F092AF010093B0011093B10104C08B3111F08FE39CDD83E08093E9009091E8002B
:2076C0008091E8008E778093E80095FF04C010C08EB38823C9F08091E80080FFF9CF809193
:2076E000E8008E778093E80003C08EB3882361F08091E80080FFF9CF84E08093E9008091F1
:20770000E8008B778093E800DF91CF911F910F91FF90EF90DF90CF90BF90AF909F908F90AC
:207720007F906F905F904F9008959091B601892F8F77813249F58091B7018032A1F081328A
:2077400019F5913A09F58091E800877F8093E8008DE091E067E070E00BD28091E8008B770B
:207760008093E8000895913279F48091E800877F8093E8008DE091E067E070E05DD2809192
:20778000E8008E778093E800089582E061EC42E0B5D083E061E842E1B1D084E060E842E1EF
:2077A000ADC084B7877F84BF88E10FB6F89480936000109260000FBE20E880E090E00FB63F
:2077C000F89420936100809361000FBE81E085BF92E095BF3F9A209A559AE1E6F0E02083A1
:2077E000108247985D9A289A109289008AEF8093880090936F0083E080938100F0C0409116
:20780000000850910108109201081092000894B714BE88E10FB6F8948093600010926000D5
:207820000FBE292F30E0F901E270F07091FD18C090FF05C0859194918F5F9F4F81F423FFFF
:207840000FC08091090190910A014817590741F0E0E0F0E0859194918F5F9F4F09F042DC64
:20786000A0DF78941092AD011092AC010CC0DEDC36D38091AC019091AD0181549F4110F00D
:207880001092140141DC80911401882381F78091E00081608093E00025DC80E090E0089598
:2078A000FA01923049F0933061F09130F9F485E191E022E130E01EC087E291E02EE330E04D
:2078C00019C0882329F485E691E024E030E012C0813029F489E691E022E230E00BC0823006
:2078E00029F48DE891E028E130E004C080E090E020E030E091838083C90108958093E9004E
:207900008091EB0081608093EB001092ED006093EC004093ED008091EE00881F8827881F62
:2079200008958091B60188238CF403C08EB38823B1F08091E80082FFF9CF8091E8008B772A
:207940008093E80008958EB3882349F08091E80080FFF9CF8091E8008E778093E800089594
:20796000EF92FF920F931F9345D04CD008ED10E0F80180818F77808380818068808380819B
:207980008F7D808319BC1EBA1092B40180EEE82EF12CF70180818B7F8083F8018081816052
:2079A000808380E060E042E0A9DFE1EEF0E080818E7F8083E2EEF0E0808181608083808144
:2079C00088608083F70180818E7F8083F8018081806180831F910F91FF90EF900895E7ED06
:2079E000F0E08081816080838AE482BF81E08093B501B6CFE8EDF0E080818E7F808310921C
:207A0000E20008951092DA001092E10008951F920F920FB60F9211242F933F934F935F93F6
:207A20006F937F938F939F93AF93BF93EF93FF938091DA0080FF1BC08091D80080FF17C0B2
:207A40008091DA008E7F8093DA008091D90080FF0BC080E189BD82E189BD09B400FEFDCF36
:207A600081E08EBB3BD203C019BC1EBA37D28091E10080FF17C08091E20080FF13C0809138
:207A8000E2008E7F8093E2008091E20080618093E2008091D80080628093D80019BC85E049
:207AA0008EBB1CD28091E10084FF2CC08091E20084FF28C080E189BD82E189BD09B400FEC5
:207AC000FDCF8091D8008F7D8093D8008091E1008F7E8093E1008091E2008F7E8093E20012
:207AE0008091E20081608093E2008091B401882331F48091E30087FD02C081E001C084E067
:207B00008EBBECD18091E10083FF21C08091E20083FF1DC08091E100877F8093E10082E06A
:207B20008EBB1092B4018091E1008E7F8093E1008091E2008E7F8093E2008091E2008061E9
:207B40008093E20080E060E042E0D8DEC7D1FF91EF91BF91AF919F918F917F916F915F9130
:207B60004F913F912F910F900FBE0F901F9018959C014091BC015091BD014617570718F49D
:207B8000F90190E044C06115710511F0AB01F8CF8091E8008E778093E80040E050E0F0CF0F
:207BA0008EB3882309F444C0853009F443C08091E80083FF02C081E008958091E80082FD70
:207BC00031C08091E80080FF22C08091F3009091F200782F60E0292F30E0262B372B07C07A
:207BE00081918093F100415050402F5F3F4F4115510519F02830310598F390E02830310566
:207C000009F491E08091E8008E778093E8004115510531F6992321F605C08EB3882341F075
:207C2000853041F08091E80082FFF7CF80E0089582E0089583E008959C016115710529F47C
:207C40008091E8008B778093E800F90126C08EB3882391F1853091F18091E80083FF02C06C
:207C600081E008958091E80082FFF1CF06C08091F10081936150704059F02091F300809191
:207C8000F200322F20E090E0822B932B892B79F78091E8008B778093E80061157105B9F601
:207CA00005C08EB3882341F0853041F08091E80080FFF7CF80E0089582E0089583E00895C2
:207CC0000F931F93DF93CF9300D0CDB7DEB7E6EBF1E08091F100819381E0EE3BF807C9F792
:207CE00024DD8091E80083FFE4C08091B6019091B701953009F46DC0963040F4913081F1A7
:207D0000913070F0933009F0D4C02AC0983009F4A3C0993009F4B2C0963009F0CAC07CC023
:207D2000803809F4C6C0823809F0C3C08091BA0187708093E9008091EB001092E9002091DB
:207D4000E800277F2093E80090E025E0969587952A95E1F781708093F1001092F10087C0D8
:207D6000882319F0823009F0A4C08F71823009F0A0C08091B801882331F52091BA01277097
:207D800009F497C02093E9008091EB0080FF1BC0933021F48091EB00806213C08091EB0018
:207DA00080618093EB0081E090E002C0880F991F2A95E2F78093EA001092EA008091EB00E5
:207DC00088608093EB001092E9008091E800877F51C0882309F06DC01091B8011F770FB79B
:207DE000F8948091E800877F8093E8009ADD8091E80080FFFCCF8091E3008078812B809398
:207E0000E30080688093E300112311F482E001C083E08EBB0FBF4DC08058823008F049C033
:207E20008091B8019091B9016091BA01AE014F5F5F4F36DDBC01009709F43BC08091E8008E
:207E4000877F8093E80089819A8192DE8091E8008B778093E8002DC0803859F58091E800AA
:207E6000877F8093E8008091B4018093F1008091E8008E778093E80054DD1BC08823C9F4CA
:207E80009091B8019230A8F48091E800877F8093E8009093B40145DD8091B401882331F420
:207EA0008091E30087FD02C081E001C084E08EBB6CDC8091E80083FF0AC08091EB0080624E
:207EC0008093EB008091E800877F8093E8000F900F90CF91DF911F910F91089508951F9360
:207EE0008EB3882361F01091E9001092E9008091E80083FF01C0E4DE17701093E9001F916F
:207F00000895F999FECF92BD81BDF89A992780B50895262FF999FECF1FBA92BD81BD20BDBD
:207F20000FB6F894FA9AF99A0FBE01960895F894FFCF4341544552494E4100777700080031
:207F40000000000000080112011001020000084123360001000201000109023E00020100FF
:207F600080320904000001020201000524001001042402040524060001070582030800FF0C
:207F800009040100020A000000070504021000010705830210000104030904220341007216
:207FA000006400750069006E006F0020004C0065006F006E006100720064006F0000001836
:1A7FC00003410072006400750069006E006F0020004C004C004300000000D7
:00000001FF
